{
  "contractName": "BloodyFace",
  "abi": [
    {
      "inputs": [],
      "stateMutability": "nonpayable",
      "type": "constructor"
    },
    {
      "anonymous": false,
      "inputs": [
        {
          "indexed": true,
          "internalType": "address",
          "name": "owner",
          "type": "address"
        },
        {
          "indexed": true,
          "internalType": "address",
          "name": "approved",
          "type": "address"
        },
        {
          "indexed": true,
          "internalType": "uint256",
          "name": "tokenId",
          "type": "uint256"
        }
      ],
      "name": "Approval",
      "type": "event"
    },
    {
      "anonymous": false,
      "inputs": [
        {
          "indexed": true,
          "internalType": "address",
          "name": "owner",
          "type": "address"
        },
        {
          "indexed": true,
          "internalType": "address",
          "name": "operator",
          "type": "address"
        },
        {
          "indexed": false,
          "internalType": "bool",
          "name": "approved",
          "type": "bool"
        }
      ],
      "name": "ApprovalForAll",
      "type": "event"
    },
    {
      "anonymous": false,
      "inputs": [
        {
          "indexed": true,
          "internalType": "address",
          "name": "previousOwner",
          "type": "address"
        },
        {
          "indexed": true,
          "internalType": "address",
          "name": "newOwner",
          "type": "address"
        }
      ],
      "name": "OwnershipTransferred",
      "type": "event"
    },
    {
      "anonymous": false,
      "inputs": [
        {
          "indexed": true,
          "internalType": "address",
          "name": "from",
          "type": "address"
        },
        {
          "indexed": true,
          "internalType": "address",
          "name": "to",
          "type": "address"
        },
        {
          "indexed": true,
          "internalType": "uint256",
          "name": "tokenId",
          "type": "uint256"
        }
      ],
      "name": "Transfer",
      "type": "event"
    },
    {
      "inputs": [
        {
          "internalType": "address",
          "name": "to",
          "type": "address"
        },
        {
          "internalType": "uint256",
          "name": "tokenId",
          "type": "uint256"
        }
      ],
      "name": "approve",
      "outputs": [],
      "stateMutability": "nonpayable",
      "type": "function"
    },
    {
      "inputs": [
        {
          "internalType": "address",
          "name": "owner",
          "type": "address"
        }
      ],
      "name": "balanceOf",
      "outputs": [
        {
          "internalType": "uint256",
          "name": "",
          "type": "uint256"
        }
      ],
      "stateMutability": "view",
      "type": "function",
      "constant": true
    },
    {
      "inputs": [
        {
          "internalType": "uint256",
          "name": "tokenId",
          "type": "uint256"
        }
      ],
      "name": "getApproved",
      "outputs": [
        {
          "internalType": "address",
          "name": "",
          "type": "address"
        }
      ],
      "stateMutability": "view",
      "type": "function",
      "constant": true
    },
    {
      "inputs": [
        {
          "internalType": "address",
          "name": "owner",
          "type": "address"
        },
        {
          "internalType": "address",
          "name": "operator",
          "type": "address"
        }
      ],
      "name": "isApprovedForAll",
      "outputs": [
        {
          "internalType": "bool",
          "name": "",
          "type": "bool"
        }
      ],
      "stateMutability": "view",
      "type": "function",
      "constant": true
    },
    {
      "inputs": [],
      "name": "name",
      "outputs": [
        {
          "internalType": "string",
          "name": "",
          "type": "string"
        }
      ],
      "stateMutability": "view",
      "type": "function",
      "constant": true
    },
    {
      "inputs": [],
      "name": "owner",
      "outputs": [
        {
          "internalType": "address",
          "name": "",
          "type": "address"
        }
      ],
      "stateMutability": "view",
      "type": "function",
      "constant": true
    },
    {
      "inputs": [
        {
          "internalType": "uint256",
          "name": "tokenId",
          "type": "uint256"
        }
      ],
      "name": "ownerOf",
      "outputs": [
        {
          "internalType": "address",
          "name": "",
          "type": "address"
        }
      ],
      "stateMutability": "view",
      "type": "function",
      "constant": true
    },
    {
      "inputs": [],
      "name": "renounceOwnership",
      "outputs": [],
      "stateMutability": "nonpayable",
      "type": "function"
    },
    {
      "inputs": [
        {
          "internalType": "address",
          "name": "from",
          "type": "address"
        },
        {
          "internalType": "address",
          "name": "to",
          "type": "address"
        },
        {
          "internalType": "uint256",
          "name": "tokenId",
          "type": "uint256"
        }
      ],
      "name": "safeTransferFrom",
      "outputs": [],
      "stateMutability": "nonpayable",
      "type": "function"
    },
    {
      "inputs": [
        {
          "internalType": "address",
          "name": "from",
          "type": "address"
        },
        {
          "internalType": "address",
          "name": "to",
          "type": "address"
        },
        {
          "internalType": "uint256",
          "name": "tokenId",
          "type": "uint256"
        },
        {
          "internalType": "bytes",
          "name": "_data",
          "type": "bytes"
        }
      ],
      "name": "safeTransferFrom",
      "outputs": [],
      "stateMutability": "nonpayable",
      "type": "function"
    },
    {
      "inputs": [
        {
          "internalType": "address",
          "name": "operator",
          "type": "address"
        },
        {
          "internalType": "bool",
          "name": "approved",
          "type": "bool"
        }
      ],
      "name": "setApprovalForAll",
      "outputs": [],
      "stateMutability": "nonpayable",
      "type": "function"
    },
    {
      "inputs": [],
      "name": "symbol",
      "outputs": [
        {
          "internalType": "string",
          "name": "",
          "type": "string"
        }
      ],
      "stateMutability": "view",
      "type": "function",
      "constant": true
    },
    {
      "inputs": [
        {
          "internalType": "uint256",
          "name": "index",
          "type": "uint256"
        }
      ],
      "name": "tokenByIndex",
      "outputs": [
        {
          "internalType": "uint256",
          "name": "",
          "type": "uint256"
        }
      ],
      "stateMutability": "view",
      "type": "function",
      "constant": true
    },
    {
      "inputs": [
        {
          "internalType": "address",
          "name": "owner",
          "type": "address"
        },
        {
          "internalType": "uint256",
          "name": "index",
          "type": "uint256"
        }
      ],
      "name": "tokenOfOwnerByIndex",
      "outputs": [
        {
          "internalType": "uint256",
          "name": "",
          "type": "uint256"
        }
      ],
      "stateMutability": "view",
      "type": "function",
      "constant": true
    },
    {
      "inputs": [],
      "name": "totalSupply",
      "outputs": [
        {
          "internalType": "uint256",
          "name": "",
          "type": "uint256"
        }
      ],
      "stateMutability": "view",
      "type": "function",
      "constant": true
    },
    {
      "inputs": [
        {
          "internalType": "address",
          "name": "from",
          "type": "address"
        },
        {
          "internalType": "address",
          "name": "to",
          "type": "address"
        },
        {
          "internalType": "uint256",
          "name": "tokenId",
          "type": "uint256"
        }
      ],
      "name": "transferFrom",
      "outputs": [],
      "stateMutability": "nonpayable",
      "type": "function"
    },
    {
      "inputs": [
        {
          "internalType": "address",
          "name": "newOwner",
          "type": "address"
        }
      ],
      "name": "transferOwnership",
      "outputs": [],
      "stateMutability": "nonpayable",
      "type": "function"
    },
    {
      "inputs": [],
      "name": "mintBloodyFace",
      "outputs": [
        {
          "internalType": "uint256",
          "name": "",
          "type": "uint256"
        }
      ],
      "stateMutability": "payable",
      "type": "function",
      "payable": true
    },
    {
      "inputs": [
        {
          "internalType": "string",
          "name": "_newUrl",
          "type": "string"
        }
      ],
      "name": "setApiUrl",
      "outputs": [],
      "stateMutability": "nonpayable",
      "type": "function"
    },
    {
      "inputs": [],
      "name": "getApiUrl",
      "outputs": [
        {
          "internalType": "string",
          "name": "",
          "type": "string"
        }
      ],
      "stateMutability": "view",
      "type": "function",
      "constant": true
    },
    {
      "inputs": [
        {
          "internalType": "uint256",
          "name": "tokenId",
          "type": "uint256"
        }
      ],
      "name": "tokenURI",
      "outputs": [
        {
          "internalType": "string",
          "name": "",
          "type": "string"
        }
      ],
      "stateMutability": "view",
      "type": "function",
      "constant": true
    },
    {
      "inputs": [
        {
          "internalType": "bytes4",
          "name": "interfaceId",
          "type": "bytes4"
        }
      ],
      "name": "supportsInterface",
      "outputs": [
        {
          "internalType": "bool",
          "name": "",
          "type": "bool"
        }
      ],
      "stateMutability": "view",
      "type": "function",
      "constant": true
    }
  ],
  "bytecode": "0x6080604052610d05600d556040518060400160405280601f81526020017f68747470733a2f2f626c6f6f647966616365732e696f2f6170692f6e66742f00815250600e908051906020019062000057929190620001fa565b503480156200006557600080fd5b506040518060400160405280600a81526020017f426c6f6f647946616365000000000000000000000000000000000000000000008152506040518060400160405280600581526020017f424c4446430000000000000000000000000000000000000000000000000000008152508160009080519060200190620000ea929190620001fa565b50806001908051906020019062000103929190620001fa565b505050620001266200011a6200012c60201b60201c565b6200013460201b60201c565b6200030f565b600033905090565b6000600b60009054906101000a900473ffffffffffffffffffffffffffffffffffffffff16905081600b60006101000a81548173ffffffffffffffffffffffffffffffffffffffff021916908373ffffffffffffffffffffffffffffffffffffffff1602179055508173ffffffffffffffffffffffffffffffffffffffff168173ffffffffffffffffffffffffffffffffffffffff167f8be0079c531659141344cd1fd0a4f28419497f9722a3daafe3b4186f6b6457e060405160405180910390a35050565b8280546200020890620002aa565b90600052602060002090601f0160209004810192826200022c576000855562000278565b82601f106200024757805160ff191683800117855562000278565b8280016001018555821562000278579182015b82811115620002775782518255916020019190600101906200025a565b5b5090506200028791906200028b565b5090565b5b80821115620002a65760008160009055506001016200028c565b5090565b60006002820490506001821680620002c357607f821691505b60208210811415620002da57620002d9620002e0565b5b50919050565b7f4e487b7100000000000000000000000000000000000000000000000000000000600052602260045260246000fd5b613f82806200031f6000396000f3fe6080604052600436106101355760003560e01c80636352211e116100ab578063a22cb4651161006f578063a22cb4651461042f578063b88d4fde14610458578063c87b56dd14610481578063e8c75a30146104be578063e985e9c5146104e7578063f2fde38b1461052457610135565b80636352211e1461034857806370a0823114610385578063715018a6146103c25780638da5cb5b146103d957806395d89b411461040457610135565b806323b872dd116100fd57806323b872dd146102335780632f745c591461025c578063306076771461029957806342842e0e146102c45780634bef3c6a146102ed5780634f6ccce71461030b57610135565b806301ffc9a71461013a57806306fdde0314610177578063081812fc146101a2578063095ea7b3146101df57806318160ddd14610208575b600080fd5b34801561014657600080fd5b50610161600480360381019061015c9190612b0c565b61054d565b60405161016e91906130eb565b60405180910390f35b34801561018357600080fd5b5061018c61055f565b6040516101999190613106565b60405180910390f35b3480156101ae57600080fd5b506101c960048036038101906101c49190612b9f565b6105f1565b6040516101d69190613084565b60405180910390f35b3480156101eb57600080fd5b5061020660048036038101906102019190612ad0565b610676565b005b34801561021457600080fd5b5061021d61078e565b60405161022a9190613408565b60405180910390f35b34801561023f57600080fd5b5061025a600480360381019061025591906129ca565b61079b565b005b34801561026857600080fd5b50610283600480360381019061027e9190612ad0565b6107fb565b6040516102909190613408565b60405180910390f35b3480156102a557600080fd5b506102ae6108a0565b6040516102bb9190613106565b60405180910390f35b3480156102d057600080fd5b506102eb60048036038101906102e691906129ca565b610932565b005b6102f5610952565b6040516103029190613408565b60405180910390f35b34801561031757600080fd5b50610332600480360381019061032d9190612b9f565b610a9b565b60405161033f9190613408565b60405180910390f35b34801561035457600080fd5b5061036f600480360381019061036a9190612b9f565b610b32565b60405161037c9190613084565b60405180910390f35b34801561039157600080fd5b506103ac60048036038101906103a79190612965565b610be4565b6040516103b99190613408565b60405180910390f35b3480156103ce57600080fd5b506103d7610c9c565b005b3480156103e557600080fd5b506103ee610d24565b6040516103fb9190613084565b60405180910390f35b34801561041057600080fd5b50610419610d4e565b6040516104269190613106565b60405180910390f35b34801561043b57600080fd5b5061045660048036038101906104519190612a94565b610de0565b005b34801561046457600080fd5b5061047f600480360381019061047a9190612a19565b610f61565b005b34801561048d57600080fd5b506104a860048036038101906104a39190612b9f565b610fc3565b6040516104b59190613106565b60405180910390f35b3480156104ca57600080fd5b506104e560048036038101906104e09190612b5e565b610fd5565b005b3480156104f357600080fd5b5061050e6004803603810190610509919061298e565b61106b565b60405161051b91906130eb565b60405180910390f35b34801561053057600080fd5b5061054b60048036038101906105469190612965565b6110ff565b005b6000610558826111f7565b9050919050565b60606000805461056e90613711565b80601f016020809104026020016040519081016040528092919081815260200182805461059a90613711565b80156105e75780601f106105bc576101008083540402835291602001916105e7565b820191906000526020600020905b8154815290600101906020018083116105ca57829003601f168201915b5050505050905090565b60006105fc82611271565b61063b576040517f08c379a000000000000000000000000000000000000000000000000000000000815260040161063290613308565b60405180910390fd5b6004600083815260200190815260200160002060009054906101000a900473ffffffffffffffffffffffffffffffffffffffff169050919050565b600061068182610b32565b90508073ffffffffffffffffffffffffffffffffffffffff168373ffffffffffffffffffffffffffffffffffffffff1614156106f2576040517f08c379a00000000000000000000000000000000000000000000000000000000081526004016106e990613388565b60405180910390fd5b8073ffffffffffffffffffffffffffffffffffffffff166107116112dd565b73ffffffffffffffffffffffffffffffffffffffff161480610740575061073f8161073a6112dd565b61106b565b5b61077f576040517f08c379a000000000000000000000000000000000000000000000000000000000815260040161077690613248565b60405180910390fd5b61078983836112e5565b505050565b6000600880549050905090565b6107ac6107a66112dd565b8261139e565b6107eb576040517f08c379a00000000000000000000000000000000000000000000000000000000081526004016107e2906133a8565b60405180910390fd5b6107f683838361147c565b505050565b600061080683610be4565b8210610847576040517f08c379a000000000000000000000000000000000000000000000000000000000815260040161083e90613128565b60405180910390fd5b600660008473ffffffffffffffffffffffffffffffffffffffff1673ffffffffffffffffffffffffffffffffffffffff168152602001908152602001600020600083815260200190815260200160002054905092915050565b6060600e80546108af90613711565b80601f01602080910402602001604051908101604052809291908181526020018280546108db90613711565b80156109285780601f106108fd57610100808354040283529160200191610928565b820191906000526020600020905b81548152906001019060200180831161090b57829003601f168201915b5050505050905090565b61094d83838360405180602001604052806000815250610f61565b505050565b6000600d54610961600c6116d8565b106109a1576040517f08c379a000000000000000000000000000000000000000000000000000000000815260040161099890613208565b60405180910390fd5b60036109ac33610be4565b106109ec576040517f08c379a00000000000000000000000000000000000000000000000000000000081526004016109e390613228565b60405180910390fd5b666a94d74f4300003414610a35576040517f08c379a0000000000000000000000000000000000000000000000000000000008152600401610a2c906133e8565b60405180910390fd5b6000610a41600c6116d8565b9050610a4d33826116e6565b610a8a81600e610a65610a60600c6116d8565b6118b4565b604051602001610a76929190613060565b604051602081830303815290604052611a89565b610a94600c611afd565b8091505090565b6000610aa561078e565b8210610ae6576040517f08c379a0000000000000000000000000000000000000000000000000000000008152600401610add906133c8565b60405180910390fd5b60088281548110610b20577f4e487b7100000000000000000000000000000000000000000000000000000000600052603260045260246000fd5b90600052602060002001549050919050565b6000806002600084815260200190815260200160002060009054906101000a900473ffffffffffffffffffffffffffffffffffffffff169050600073ffffffffffffffffffffffffffffffffffffffff168173ffffffffffffffffffffffffffffffffffffffff161415610bdb576040517f08c379a0000000000000000000000000000000000000000000000000000000008152600401610bd290613288565b60405180910390fd5b80915050919050565b60008073ffffffffffffffffffffffffffffffffffffffff168273ffffffffffffffffffffffffffffffffffffffff161415610c55576040517f08c379a0000000000000000000000000000000000000000000000000000000008152600401610c4c90613268565b60405180910390fd5b600360008373ffffffffffffffffffffffffffffffffffffffff1673ffffffffffffffffffffffffffffffffffffffff168152602001908152602001600020549050919050565b610ca46112dd565b73ffffffffffffffffffffffffffffffffffffffff16610cc2610d24565b73ffffffffffffffffffffffffffffffffffffffff1614610d18576040517f08c379a0000000000000000000000000000000000000000000000000000000008152600401610d0f90613328565b60405180910390fd5b610d226000611b13565b565b6000600b60009054906101000a900473ffffffffffffffffffffffffffffffffffffffff16905090565b606060018054610d5d90613711565b80601f0160208091040260200160405190810160405280929190818152602001828054610d8990613711565b8015610dd65780601f10610dab57610100808354040283529160200191610dd6565b820191906000526020600020905b815481529060010190602001808311610db957829003601f168201915b5050505050905090565b610de86112dd565b73ffffffffffffffffffffffffffffffffffffffff168273ffffffffffffffffffffffffffffffffffffffff161415610e56576040517f08c379a0000000000000000000000000000000000000000000000000000000008152600401610e4d906131c8565b60405180910390fd5b8060056000610e636112dd565b73ffffffffffffffffffffffffffffffffffffffff1673ffffffffffffffffffffffffffffffffffffffff16815260200190815260200160002060008473ffffffffffffffffffffffffffffffffffffffff1673ffffffffffffffffffffffffffffffffffffffff16815260200190815260200160002060006101000a81548160ff0219169083151502179055508173ffffffffffffffffffffffffffffffffffffffff16610f106112dd565b73ffffffffffffffffffffffffffffffffffffffff167f17307eab39ab6107e8899845ad3d59bd9653f200f220920489ca2b5937696c3183604051610f5591906130eb565b60405180910390a35050565b610f72610f6c6112dd565b8361139e565b610fb1576040517f08c379a0000000000000000000000000000000000000000000000000000000008152600401610fa8906133a8565b60405180910390fd5b610fbd84848484611bd9565b50505050565b6060610fce82611c35565b9050919050565b610fdd6112dd565b73ffffffffffffffffffffffffffffffffffffffff16610ffb610d24565b73ffffffffffffffffffffffffffffffffffffffff1614611051576040517f08c379a000000000000000000000000000000000000000000000000000000000815260040161104890613328565b60405180910390fd5b80600e9080519060200190611067929190612789565b5050565b6000600560008473ffffffffffffffffffffffffffffffffffffffff1673ffffffffffffffffffffffffffffffffffffffff16815260200190815260200160002060008373ffffffffffffffffffffffffffffffffffffffff1673ffffffffffffffffffffffffffffffffffffffff16815260200190815260200160002060009054906101000a900460ff16905092915050565b6111076112dd565b73ffffffffffffffffffffffffffffffffffffffff16611125610d24565b73ffffffffffffffffffffffffffffffffffffffff161461117b576040517f08c379a000000000000000000000000000000000000000000000000000000000815260040161117290613328565b60405180910390fd5b600073ffffffffffffffffffffffffffffffffffffffff168173ffffffffffffffffffffffffffffffffffffffff1614156111eb576040517f08c379a00000000000000000000000000000000000000000000000000000000081526004016111e290613168565b60405180910390fd5b6111f481611b13565b50565b60007f780e9d63000000000000000000000000000000000000000000000000000000007bffffffffffffffffffffffffffffffffffffffffffffffffffffffff1916827bffffffffffffffffffffffffffffffffffffffffffffffffffffffff1916148061126a575061126982611d87565b5b9050919050565b60008073ffffffffffffffffffffffffffffffffffffffff166002600084815260200190815260200160002060009054906101000a900473ffffffffffffffffffffffffffffffffffffffff1673ffffffffffffffffffffffffffffffffffffffff1614159050919050565b600033905090565b816004600083815260200190815260200160002060006101000a81548173ffffffffffffffffffffffffffffffffffffffff021916908373ffffffffffffffffffffffffffffffffffffffff160217905550808273ffffffffffffffffffffffffffffffffffffffff1661135883610b32565b73ffffffffffffffffffffffffffffffffffffffff167f8c5be1e5ebec7d5bd14f71427d1e84f3dd0314c0f7b2291e5b200ac8c7c3b92560405160405180910390a45050565b60006113a982611271565b6113e8576040517f08c379a00000000000000000000000000000000000000000000000000000000081526004016113df906131e8565b60405180910390fd5b60006113f383610b32565b90508073ffffffffffffffffffffffffffffffffffffffff168473ffffffffffffffffffffffffffffffffffffffff16148061146257508373ffffffffffffffffffffffffffffffffffffffff1661144a846105f1565b73ffffffffffffffffffffffffffffffffffffffff16145b806114735750611472818561106b565b5b91505092915050565b8273ffffffffffffffffffffffffffffffffffffffff1661149c82610b32565b73ffffffffffffffffffffffffffffffffffffffff16146114f2576040517f08c379a00000000000000000000000000000000000000000000000000000000081526004016114e990613348565b60405180910390fd5b600073ffffffffffffffffffffffffffffffffffffffff168273ffffffffffffffffffffffffffffffffffffffff161415611562576040517f08c379a0000000000000000000000000000000000000000000000000000000008152600401611559906131a8565b60405180910390fd5b61156d838383611e69565b6115786000826112e5565b6001600360008573ffffffffffffffffffffffffffffffffffffffff1673ffffffffffffffffffffffffffffffffffffffff16815260200190815260200160002060008282546115c8919061361a565b925050819055506001600360008473ffffffffffffffffffffffffffffffffffffffff1673ffffffffffffffffffffffffffffffffffffffff168152602001908152602001600020600082825461161f9190613502565b92505081905550816002600083815260200190815260200160002060006101000a81548173ffffffffffffffffffffffffffffffffffffffff021916908373ffffffffffffffffffffffffffffffffffffffff160217905550808273ffffffffffffffffffffffffffffffffffffffff168473ffffffffffffffffffffffffffffffffffffffff167fddf252ad1be2c89b69c2b068fc378daa952ba7f163c4a11628f55a4df523b3ef60405160405180910390a4505050565b600081600001549050919050565b600073ffffffffffffffffffffffffffffffffffffffff168273ffffffffffffffffffffffffffffffffffffffff161415611756576040517f08c379a000000000000000000000000000000000000000000000000000000000815260040161174d906132c8565b60405180910390fd5b61175f81611271565b1561179f576040517f08c379a000000000000000000000000000000000000000000000000000000000815260040161179690613188565b60405180910390fd5b6117ab60008383611e69565b6001600360008473ffffffffffffffffffffffffffffffffffffffff1673ffffffffffffffffffffffffffffffffffffffff16815260200190815260200160002060008282546117fb9190613502565b92505081905550816002600083815260200190815260200160002060006101000a81548173ffffffffffffffffffffffffffffffffffffffff021916908373ffffffffffffffffffffffffffffffffffffffff160217905550808273ffffffffffffffffffffffffffffffffffffffff16600073ffffffffffffffffffffffffffffffffffffffff167fddf252ad1be2c89b69c2b068fc378daa952ba7f163c4a11628f55a4df523b3ef60405160405180910390a45050565b606060008214156118fc576040518060400160405280600181526020017f30000000000000000000000000000000000000000000000000000000000000008152509050611a84565b600082905060005b6000821461192e57808061191790613774565b915050600a82611927919061358f565b9150611904565b60008167ffffffffffffffff811115611970577f4e487b7100000000000000000000000000000000000000000000000000000000600052604160045260246000fd5b6040519080825280601f01601f1916602001820160405280156119a25781602001600182028036833780820191505090505b50905060008290505b60008614611a7c576001816119c0919061361a565b90506000600a80886119d2919061358f565b6119dc91906135c0565b876119e7919061361a565b60306119f39190613558565b905060008160f81b905080848481518110611a37577f4e487b7100000000000000000000000000000000000000000000000000000000600052603260045260246000fd5b60200101907effffffffffffffffffffffffffffffffffffffffffffffffffffffffffffff1916908160001a905350600a88611a73919061358f565b975050506119ab565b819450505050505b919050565b611a9282611271565b611ad1576040517f08c379a0000000000000000000000000000000000000000000000000000000008152600401611ac8906132a8565b60405180910390fd5b80600a60008481526020019081526020016000209080519060200190611af8929190612789565b505050565b6001816000016000828254019250508190555050565b6000600b60009054906101000a900473ffffffffffffffffffffffffffffffffffffffff16905081600b60006101000a81548173ffffffffffffffffffffffffffffffffffffffff021916908373ffffffffffffffffffffffffffffffffffffffff1602179055508173ffffffffffffffffffffffffffffffffffffffff168173ffffffffffffffffffffffffffffffffffffffff167f8be0079c531659141344cd1fd0a4f28419497f9722a3daafe3b4186f6b6457e060405160405180910390a35050565b611be484848461147c565b611bf084848484611e79565b611c2f576040517f08c379a0000000000000000000000000000000000000000000000000000000008152600401611c2690613148565b60405180910390fd5b50505050565b6060611c4082611271565b611c7f576040517f08c379a0000000000000000000000000000000000000000000000000000000008152600401611c76906132e8565b60405180910390fd5b6000600a60008481526020019081526020016000208054611c9f90613711565b80601f0160208091040260200160405190810160405280929190818152602001828054611ccb90613711565b8015611d185780601f10611ced57610100808354040283529160200191611d18565b820191906000526020600020905b815481529060010190602001808311611cfb57829003601f168201915b505050505090506000611d29612010565b9050600081511415611d3f578192505050611d82565b600082511115611d74578082604051602001611d5c92919061303c565b60405160208183030381529060405292505050611d82565b611d7d84612027565b925050505b919050565b60007f80ac58cd000000000000000000000000000000000000000000000000000000007bffffffffffffffffffffffffffffffffffffffffffffffffffffffff1916827bffffffffffffffffffffffffffffffffffffffffffffffffffffffff19161480611e5257507f5b5e139f000000000000000000000000000000000000000000000000000000007bffffffffffffffffffffffffffffffffffffffffffffffffffffffff1916827bffffffffffffffffffffffffffffffffffffffffffffffffffffffff1916145b80611e625750611e61826120ce565b5b9050919050565b611e74838383612138565b505050565b6000611e9a8473ffffffffffffffffffffffffffffffffffffffff1661224c565b15612003578373ffffffffffffffffffffffffffffffffffffffff1663150b7a02611ec36112dd565b8786866040518563ffffffff1660e01b8152600401611ee5949392919061309f565b602060405180830381600087803b158015611eff57600080fd5b505af1925050508015611f3057506040513d601f19601f82011682018060405250810190611f2d9190612b35565b60015b611fb3573d8060008114611f60576040519150601f19603f3d011682016040523d82523d6000602084013e611f65565b606091505b50600081511415611fab576040517f08c379a0000000000000000000000000000000000000000000000000000000008152600401611fa290613148565b60405180910390fd5b805181602001fd5b63150b7a0260e01b7bffffffffffffffffffffffffffffffffffffffffffffffffffffffff1916817bffffffffffffffffffffffffffffffffffffffffffffffffffffffff191614915050612008565b600190505b949350505050565b606060405180602001604052806000815250905090565b606061203282611271565b612071576040517f08c379a000000000000000000000000000000000000000000000000000000000815260040161206890613368565b60405180910390fd5b600061207b612010565b9050600081511161209b57604051806020016040528060008152506120c6565b806120a58461225f565b6040516020016120b692919061303c565b6040516020818303038152906040525b915050919050565b60007f01ffc9a7000000000000000000000000000000000000000000000000000000007bffffffffffffffffffffffffffffffffffffffffffffffffffffffff1916827bffffffffffffffffffffffffffffffffffffffffffffffffffffffff1916149050919050565b61214383838361240c565b600073ffffffffffffffffffffffffffffffffffffffff168373ffffffffffffffffffffffffffffffffffffffff1614156121865761218181612411565b6121c5565b8173ffffffffffffffffffffffffffffffffffffffff168373ffffffffffffffffffffffffffffffffffffffff16146121c4576121c3838261245a565b5b5b600073ffffffffffffffffffffffffffffffffffffffff168273ffffffffffffffffffffffffffffffffffffffff16141561220857612203816125c7565b612247565b8273ffffffffffffffffffffffffffffffffffffffff168273ffffffffffffffffffffffffffffffffffffffff161461224657612245828261270a565b5b5b505050565b600080823b905060008111915050919050565b606060008214156122a7576040518060400160405280600181526020017f30000000000000000000000000000000000000000000000000000000000000008152509050612407565b600082905060005b600082146122d95780806122c290613774565b915050600a826122d2919061358f565b91506122af565b60008167ffffffffffffffff81111561231b577f4e487b7100000000000000000000000000000000000000000000000000000000600052604160045260246000fd5b6040519080825280601f01601f19166020018201604052801561234d5781602001600182028036833780820191505090505b5090505b6000851461240057600182612366919061361a565b9150600a8561237591906137bd565b60306123819190613502565b60f81b8183815181106123bd577f4e487b7100000000000000000000000000000000000000000000000000000000600052603260045260246000fd5b60200101907effffffffffffffffffffffffffffffffffffffffffffffffffffffffffffff1916908160001a905350600a856123f9919061358f565b9450612351565b8093505050505b919050565b505050565b6008805490506009600083815260200190815260200160002081905550600881908060018154018082558091505060019003906000526020600020016000909190919091505550565b6000600161246784610be4565b612471919061361a565b9050600060076000848152602001908152602001600020549050818114612556576000600660008673ffffffffffffffffffffffffffffffffffffffff1673ffffffffffffffffffffffffffffffffffffffff168152602001908152602001600020600084815260200190815260200160002054905080600660008773ffffffffffffffffffffffffffffffffffffffff1673ffffffffffffffffffffffffffffffffffffffff168152602001908152602001600020600084815260200190815260200160002081905550816007600083815260200190815260200160002081905550505b6007600084815260200190815260200160002060009055600660008573ffffffffffffffffffffffffffffffffffffffff1673ffffffffffffffffffffffffffffffffffffffff16815260200190815260200160002060008381526020019081526020016000206000905550505050565b600060016008805490506125db919061361a565b9050600060096000848152602001908152602001600020549050600060088381548110612631577f4e487b7100000000000000000000000000000000000000000000000000000000600052603260045260246000fd5b906000526020600020015490508060088381548110612679577f4e487b7100000000000000000000000000000000000000000000000000000000600052603260045260246000fd5b9060005260206000200181905550816009600083815260200190815260200160002081905550600960008581526020019081526020016000206000905560088054806126ee577f4e487b7100000000000000000000000000000000000000000000000000000000600052603160045260246000fd5b6001900381819060005260206000200160009055905550505050565b600061271583610be4565b905081600660008573ffffffffffffffffffffffffffffffffffffffff1673ffffffffffffffffffffffffffffffffffffffff168152602001908152602001600020600083815260200190815260200160002081905550806007600084815260200190815260200160002081905550505050565b82805461279590613711565b90600052602060002090601f0160209004810192826127b757600085556127fe565b82601f106127d057805160ff19168380011785556127fe565b828001600101855582156127fe579182015b828111156127fd5782518255916020019190600101906127e2565b5b50905061280b919061280f565b5090565b5b80821115612828576000816000905550600101612810565b5090565b600061283f61283a84613448565b613423565b90508281526020810184848401111561285757600080fd5b6128628482856136cf565b509392505050565b600061287d61287884613479565b613423565b90508281526020810184848401111561289557600080fd5b6128a08482856136cf565b509392505050565b6000813590506128b781613ef0565b92915050565b6000813590506128cc81613f07565b92915050565b6000813590506128e181613f1e565b92915050565b6000815190506128f681613f1e565b92915050565b600082601f83011261290d57600080fd5b813561291d84826020860161282c565b91505092915050565b600082601f83011261293757600080fd5b813561294784826020860161286a565b91505092915050565b60008135905061295f81613f35565b92915050565b60006020828403121561297757600080fd5b6000612985848285016128a8565b91505092915050565b600080604083850312156129a157600080fd5b60006129af858286016128a8565b92505060206129c0858286016128a8565b9150509250929050565b6000806000606084860312156129df57600080fd5b60006129ed868287016128a8565b93505060206129fe868287016128a8565b9250506040612a0f86828701612950565b9150509250925092565b60008060008060808587031215612a2f57600080fd5b6000612a3d878288016128a8565b9450506020612a4e878288016128a8565b9350506040612a5f87828801612950565b925050606085013567ffffffffffffffff811115612a7c57600080fd5b612a88878288016128fc565b91505092959194509250565b60008060408385031215612aa757600080fd5b6000612ab5858286016128a8565b9250506020612ac6858286016128bd565b9150509250929050565b60008060408385031215612ae357600080fd5b6000612af1858286016128a8565b9250506020612b0285828601612950565b9150509250929050565b600060208284031215612b1e57600080fd5b6000612b2c848285016128d2565b91505092915050565b600060208284031215612b4757600080fd5b6000612b55848285016128e7565b91505092915050565b600060208284031215612b7057600080fd5b600082013567ffffffffffffffff811115612b8a57600080fd5b612b9684828501612926565b91505092915050565b600060208284031215612bb157600080fd5b6000612bbf84828501612950565b91505092915050565b612bd18161364e565b82525050565b612be081613660565b82525050565b6000612bf1826134bf565b612bfb81856134d5565b9350612c0b8185602086016136de565b612c14816138aa565b840191505092915050565b6000612c2a826134ca565b612c3481856134e6565b9350612c448185602086016136de565b612c4d816138aa565b840191505092915050565b6000612c63826134ca565b612c6d81856134f7565b9350612c7d8185602086016136de565b80840191505092915050565b60008154612c9681613711565b612ca081866134f7565b94506001821660008114612cbb5760018114612ccc57612cff565b60ff19831686528186019350612cff565b612cd5856134aa565b60005b83811015612cf757815481890152600182019150602081019050612cd8565b838801955050505b50505092915050565b6000612d15602b836134e6565b9150612d20826138bb565b604082019050919050565b6000612d386032836134e6565b9150612d438261390a565b604082019050919050565b6000612d5b6026836134e6565b9150612d6682613959565b604082019050919050565b6000612d7e601c836134e6565b9150612d89826139a8565b602082019050919050565b6000612da16024836134e6565b9150612dac826139d1565b604082019050919050565b6000612dc46019836134e6565b9150612dcf82613a20565b602082019050919050565b6000612de7602c836134e6565b9150612df282613a49565b604082019050919050565b6000612e0a6026836134e6565b9150612e1582613a98565b604082019050919050565b6000612e2d601f836134e6565b9150612e3882613ae7565b602082019050919050565b6000612e506038836134e6565b9150612e5b82613b10565b604082019050919050565b6000612e73602a836134e6565b9150612e7e82613b5f565b604082019050919050565b6000612e966029836134e6565b9150612ea182613bae565b604082019050919050565b6000612eb9602e836134e6565b9150612ec482613bfd565b604082019050919050565b6000612edc6020836134e6565b9150612ee782613c4c565b602082019050919050565b6000612eff6031836134e6565b9150612f0a82613c75565b604082019050919050565b6000612f22602c836134e6565b9150612f2d82613cc4565b604082019050919050565b6000612f456020836134e6565b9150612f5082613d13565b602082019050919050565b6000612f686029836134e6565b9150612f7382613d3c565b604082019050919050565b6000612f8b602f836134e6565b9150612f9682613d8b565b604082019050919050565b6000612fae6021836134e6565b9150612fb982613dda565b604082019050919050565b6000612fd16031836134e6565b9150612fdc82613e29565b604082019050919050565b6000612ff4602c836134e6565b9150612fff82613e78565b604082019050919050565b60006130176011836134e6565b915061302282613ec7565b602082019050919050565b613036816136b8565b82525050565b60006130488285612c58565b91506130548284612c58565b91508190509392505050565b600061306c8285612c89565b91506130788284612c58565b91508190509392505050565b60006020820190506130996000830184612bc8565b92915050565b60006080820190506130b46000830187612bc8565b6130c16020830186612bc8565b6130ce604083018561302d565b81810360608301526130e08184612be6565b905095945050505050565b60006020820190506131006000830184612bd7565b92915050565b600060208201905081810360008301526131208184612c1f565b905092915050565b6000602082019050818103600083015261314181612d08565b9050919050565b6000602082019050818103600083015261316181612d2b565b9050919050565b6000602082019050818103600083015261318181612d4e565b9050919050565b600060208201905081810360008301526131a181612d71565b9050919050565b600060208201905081810360008301526131c181612d94565b9050919050565b600060208201905081810360008301526131e181612db7565b9050919050565b6000602082019050818103600083015261320181612dda565b9050919050565b6000602082019050818103600083015261322181612dfd565b9050919050565b6000602082019050818103600083015261324181612e20565b9050919050565b6000602082019050818103600083015261326181612e43565b9050919050565b6000602082019050818103600083015261328181612e66565b9050919050565b600060208201905081810360008301526132a181612e89565b9050919050565b600060208201905081810360008301526132c181612eac565b9050919050565b600060208201905081810360008301526132e181612ecf565b9050919050565b6000602082019050818103600083015261330181612ef2565b9050919050565b6000602082019050818103600083015261332181612f15565b9050919050565b6000602082019050818103600083015261334181612f38565b9050919050565b6000602082019050818103600083015261336181612f5b565b9050919050565b6000602082019050818103600083015261338181612f7e565b9050919050565b600060208201905081810360008301526133a181612fa1565b9050919050565b600060208201905081810360008301526133c181612fc4565b9050919050565b600060208201905081810360008301526133e181612fe7565b9050919050565b600060208201905081810360008301526134018161300a565b9050919050565b600060208201905061341d600083018461302d565b92915050565b600061342d61343e565b90506134398282613743565b919050565b6000604051905090565b600067ffffffffffffffff8211156134635761346261387b565b5b61346c826138aa565b9050602081019050919050565b600067ffffffffffffffff8211156134945761349361387b565b5b61349d826138aa565b9050602081019050919050565b60008190508160005260206000209050919050565b600081519050919050565b600081519050919050565b600082825260208201905092915050565b600082825260208201905092915050565b600081905092915050565b600061350d826136b8565b9150613518836136b8565b9250827fffffffffffffffffffffffffffffffffffffffffffffffffffffffffffffffff0382111561354d5761354c6137ee565b5b828201905092915050565b6000613563826136c2565b915061356e836136c2565b92508260ff03821115613584576135836137ee565b5b828201905092915050565b600061359a826136b8565b91506135a5836136b8565b9250826135b5576135b461381d565b5b828204905092915050565b60006135cb826136b8565b91506135d6836136b8565b9250817fffffffffffffffffffffffffffffffffffffffffffffffffffffffffffffffff048311821515161561360f5761360e6137ee565b5b828202905092915050565b6000613625826136b8565b9150613630836136b8565b925082821015613643576136426137ee565b5b828203905092915050565b600061365982613698565b9050919050565b60008115159050919050565b60007fffffffff0000000000000000000000000000000000000000000000000000000082169050919050565b600073ffffffffffffffffffffffffffffffffffffffff82169050919050565b6000819050919050565b600060ff82169050919050565b82818337600083830152505050565b60005b838110156136fc5780820151818401526020810190506136e1565b8381111561370b576000848401525b50505050565b6000600282049050600182168061372957607f821691505b6020821081141561373d5761373c61384c565b5b50919050565b61374c826138aa565b810181811067ffffffffffffffff8211171561376b5761376a61387b565b5b80604052505050565b600061377f826136b8565b91507fffffffffffffffffffffffffffffffffffffffffffffffffffffffffffffffff8214156137b2576137b16137ee565b5b600182019050919050565b60006137c8826136b8565b91506137d3836136b8565b9250826137e3576137e261381d565b5b828206905092915050565b7f4e487b7100000000000000000000000000000000000000000000000000000000600052601160045260246000fd5b7f4e487b7100000000000000000000000000000000000000000000000000000000600052601260045260246000fd5b7f4e487b7100000000000000000000000000000000000000000000000000000000600052602260045260246000fd5b7f4e487b7100000000000000000000000000000000000000000000000000000000600052604160045260246000fd5b6000601f19601f8301169050919050565b7f455243373231456e756d657261626c653a206f776e657220696e646578206f7560008201527f74206f6620626f756e6473000000000000000000000000000000000000000000602082015250565b7f4552433732313a207472616e7366657220746f206e6f6e20455243373231526560008201527f63656976657220696d706c656d656e7465720000000000000000000000000000602082015250565b7f4f776e61626c653a206e6577206f776e657220697320746865207a65726f206160008201527f6464726573730000000000000000000000000000000000000000000000000000602082015250565b7f4552433732313a20746f6b656e20616c7265616479206d696e74656400000000600082015250565b7f4552433732313a207472616e7366657220746f20746865207a65726f2061646460008201527f7265737300000000000000000000000000000000000000000000000000000000602082015250565b7f4552433732313a20617070726f766520746f2063616c6c657200000000000000600082015250565b7f4552433732313a206f70657261746f7220717565727920666f72206e6f6e657860008201527f697374656e7420746f6b656e0000000000000000000000000000000000000000602082015250565b7f416c6c2074686520426c6f6f64792046616365732068617665206265656e206d60008201527f696e7465642e0000000000000000000000000000000000000000000000000000602082015250565b7f596f7520616c7265616479206f776e203320426c6f6f64792046616365732e00600082015250565b7f4552433732313a20617070726f76652063616c6c6572206973206e6f74206f7760008201527f6e6572206e6f7220617070726f76656420666f7220616c6c0000000000000000602082015250565b7f4552433732313a2062616c616e636520717565727920666f7220746865207a6560008201527f726f206164647265737300000000000000000000000000000000000000000000602082015250565b7f4552433732313a206f776e657220717565727920666f72206e6f6e657869737460008201527f656e7420746f6b656e0000000000000000000000000000000000000000000000602082015250565b7f45524337323155524953746f726167653a2055524920736574206f66206e6f6e60008201527f6578697374656e7420746f6b656e000000000000000000000000000000000000602082015250565b7f4552433732313a206d696e7420746f20746865207a65726f2061646472657373600082015250565b7f45524337323155524953746f726167653a2055524920717565727920666f722060008201527f6e6f6e6578697374656e7420746f6b656e000000000000000000000000000000602082015250565b7f4552433732313a20617070726f76656420717565727920666f72206e6f6e657860008201527f697374656e7420746f6b656e0000000000000000000000000000000000000000602082015250565b7f4f776e61626c653a2063616c6c6572206973206e6f7420746865206f776e6572600082015250565b7f4552433732313a207472616e73666572206f6620746f6b656e2074686174206960008201527f73206e6f74206f776e0000000000000000000000000000000000000000000000602082015250565b7f4552433732314d657461646174613a2055524920717565727920666f72206e6f60008201527f6e6578697374656e7420746f6b656e0000000000000000000000000000000000602082015250565b7f4552433732313a20617070726f76616c20746f2063757272656e74206f776e6560008201527f7200000000000000000000000000000000000000000000000000000000000000602082015250565b7f4552433732313a207472616e736665722063616c6c6572206973206e6f74206f60008201527f776e6572206e6f7220617070726f766564000000000000000000000000000000602082015250565b7f455243373231456e756d657261626c653a20676c6f62616c20696e646578206f60008201527f7574206f6620626f756e64730000000000000000000000000000000000000000602082015250565b7f507269636520697320302e30334554482e000000000000000000000000000000600082015250565b613ef98161364e565b8114613f0457600080fd5b50565b613f1081613660565b8114613f1b57600080fd5b50565b613f278161366c565b8114613f3257600080fd5b50565b613f3e816136b8565b8114613f4957600080fd5b5056fea2646970667358221220cf7826d950ffd50f7827e2dcba03ccd63f5db095b30793a35a867d1701260e7e64736f6c63430008030033",
  "immutableReferences": {},
  "source": "// SPDX-License-Identifier: MIT\npragma solidity ^0.8.3;\n\nimport \"@openzeppelin/contracts/token/ERC721/ERC721.sol\";\nimport \"@openzeppelin/contracts/token/ERC721/extensions/ERC721Enumerable.sol\";\nimport \"@openzeppelin/contracts/token/ERC721/extensions/ERC721URIStorage.sol\";\nimport \"@openzeppelin/contracts/access/Ownable.sol\";\nimport \"@openzeppelin/contracts/utils/Counters.sol\";\n\ncontract BloodyFace is ERC721, ERC721Enumerable, ERC721URIStorage, Ownable {\n  using Counters for Counters.Counter;\n\n  Counters.Counter private _tokenIdCounter;\n\n  uint256 private _totalSupply = 3333;\n\n  string private _apiUrl = \"https://bloodyfaces.io/api/nft/\";\n\n  constructor() ERC721(\"BloodyFace\", \"BLDFC\") {}\n\n  function mintBloodyFace() public payable returns (uint256) {\n    require(_tokenIdCounter.current() < _totalSupply, \"All the Bloody Faces have been minted.\");\n    require(balanceOf(msg.sender) < 3, \"You already own 3 Bloody Faces.\");\n    require(msg.value == 0.03 ether, \"Price is 0.03ETH.\");\n\n    uint256 newNftId = _tokenIdCounter.current();\n\n    _mint(msg.sender, newNftId);\n    _setTokenURI(newNftId, string(abi.encodePacked(_apiUrl, _uint2str(_tokenIdCounter.current()))));\n\n    _tokenIdCounter.increment();\n\n    return newNftId;\n  }\n\n  function setApiUrl(string memory _newUrl) public onlyOwner {\n    _apiUrl = _newUrl;\n  }\n\n  function getApiUrl() public view returns (string memory) {\n    return _apiUrl;\n  }\n\n  function _uint2str(uint _i) internal pure returns (string memory _uintAsString) {\n    if (_i == 0) {\n      return \"0\";\n    }\n    uint j = _i;\n    uint len;\n    while (j != 0) {\n      len++;\n      j /= 10;\n    }\n    bytes memory bstr = new bytes(len);\n    uint k = len;\n    while (_i != 0) {\n      k = k-1;\n      uint8 temp = (48 + uint8(_i - _i / 10 * 10));\n      bytes1 b1 = bytes1(temp);\n      bstr[k] = b1;\n      _i /= 10;\n    }\n    return string(bstr);\n  }\n\n  // The following functions are overrides required by Solidity.\n  // This is generated by OpenZeppelin.\n\n  function _beforeTokenTransfer(address from, address to, uint256 tokenId)\n    internal\n    override(ERC721, ERC721Enumerable)\n  {\n    super._beforeTokenTransfer(from, to, tokenId);\n  }\n\n  function _burn(uint256 tokenId) internal override(ERC721, ERC721URIStorage) {\n    super._burn(tokenId);\n  }\n\n  function tokenURI(uint256 tokenId)\n    public\n    view\n    override(ERC721, ERC721URIStorage)\n    returns (string memory)\n  {\n    return super.tokenURI(tokenId);\n  }\n\n  function supportsInterface(bytes4 interfaceId)\n    public\n    view\n    override(ERC721, ERC721Enumerable)\n    returns (bool)\n  {\n    return super.supportsInterface(interfaceId);\n  }\n}\n",
  "sourcePath": "/Users/valcoh/Work/FightCoin/BloodyFaces/bloodyfaces-contract/contracts/BloodyFaceFactory.sol",
  "compiler": {
    "name": "solc",
    "version": "0.8.3+commit.8d00100c.Emscripten.clang"
  },
  "schemaVersion": "3.4.3",
  "updatedAt": "2021-09-30T11:20:08.106Z",
  "networkType": "ethereum",
  "devdoc": {
    "kind": "dev",
    "methods": {
      "approve(address,uint256)": {
        "details": "See {IERC721-approve}."
      },
      "balanceOf(address)": {
        "details": "See {IERC721-balanceOf}."
      },
      "getApproved(uint256)": {
        "details": "See {IERC721-getApproved}."
      },
      "isApprovedForAll(address,address)": {
        "details": "See {IERC721-isApprovedForAll}."
      },
      "name()": {
        "details": "See {IERC721Metadata-name}."
      },
      "owner()": {
        "details": "Returns the address of the current owner."
      },
      "ownerOf(uint256)": {
        "details": "See {IERC721-ownerOf}."
      },
      "renounceOwnership()": {
        "details": "Leaves the contract without owner. It will not be possible to call `onlyOwner` functions anymore. Can only be called by the current owner. NOTE: Renouncing ownership will leave the contract without an owner, thereby removing any functionality that is only available to the owner."
      },
      "safeTransferFrom(address,address,uint256)": {
        "details": "See {IERC721-safeTransferFrom}."
      },
      "safeTransferFrom(address,address,uint256,bytes)": {
        "details": "See {IERC721-safeTransferFrom}."
      },
      "setApprovalForAll(address,bool)": {
        "details": "See {IERC721-setApprovalForAll}."
      },
      "symbol()": {
        "details": "See {IERC721Metadata-symbol}."
      },
      "tokenByIndex(uint256)": {
        "details": "See {IERC721Enumerable-tokenByIndex}."
      },
      "tokenOfOwnerByIndex(address,uint256)": {
        "details": "See {IERC721Enumerable-tokenOfOwnerByIndex}."
      },
      "totalSupply()": {
        "details": "See {IERC721Enumerable-totalSupply}."
      },
      "transferFrom(address,address,uint256)": {
        "details": "See {IERC721-transferFrom}."
      },
      "transferOwnership(address)": {
        "details": "Transfers ownership of the contract to a new account (`newOwner`). Can only be called by the current owner."
      }
    },
    "version": 1
  },
  "userdoc": {
    "kind": "user",
    "methods": {},
    "version": 1
  }
}