{
  "contractName": "BloodyFace",
  "abi": [
    {
      "inputs": [],
      "stateMutability": "nonpayable",
      "type": "constructor"
    },
    {
      "anonymous": false,
      "inputs": [
        {
          "indexed": true,
          "internalType": "address",
          "name": "owner",
          "type": "address"
        },
        {
          "indexed": true,
          "internalType": "address",
          "name": "approved",
          "type": "address"
        },
        {
          "indexed": true,
          "internalType": "uint256",
          "name": "tokenId",
          "type": "uint256"
        }
      ],
      "name": "Approval",
      "type": "event"
    },
    {
      "anonymous": false,
      "inputs": [
        {
          "indexed": true,
          "internalType": "address",
          "name": "owner",
          "type": "address"
        },
        {
          "indexed": true,
          "internalType": "address",
          "name": "operator",
          "type": "address"
        },
        {
          "indexed": false,
          "internalType": "bool",
          "name": "approved",
          "type": "bool"
        }
      ],
      "name": "ApprovalForAll",
      "type": "event"
    },
    {
      "anonymous": false,
      "inputs": [
        {
          "indexed": true,
          "internalType": "address",
          "name": "previousOwner",
          "type": "address"
        },
        {
          "indexed": true,
          "internalType": "address",
          "name": "newOwner",
          "type": "address"
        }
      ],
      "name": "OwnershipTransferred",
      "type": "event"
    },
    {
      "anonymous": false,
      "inputs": [
        {
          "indexed": true,
          "internalType": "address",
          "name": "from",
          "type": "address"
        },
        {
          "indexed": true,
          "internalType": "address",
          "name": "to",
          "type": "address"
        },
        {
          "indexed": true,
          "internalType": "uint256",
          "name": "tokenId",
          "type": "uint256"
        }
      ],
      "name": "Transfer",
      "type": "event"
    },
    {
      "inputs": [
        {
          "internalType": "address",
          "name": "to",
          "type": "address"
        },
        {
          "internalType": "uint256",
          "name": "tokenId",
          "type": "uint256"
        }
      ],
      "name": "approve",
      "outputs": [],
      "stateMutability": "nonpayable",
      "type": "function"
    },
    {
      "inputs": [
        {
          "internalType": "address",
          "name": "owner",
          "type": "address"
        }
      ],
      "name": "balanceOf",
      "outputs": [
        {
          "internalType": "uint256",
          "name": "",
          "type": "uint256"
        }
      ],
      "stateMutability": "view",
      "type": "function",
      "constant": true
    },
    {
      "inputs": [
        {
          "internalType": "uint256",
          "name": "tokenId",
          "type": "uint256"
        }
      ],
      "name": "getApproved",
      "outputs": [
        {
          "internalType": "address",
          "name": "",
          "type": "address"
        }
      ],
      "stateMutability": "view",
      "type": "function",
      "constant": true
    },
    {
      "inputs": [
        {
          "internalType": "address",
          "name": "owner",
          "type": "address"
        },
        {
          "internalType": "address",
          "name": "operator",
          "type": "address"
        }
      ],
      "name": "isApprovedForAll",
      "outputs": [
        {
          "internalType": "bool",
          "name": "",
          "type": "bool"
        }
      ],
      "stateMutability": "view",
      "type": "function",
      "constant": true
    },
    {
      "inputs": [],
      "name": "name",
      "outputs": [
        {
          "internalType": "string",
          "name": "",
          "type": "string"
        }
      ],
      "stateMutability": "view",
      "type": "function",
      "constant": true
    },
    {
      "inputs": [],
      "name": "owner",
      "outputs": [
        {
          "internalType": "address",
          "name": "",
          "type": "address"
        }
      ],
      "stateMutability": "view",
      "type": "function",
      "constant": true
    },
    {
      "inputs": [
        {
          "internalType": "uint256",
          "name": "tokenId",
          "type": "uint256"
        }
      ],
      "name": "ownerOf",
      "outputs": [
        {
          "internalType": "address",
          "name": "",
          "type": "address"
        }
      ],
      "stateMutability": "view",
      "type": "function",
      "constant": true
    },
    {
      "inputs": [],
      "name": "renounceOwnership",
      "outputs": [],
      "stateMutability": "nonpayable",
      "type": "function"
    },
    {
      "inputs": [
        {
          "internalType": "address",
          "name": "from",
          "type": "address"
        },
        {
          "internalType": "address",
          "name": "to",
          "type": "address"
        },
        {
          "internalType": "uint256",
          "name": "tokenId",
          "type": "uint256"
        }
      ],
      "name": "safeTransferFrom",
      "outputs": [],
      "stateMutability": "nonpayable",
      "type": "function"
    },
    {
      "inputs": [
        {
          "internalType": "address",
          "name": "from",
          "type": "address"
        },
        {
          "internalType": "address",
          "name": "to",
          "type": "address"
        },
        {
          "internalType": "uint256",
          "name": "tokenId",
          "type": "uint256"
        },
        {
          "internalType": "bytes",
          "name": "_data",
          "type": "bytes"
        }
      ],
      "name": "safeTransferFrom",
      "outputs": [],
      "stateMutability": "nonpayable",
      "type": "function"
    },
    {
      "inputs": [
        {
          "internalType": "address",
          "name": "operator",
          "type": "address"
        },
        {
          "internalType": "bool",
          "name": "approved",
          "type": "bool"
        }
      ],
      "name": "setApprovalForAll",
      "outputs": [],
      "stateMutability": "nonpayable",
      "type": "function"
    },
    {
      "inputs": [],
      "name": "symbol",
      "outputs": [
        {
          "internalType": "string",
          "name": "",
          "type": "string"
        }
      ],
      "stateMutability": "view",
      "type": "function",
      "constant": true
    },
    {
      "inputs": [
        {
          "internalType": "uint256",
          "name": "index",
          "type": "uint256"
        }
      ],
      "name": "tokenByIndex",
      "outputs": [
        {
          "internalType": "uint256",
          "name": "",
          "type": "uint256"
        }
      ],
      "stateMutability": "view",
      "type": "function",
      "constant": true
    },
    {
      "inputs": [
        {
          "internalType": "address",
          "name": "owner",
          "type": "address"
        },
        {
          "internalType": "uint256",
          "name": "index",
          "type": "uint256"
        }
      ],
      "name": "tokenOfOwnerByIndex",
      "outputs": [
        {
          "internalType": "uint256",
          "name": "",
          "type": "uint256"
        }
      ],
      "stateMutability": "view",
      "type": "function",
      "constant": true
    },
    {
      "inputs": [],
      "name": "totalSupply",
      "outputs": [
        {
          "internalType": "uint256",
          "name": "",
          "type": "uint256"
        }
      ],
      "stateMutability": "view",
      "type": "function",
      "constant": true
    },
    {
      "inputs": [
        {
          "internalType": "address",
          "name": "from",
          "type": "address"
        },
        {
          "internalType": "address",
          "name": "to",
          "type": "address"
        },
        {
          "internalType": "uint256",
          "name": "tokenId",
          "type": "uint256"
        }
      ],
      "name": "transferFrom",
      "outputs": [],
      "stateMutability": "nonpayable",
      "type": "function"
    },
    {
      "inputs": [
        {
          "internalType": "address",
          "name": "newOwner",
          "type": "address"
        }
      ],
      "name": "transferOwnership",
      "outputs": [],
      "stateMutability": "nonpayable",
      "type": "function"
    },
    {
      "inputs": [],
      "name": "mintBloodyFace",
      "outputs": [
        {
          "internalType": "uint256",
          "name": "",
          "type": "uint256"
        }
      ],
      "stateMutability": "nonpayable",
      "type": "function"
    },
    {
      "inputs": [
        {
          "internalType": "string",
          "name": "_newUrl",
          "type": "string"
        }
      ],
      "name": "setApiUrl",
      "outputs": [],
      "stateMutability": "nonpayable",
      "type": "function"
    },
    {
      "inputs": [],
      "name": "getApiUrl",
      "outputs": [
        {
          "internalType": "string",
          "name": "",
          "type": "string"
        }
      ],
      "stateMutability": "view",
      "type": "function",
      "constant": true
    },
    {
      "inputs": [
        {
          "internalType": "uint256",
          "name": "tokenId",
          "type": "uint256"
        }
      ],
      "name": "tokenURI",
      "outputs": [
        {
          "internalType": "string",
          "name": "",
          "type": "string"
        }
      ],
      "stateMutability": "view",
      "type": "function",
      "constant": true
    },
    {
      "inputs": [
        {
          "internalType": "bytes4",
          "name": "interfaceId",
          "type": "bytes4"
        }
      ],
      "name": "supportsInterface",
      "outputs": [
        {
          "internalType": "bool",
          "name": "",
          "type": "bool"
        }
      ],
      "stateMutability": "view",
      "type": "function",
      "constant": true
    }
  ],
  "bytecode": "0x6080604052610d05600d556040518060400160405280601f81526020017f68747470733a2f2f626c6f6f647966616365732e696f2f6170692f6e66742f00815250600e908051906020019062000057929190620001fa565b503480156200006557600080fd5b506040518060400160405280600a81526020017f426c6f6f647946616365000000000000000000000000000000000000000000008152506040518060400160405280600581526020017f424c4446430000000000000000000000000000000000000000000000000000008152508160009080519060200190620000ea929190620001fa565b50806001908051906020019062000103929190620001fa565b505050620001266200011a6200012c60201b60201c565b6200013460201b60201c565b6200030f565b600033905090565b6000600b60009054906101000a900473ffffffffffffffffffffffffffffffffffffffff16905081600b60006101000a81548173ffffffffffffffffffffffffffffffffffffffff021916908373ffffffffffffffffffffffffffffffffffffffff1602179055508173ffffffffffffffffffffffffffffffffffffffff168173ffffffffffffffffffffffffffffffffffffffff167f8be0079c531659141344cd1fd0a4f28419497f9722a3daafe3b4186f6b6457e060405160405180910390a35050565b8280546200020890620002aa565b90600052602060002090601f0160209004810192826200022c576000855562000278565b82601f106200024757805160ff191683800117855562000278565b8280016001018555821562000278579182015b82811115620002775782518255916020019190600101906200025a565b5b5090506200028791906200028b565b5090565b5b80821115620002a65760008160009055506001016200028c565b5090565b60006002820490506001821680620002c357607f821691505b60208210811415620002da57620002d9620002e0565b5b50919050565b7f4e487b7100000000000000000000000000000000000000000000000000000000600052602260045260246000fd5b613dc9806200031f6000396000f3fe608060405234801561001057600080fd5b50600436106101425760003560e01c80636352211e116100b8578063a22cb4651161007c578063a22cb46514610379578063b88d4fde14610395578063c87b56dd146103b1578063e8c75a30146103e1578063e985e9c5146103fd578063f2fde38b1461042d57610142565b80636352211e146102d357806370a0823114610303578063715018a6146103335780638da5cb5b1461033d57806395d89b411461035b57610142565b806323b872dd1161010a57806323b872dd146101ff5780632f745c591461021b578063306076771461024b57806342842e0e146102695780634bef3c6a146102855780634f6ccce7146102a357610142565b806301ffc9a71461014757806306fdde0314610177578063081812fc14610195578063095ea7b3146101c557806318160ddd146101e1575b600080fd5b610161600480360381019061015c91906129bf565b610449565b60405161016e9190612f7b565b60405180910390f35b61017f61045b565b60405161018c9190612f96565b60405180910390f35b6101af60048036038101906101aa9190612a52565b6104ed565b6040516101bc9190612f14565b60405180910390f35b6101df60048036038101906101da9190612983565b610572565b005b6101e961068a565b6040516101f69190613278565b60405180910390f35b6102196004803603810190610214919061287d565b610697565b005b61023560048036038101906102309190612983565b6106f7565b6040516102429190613278565b60405180910390f35b61025361079c565b6040516102609190612f96565b60405180910390f35b610283600480360381019061027e919061287d565b61082e565b005b61028d61084e565b60405161029a9190613278565b60405180910390f35b6102bd60048036038101906102b89190612a52565b61094e565b6040516102ca9190613278565b60405180910390f35b6102ed60048036038101906102e89190612a52565b6109e5565b6040516102fa9190612f14565b60405180910390f35b61031d60048036038101906103189190612818565b610a97565b60405161032a9190613278565b60405180910390f35b61033b610b4f565b005b610345610bd7565b6040516103529190612f14565b60405180910390f35b610363610c01565b6040516103709190612f96565b60405180910390f35b610393600480360381019061038e9190612947565b610c93565b005b6103af60048036038101906103aa91906128cc565b610e14565b005b6103cb60048036038101906103c69190612a52565b610e76565b6040516103d89190612f96565b60405180910390f35b6103fb60048036038101906103f69190612a11565b610e88565b005b61041760048036038101906104129190612841565b610f1e565b6040516104249190612f7b565b60405180910390f35b61044760048036038101906104429190612818565b610fb2565b005b6000610454826110aa565b9050919050565b60606000805461046a90613581565b80601f016020809104026020016040519081016040528092919081815260200182805461049690613581565b80156104e35780601f106104b8576101008083540402835291602001916104e3565b820191906000526020600020905b8154815290600101906020018083116104c657829003601f168201915b5050505050905090565b60006104f882611124565b610537576040517f08c379a000000000000000000000000000000000000000000000000000000000815260040161052e90613198565b60405180910390fd5b6004600083815260200190815260200160002060009054906101000a900473ffffffffffffffffffffffffffffffffffffffff169050919050565b600061057d826109e5565b90508073ffffffffffffffffffffffffffffffffffffffff168373ffffffffffffffffffffffffffffffffffffffff1614156105ee576040517f08c379a00000000000000000000000000000000000000000000000000000000081526004016105e590613218565b60405180910390fd5b8073ffffffffffffffffffffffffffffffffffffffff1661060d611190565b73ffffffffffffffffffffffffffffffffffffffff16148061063c575061063b81610636611190565b610f1e565b5b61067b576040517f08c379a0000000000000000000000000000000000000000000000000000000008152600401610672906130d8565b60405180910390fd5b6106858383611198565b505050565b6000600880549050905090565b6106a86106a2611190565b82611251565b6106e7576040517f08c379a00000000000000000000000000000000000000000000000000000000081526004016106de90613238565b60405180910390fd5b6106f283838361132f565b505050565b600061070283610a97565b8210610743576040517f08c379a000000000000000000000000000000000000000000000000000000000815260040161073a90612fb8565b60405180910390fd5b600660008473ffffffffffffffffffffffffffffffffffffffff1673ffffffffffffffffffffffffffffffffffffffff168152602001908152602001600020600083815260200190815260200160002054905092915050565b6060600e80546107ab90613581565b80601f01602080910402602001604051908101604052809291908181526020018280546107d790613581565b80156108245780601f106107f957610100808354040283529160200191610824565b820191906000526020600020905b81548152906001019060200180831161080757829003601f168201915b5050505050905090565b61084983838360405180602001604052806000815250610e14565b505050565b6000600d5461085d600c61158b565b1061089d576040517f08c379a000000000000000000000000000000000000000000000000000000000815260040161089490613098565b60405180910390fd5b60036108a833610a97565b106108e8576040517f08c379a00000000000000000000000000000000000000000000000000000000081526004016108df906130b8565b60405180910390fd5b60006108f4600c61158b565b90506109003382611599565b61093d81600e610918610913600c61158b565b611767565b604051602001610929929190612ef0565b60405160208183030381529060405261193c565b610947600c6119b0565b8091505090565b600061095861068a565b8210610999576040517f08c379a000000000000000000000000000000000000000000000000000000000815260040161099090613258565b60405180910390fd5b600882815481106109d3577f4e487b7100000000000000000000000000000000000000000000000000000000600052603260045260246000fd5b90600052602060002001549050919050565b6000806002600084815260200190815260200160002060009054906101000a900473ffffffffffffffffffffffffffffffffffffffff169050600073ffffffffffffffffffffffffffffffffffffffff168173ffffffffffffffffffffffffffffffffffffffff161415610a8e576040517f08c379a0000000000000000000000000000000000000000000000000000000008152600401610a8590613118565b60405180910390fd5b80915050919050565b60008073ffffffffffffffffffffffffffffffffffffffff168273ffffffffffffffffffffffffffffffffffffffff161415610b08576040517f08c379a0000000000000000000000000000000000000000000000000000000008152600401610aff906130f8565b60405180910390fd5b600360008373ffffffffffffffffffffffffffffffffffffffff1673ffffffffffffffffffffffffffffffffffffffff168152602001908152602001600020549050919050565b610b57611190565b73ffffffffffffffffffffffffffffffffffffffff16610b75610bd7565b73ffffffffffffffffffffffffffffffffffffffff1614610bcb576040517f08c379a0000000000000000000000000000000000000000000000000000000008152600401610bc2906131b8565b60405180910390fd5b610bd560006119c6565b565b6000600b60009054906101000a900473ffffffffffffffffffffffffffffffffffffffff16905090565b606060018054610c1090613581565b80601f0160208091040260200160405190810160405280929190818152602001828054610c3c90613581565b8015610c895780601f10610c5e57610100808354040283529160200191610c89565b820191906000526020600020905b815481529060010190602001808311610c6c57829003601f168201915b5050505050905090565b610c9b611190565b73ffffffffffffffffffffffffffffffffffffffff168273ffffffffffffffffffffffffffffffffffffffff161415610d09576040517f08c379a0000000000000000000000000000000000000000000000000000000008152600401610d0090613058565b60405180910390fd5b8060056000610d16611190565b73ffffffffffffffffffffffffffffffffffffffff1673ffffffffffffffffffffffffffffffffffffffff16815260200190815260200160002060008473ffffffffffffffffffffffffffffffffffffffff1673ffffffffffffffffffffffffffffffffffffffff16815260200190815260200160002060006101000a81548160ff0219169083151502179055508173ffffffffffffffffffffffffffffffffffffffff16610dc3611190565b73ffffffffffffffffffffffffffffffffffffffff167f17307eab39ab6107e8899845ad3d59bd9653f200f220920489ca2b5937696c3183604051610e089190612f7b565b60405180910390a35050565b610e25610e1f611190565b83611251565b610e64576040517f08c379a0000000000000000000000000000000000000000000000000000000008152600401610e5b90613238565b60405180910390fd5b610e7084848484611a8c565b50505050565b6060610e8182611ae8565b9050919050565b610e90611190565b73ffffffffffffffffffffffffffffffffffffffff16610eae610bd7565b73ffffffffffffffffffffffffffffffffffffffff1614610f04576040517f08c379a0000000000000000000000000000000000000000000000000000000008152600401610efb906131b8565b60405180910390fd5b80600e9080519060200190610f1a92919061263c565b5050565b6000600560008473ffffffffffffffffffffffffffffffffffffffff1673ffffffffffffffffffffffffffffffffffffffff16815260200190815260200160002060008373ffffffffffffffffffffffffffffffffffffffff1673ffffffffffffffffffffffffffffffffffffffff16815260200190815260200160002060009054906101000a900460ff16905092915050565b610fba611190565b73ffffffffffffffffffffffffffffffffffffffff16610fd8610bd7565b73ffffffffffffffffffffffffffffffffffffffff161461102e576040517f08c379a0000000000000000000000000000000000000000000000000000000008152600401611025906131b8565b60405180910390fd5b600073ffffffffffffffffffffffffffffffffffffffff168173ffffffffffffffffffffffffffffffffffffffff16141561109e576040517f08c379a000000000000000000000000000000000000000000000000000000000815260040161109590612ff8565b60405180910390fd5b6110a7816119c6565b50565b60007f780e9d63000000000000000000000000000000000000000000000000000000007bffffffffffffffffffffffffffffffffffffffffffffffffffffffff1916827bffffffffffffffffffffffffffffffffffffffffffffffffffffffff1916148061111d575061111c82611c3a565b5b9050919050565b60008073ffffffffffffffffffffffffffffffffffffffff166002600084815260200190815260200160002060009054906101000a900473ffffffffffffffffffffffffffffffffffffffff1673ffffffffffffffffffffffffffffffffffffffff1614159050919050565b600033905090565b816004600083815260200190815260200160002060006101000a81548173ffffffffffffffffffffffffffffffffffffffff021916908373ffffffffffffffffffffffffffffffffffffffff160217905550808273ffffffffffffffffffffffffffffffffffffffff1661120b836109e5565b73ffffffffffffffffffffffffffffffffffffffff167f8c5be1e5ebec7d5bd14f71427d1e84f3dd0314c0f7b2291e5b200ac8c7c3b92560405160405180910390a45050565b600061125c82611124565b61129b576040517f08c379a000000000000000000000000000000000000000000000000000000000815260040161129290613078565b60405180910390fd5b60006112a6836109e5565b90508073ffffffffffffffffffffffffffffffffffffffff168473ffffffffffffffffffffffffffffffffffffffff16148061131557508373ffffffffffffffffffffffffffffffffffffffff166112fd846104ed565b73ffffffffffffffffffffffffffffffffffffffff16145b8061132657506113258185610f1e565b5b91505092915050565b8273ffffffffffffffffffffffffffffffffffffffff1661134f826109e5565b73ffffffffffffffffffffffffffffffffffffffff16146113a5576040517f08c379a000000000000000000000000000000000000000000000000000000000815260040161139c906131d8565b60405180910390fd5b600073ffffffffffffffffffffffffffffffffffffffff168273ffffffffffffffffffffffffffffffffffffffff161415611415576040517f08c379a000000000000000000000000000000000000000000000000000000000815260040161140c90613038565b60405180910390fd5b611420838383611d1c565b61142b600082611198565b6001600360008573ffffffffffffffffffffffffffffffffffffffff1673ffffffffffffffffffffffffffffffffffffffff168152602001908152602001600020600082825461147b919061348a565b925050819055506001600360008473ffffffffffffffffffffffffffffffffffffffff1673ffffffffffffffffffffffffffffffffffffffff16815260200190815260200160002060008282546114d29190613372565b92505081905550816002600083815260200190815260200160002060006101000a81548173ffffffffffffffffffffffffffffffffffffffff021916908373ffffffffffffffffffffffffffffffffffffffff160217905550808273ffffffffffffffffffffffffffffffffffffffff168473ffffffffffffffffffffffffffffffffffffffff167fddf252ad1be2c89b69c2b068fc378daa952ba7f163c4a11628f55a4df523b3ef60405160405180910390a4505050565b600081600001549050919050565b600073ffffffffffffffffffffffffffffffffffffffff168273ffffffffffffffffffffffffffffffffffffffff161415611609576040517f08c379a000000000000000000000000000000000000000000000000000000000815260040161160090613158565b60405180910390fd5b61161281611124565b15611652576040517f08c379a000000000000000000000000000000000000000000000000000000000815260040161164990613018565b60405180910390fd5b61165e60008383611d1c565b6001600360008473ffffffffffffffffffffffffffffffffffffffff1673ffffffffffffffffffffffffffffffffffffffff16815260200190815260200160002060008282546116ae9190613372565b92505081905550816002600083815260200190815260200160002060006101000a81548173ffffffffffffffffffffffffffffffffffffffff021916908373ffffffffffffffffffffffffffffffffffffffff160217905550808273ffffffffffffffffffffffffffffffffffffffff16600073ffffffffffffffffffffffffffffffffffffffff167fddf252ad1be2c89b69c2b068fc378daa952ba7f163c4a11628f55a4df523b3ef60405160405180910390a45050565b606060008214156117af576040518060400160405280600181526020017f30000000000000000000000000000000000000000000000000000000000000008152509050611937565b600082905060005b600082146117e15780806117ca906135e4565b915050600a826117da91906133ff565b91506117b7565b60008167ffffffffffffffff811115611823577f4e487b7100000000000000000000000000000000000000000000000000000000600052604160045260246000fd5b6040519080825280601f01601f1916602001820160405280156118555781602001600182028036833780820191505090505b50905060008290505b6000861461192f57600181611873919061348a565b90506000600a808861188591906133ff565b61188f9190613430565b8761189a919061348a565b60306118a691906133c8565b905060008160f81b9050808484815181106118ea577f4e487b7100000000000000000000000000000000000000000000000000000000600052603260045260246000fd5b60200101907effffffffffffffffffffffffffffffffffffffffffffffffffffffffffffff1916908160001a905350600a8861192691906133ff565b9750505061185e565b819450505050505b919050565b61194582611124565b611984576040517f08c379a000000000000000000000000000000000000000000000000000000000815260040161197b90613138565b60405180910390fd5b80600a600084815260200190815260200160002090805190602001906119ab92919061263c565b505050565b6001816000016000828254019250508190555050565b6000600b60009054906101000a900473ffffffffffffffffffffffffffffffffffffffff16905081600b60006101000a81548173ffffffffffffffffffffffffffffffffffffffff021916908373ffffffffffffffffffffffffffffffffffffffff1602179055508173ffffffffffffffffffffffffffffffffffffffff168173ffffffffffffffffffffffffffffffffffffffff167f8be0079c531659141344cd1fd0a4f28419497f9722a3daafe3b4186f6b6457e060405160405180910390a35050565b611a9784848461132f565b611aa384848484611d2c565b611ae2576040517f08c379a0000000000000000000000000000000000000000000000000000000008152600401611ad990612fd8565b60405180910390fd5b50505050565b6060611af382611124565b611b32576040517f08c379a0000000000000000000000000000000000000000000000000000000008152600401611b2990613178565b60405180910390fd5b6000600a60008481526020019081526020016000208054611b5290613581565b80601f0160208091040260200160405190810160405280929190818152602001828054611b7e90613581565b8015611bcb5780601f10611ba057610100808354040283529160200191611bcb565b820191906000526020600020905b815481529060010190602001808311611bae57829003601f168201915b505050505090506000611bdc611ec3565b9050600081511415611bf2578192505050611c35565b600082511115611c27578082604051602001611c0f929190612ecc565b60405160208183030381529060405292505050611c35565b611c3084611eda565b925050505b919050565b60007f80ac58cd000000000000000000000000000000000000000000000000000000007bffffffffffffffffffffffffffffffffffffffffffffffffffffffff1916827bffffffffffffffffffffffffffffffffffffffffffffffffffffffff19161480611d0557507f5b5e139f000000000000000000000000000000000000000000000000000000007bffffffffffffffffffffffffffffffffffffffffffffffffffffffff1916827bffffffffffffffffffffffffffffffffffffffffffffffffffffffff1916145b80611d155750611d1482611f81565b5b9050919050565b611d27838383611feb565b505050565b6000611d4d8473ffffffffffffffffffffffffffffffffffffffff166120ff565b15611eb6578373ffffffffffffffffffffffffffffffffffffffff1663150b7a02611d76611190565b8786866040518563ffffffff1660e01b8152600401611d989493929190612f2f565b602060405180830381600087803b158015611db257600080fd5b505af1925050508015611de357506040513d601f19601f82011682018060405250810190611de091906129e8565b60015b611e66573d8060008114611e13576040519150601f19603f3d011682016040523d82523d6000602084013e611e18565b606091505b50600081511415611e5e576040517f08c379a0000000000000000000000000000000000000000000000000000000008152600401611e5590612fd8565b60405180910390fd5b805181602001fd5b63150b7a0260e01b7bffffffffffffffffffffffffffffffffffffffffffffffffffffffff1916817bffffffffffffffffffffffffffffffffffffffffffffffffffffffff191614915050611ebb565b600190505b949350505050565b606060405180602001604052806000815250905090565b6060611ee582611124565b611f24576040517f08c379a0000000000000000000000000000000000000000000000000000000008152600401611f1b906131f8565b60405180910390fd5b6000611f2e611ec3565b90506000815111611f4e5760405180602001604052806000815250611f79565b80611f5884612112565b604051602001611f69929190612ecc565b6040516020818303038152906040525b915050919050565b60007f01ffc9a7000000000000000000000000000000000000000000000000000000007bffffffffffffffffffffffffffffffffffffffffffffffffffffffff1916827bffffffffffffffffffffffffffffffffffffffffffffffffffffffff1916149050919050565b611ff68383836122bf565b600073ffffffffffffffffffffffffffffffffffffffff168373ffffffffffffffffffffffffffffffffffffffff16141561203957612034816122c4565b612078565b8173ffffffffffffffffffffffffffffffffffffffff168373ffffffffffffffffffffffffffffffffffffffff161461207757612076838261230d565b5b5b600073ffffffffffffffffffffffffffffffffffffffff168273ffffffffffffffffffffffffffffffffffffffff1614156120bb576120b68161247a565b6120fa565b8273ffffffffffffffffffffffffffffffffffffffff168273ffffffffffffffffffffffffffffffffffffffff16146120f9576120f882826125bd565b5b5b505050565b600080823b905060008111915050919050565b6060600082141561215a576040518060400160405280600181526020017f300000000000000000000000000000000000000000000000000000000000000081525090506122ba565b600082905060005b6000821461218c578080612175906135e4565b915050600a8261218591906133ff565b9150612162565b60008167ffffffffffffffff8111156121ce577f4e487b7100000000000000000000000000000000000000000000000000000000600052604160045260246000fd5b6040519080825280601f01601f1916602001820160405280156122005781602001600182028036833780820191505090505b5090505b600085146122b357600182612219919061348a565b9150600a85612228919061362d565b60306122349190613372565b60f81b818381518110612270577f4e487b7100000000000000000000000000000000000000000000000000000000600052603260045260246000fd5b60200101907effffffffffffffffffffffffffffffffffffffffffffffffffffffffffffff1916908160001a905350600a856122ac91906133ff565b9450612204565b8093505050505b919050565b505050565b6008805490506009600083815260200190815260200160002081905550600881908060018154018082558091505060019003906000526020600020016000909190919091505550565b6000600161231a84610a97565b612324919061348a565b9050600060076000848152602001908152602001600020549050818114612409576000600660008673ffffffffffffffffffffffffffffffffffffffff1673ffffffffffffffffffffffffffffffffffffffff168152602001908152602001600020600084815260200190815260200160002054905080600660008773ffffffffffffffffffffffffffffffffffffffff1673ffffffffffffffffffffffffffffffffffffffff168152602001908152602001600020600084815260200190815260200160002081905550816007600083815260200190815260200160002081905550505b6007600084815260200190815260200160002060009055600660008573ffffffffffffffffffffffffffffffffffffffff1673ffffffffffffffffffffffffffffffffffffffff16815260200190815260200160002060008381526020019081526020016000206000905550505050565b6000600160088054905061248e919061348a565b90506000600960008481526020019081526020016000205490506000600883815481106124e4577f4e487b7100000000000000000000000000000000000000000000000000000000600052603260045260246000fd5b90600052602060002001549050806008838154811061252c577f4e487b7100000000000000000000000000000000000000000000000000000000600052603260045260246000fd5b9060005260206000200181905550816009600083815260200190815260200160002081905550600960008581526020019081526020016000206000905560088054806125a1577f4e487b7100000000000000000000000000000000000000000000000000000000600052603160045260246000fd5b6001900381819060005260206000200160009055905550505050565b60006125c883610a97565b905081600660008573ffffffffffffffffffffffffffffffffffffffff1673ffffffffffffffffffffffffffffffffffffffff168152602001908152602001600020600083815260200190815260200160002081905550806007600084815260200190815260200160002081905550505050565b82805461264890613581565b90600052602060002090601f01602090048101928261266a57600085556126b1565b82601f1061268357805160ff19168380011785556126b1565b828001600101855582156126b1579182015b828111156126b0578251825591602001919060010190612695565b5b5090506126be91906126c2565b5090565b5b808211156126db5760008160009055506001016126c3565b5090565b60006126f26126ed846132b8565b613293565b90508281526020810184848401111561270a57600080fd5b61271584828561353f565b509392505050565b600061273061272b846132e9565b613293565b90508281526020810184848401111561274857600080fd5b61275384828561353f565b509392505050565b60008135905061276a81613d37565b92915050565b60008135905061277f81613d4e565b92915050565b60008135905061279481613d65565b92915050565b6000815190506127a981613d65565b92915050565b600082601f8301126127c057600080fd5b81356127d08482602086016126df565b91505092915050565b600082601f8301126127ea57600080fd5b81356127fa84826020860161271d565b91505092915050565b60008135905061281281613d7c565b92915050565b60006020828403121561282a57600080fd5b60006128388482850161275b565b91505092915050565b6000806040838503121561285457600080fd5b60006128628582860161275b565b92505060206128738582860161275b565b9150509250929050565b60008060006060848603121561289257600080fd5b60006128a08682870161275b565b93505060206128b18682870161275b565b92505060406128c286828701612803565b9150509250925092565b600080600080608085870312156128e257600080fd5b60006128f08782880161275b565b94505060206129018782880161275b565b935050604061291287828801612803565b925050606085013567ffffffffffffffff81111561292f57600080fd5b61293b878288016127af565b91505092959194509250565b6000806040838503121561295a57600080fd5b60006129688582860161275b565b925050602061297985828601612770565b9150509250929050565b6000806040838503121561299657600080fd5b60006129a48582860161275b565b92505060206129b585828601612803565b9150509250929050565b6000602082840312156129d157600080fd5b60006129df84828501612785565b91505092915050565b6000602082840312156129fa57600080fd5b6000612a088482850161279a565b91505092915050565b600060208284031215612a2357600080fd5b600082013567ffffffffffffffff811115612a3d57600080fd5b612a49848285016127d9565b91505092915050565b600060208284031215612a6457600080fd5b6000612a7284828501612803565b91505092915050565b612a84816134be565b82525050565b612a93816134d0565b82525050565b6000612aa48261332f565b612aae8185613345565b9350612abe81856020860161354e565b612ac78161371a565b840191505092915050565b6000612add8261333a565b612ae78185613356565b9350612af781856020860161354e565b612b008161371a565b840191505092915050565b6000612b168261333a565b612b208185613367565b9350612b3081856020860161354e565b80840191505092915050565b60008154612b4981613581565b612b538186613367565b94506001821660008114612b6e5760018114612b7f57612bb2565b60ff19831686528186019350612bb2565b612b888561331a565b60005b83811015612baa57815481890152600182019150602081019050612b8b565b838801955050505b50505092915050565b6000612bc8602b83613356565b9150612bd38261372b565b604082019050919050565b6000612beb603283613356565b9150612bf68261377a565b604082019050919050565b6000612c0e602683613356565b9150612c19826137c9565b604082019050919050565b6000612c31601c83613356565b9150612c3c82613818565b602082019050919050565b6000612c54602483613356565b9150612c5f82613841565b604082019050919050565b6000612c77601983613356565b9150612c8282613890565b602082019050919050565b6000612c9a602c83613356565b9150612ca5826138b9565b604082019050919050565b6000612cbd602683613356565b9150612cc882613908565b604082019050919050565b6000612ce0601f83613356565b9150612ceb82613957565b602082019050919050565b6000612d03603883613356565b9150612d0e82613980565b604082019050919050565b6000612d26602a83613356565b9150612d31826139cf565b604082019050919050565b6000612d49602983613356565b9150612d5482613a1e565b604082019050919050565b6000612d6c602e83613356565b9150612d7782613a6d565b604082019050919050565b6000612d8f602083613356565b9150612d9a82613abc565b602082019050919050565b6000612db2603183613356565b9150612dbd82613ae5565b604082019050919050565b6000612dd5602c83613356565b9150612de082613b34565b604082019050919050565b6000612df8602083613356565b9150612e0382613b83565b602082019050919050565b6000612e1b602983613356565b9150612e2682613bac565b604082019050919050565b6000612e3e602f83613356565b9150612e4982613bfb565b604082019050919050565b6000612e61602183613356565b9150612e6c82613c4a565b604082019050919050565b6000612e84603183613356565b9150612e8f82613c99565b604082019050919050565b6000612ea7602c83613356565b9150612eb282613ce8565b604082019050919050565b612ec681613528565b82525050565b6000612ed88285612b0b565b9150612ee48284612b0b565b91508190509392505050565b6000612efc8285612b3c565b9150612f088284612b0b565b91508190509392505050565b6000602082019050612f296000830184612a7b565b92915050565b6000608082019050612f446000830187612a7b565b612f516020830186612a7b565b612f5e6040830185612ebd565b8181036060830152612f708184612a99565b905095945050505050565b6000602082019050612f906000830184612a8a565b92915050565b60006020820190508181036000830152612fb08184612ad2565b905092915050565b60006020820190508181036000830152612fd181612bbb565b9050919050565b60006020820190508181036000830152612ff181612bde565b9050919050565b6000602082019050818103600083015261301181612c01565b9050919050565b6000602082019050818103600083015261303181612c24565b9050919050565b6000602082019050818103600083015261305181612c47565b9050919050565b6000602082019050818103600083015261307181612c6a565b9050919050565b6000602082019050818103600083015261309181612c8d565b9050919050565b600060208201905081810360008301526130b181612cb0565b9050919050565b600060208201905081810360008301526130d181612cd3565b9050919050565b600060208201905081810360008301526130f181612cf6565b9050919050565b6000602082019050818103600083015261311181612d19565b9050919050565b6000602082019050818103600083015261313181612d3c565b9050919050565b6000602082019050818103600083015261315181612d5f565b9050919050565b6000602082019050818103600083015261317181612d82565b9050919050565b6000602082019050818103600083015261319181612da5565b9050919050565b600060208201905081810360008301526131b181612dc8565b9050919050565b600060208201905081810360008301526131d181612deb565b9050919050565b600060208201905081810360008301526131f181612e0e565b9050919050565b6000602082019050818103600083015261321181612e31565b9050919050565b6000602082019050818103600083015261323181612e54565b9050919050565b6000602082019050818103600083015261325181612e77565b9050919050565b6000602082019050818103600083015261327181612e9a565b9050919050565b600060208201905061328d6000830184612ebd565b92915050565b600061329d6132ae565b90506132a982826135b3565b919050565b6000604051905090565b600067ffffffffffffffff8211156132d3576132d26136eb565b5b6132dc8261371a565b9050602081019050919050565b600067ffffffffffffffff821115613304576133036136eb565b5b61330d8261371a565b9050602081019050919050565b60008190508160005260206000209050919050565b600081519050919050565b600081519050919050565b600082825260208201905092915050565b600082825260208201905092915050565b600081905092915050565b600061337d82613528565b915061338883613528565b9250827fffffffffffffffffffffffffffffffffffffffffffffffffffffffffffffffff038211156133bd576133bc61365e565b5b828201905092915050565b60006133d382613532565b91506133de83613532565b92508260ff038211156133f4576133f361365e565b5b828201905092915050565b600061340a82613528565b915061341583613528565b9250826134255761342461368d565b5b828204905092915050565b600061343b82613528565b915061344683613528565b9250817fffffffffffffffffffffffffffffffffffffffffffffffffffffffffffffffff048311821515161561347f5761347e61365e565b5b828202905092915050565b600061349582613528565b91506134a083613528565b9250828210156134b3576134b261365e565b5b828203905092915050565b60006134c982613508565b9050919050565b60008115159050919050565b60007fffffffff0000000000000000000000000000000000000000000000000000000082169050919050565b600073ffffffffffffffffffffffffffffffffffffffff82169050919050565b6000819050919050565b600060ff82169050919050565b82818337600083830152505050565b60005b8381101561356c578082015181840152602081019050613551565b8381111561357b576000848401525b50505050565b6000600282049050600182168061359957607f821691505b602082108114156135ad576135ac6136bc565b5b50919050565b6135bc8261371a565b810181811067ffffffffffffffff821117156135db576135da6136eb565b5b80604052505050565b60006135ef82613528565b91507fffffffffffffffffffffffffffffffffffffffffffffffffffffffffffffffff8214156136225761362161365e565b5b600182019050919050565b600061363882613528565b915061364383613528565b9250826136535761365261368d565b5b828206905092915050565b7f4e487b7100000000000000000000000000000000000000000000000000000000600052601160045260246000fd5b7f4e487b7100000000000000000000000000000000000000000000000000000000600052601260045260246000fd5b7f4e487b7100000000000000000000000000000000000000000000000000000000600052602260045260246000fd5b7f4e487b7100000000000000000000000000000000000000000000000000000000600052604160045260246000fd5b6000601f19601f8301169050919050565b7f455243373231456e756d657261626c653a206f776e657220696e646578206f7560008201527f74206f6620626f756e6473000000000000000000000000000000000000000000602082015250565b7f4552433732313a207472616e7366657220746f206e6f6e20455243373231526560008201527f63656976657220696d706c656d656e7465720000000000000000000000000000602082015250565b7f4f776e61626c653a206e6577206f776e657220697320746865207a65726f206160008201527f6464726573730000000000000000000000000000000000000000000000000000602082015250565b7f4552433732313a20746f6b656e20616c7265616479206d696e74656400000000600082015250565b7f4552433732313a207472616e7366657220746f20746865207a65726f2061646460008201527f7265737300000000000000000000000000000000000000000000000000000000602082015250565b7f4552433732313a20617070726f766520746f2063616c6c657200000000000000600082015250565b7f4552433732313a206f70657261746f7220717565727920666f72206e6f6e657860008201527f697374656e7420746f6b656e0000000000000000000000000000000000000000602082015250565b7f416c6c2074686520426c6f6f64792046616365732068617665206265656e206d60008201527f696e7465642e0000000000000000000000000000000000000000000000000000602082015250565b7f596f7520616c7265616479206f776e203320426c6f6f64792046616365732e00600082015250565b7f4552433732313a20617070726f76652063616c6c6572206973206e6f74206f7760008201527f6e6572206e6f7220617070726f76656420666f7220616c6c0000000000000000602082015250565b7f4552433732313a2062616c616e636520717565727920666f7220746865207a6560008201527f726f206164647265737300000000000000000000000000000000000000000000602082015250565b7f4552433732313a206f776e657220717565727920666f72206e6f6e657869737460008201527f656e7420746f6b656e0000000000000000000000000000000000000000000000602082015250565b7f45524337323155524953746f726167653a2055524920736574206f66206e6f6e60008201527f6578697374656e7420746f6b656e000000000000000000000000000000000000602082015250565b7f4552433732313a206d696e7420746f20746865207a65726f2061646472657373600082015250565b7f45524337323155524953746f726167653a2055524920717565727920666f722060008201527f6e6f6e6578697374656e7420746f6b656e000000000000000000000000000000602082015250565b7f4552433732313a20617070726f76656420717565727920666f72206e6f6e657860008201527f697374656e7420746f6b656e0000000000000000000000000000000000000000602082015250565b7f4f776e61626c653a2063616c6c6572206973206e6f7420746865206f776e6572600082015250565b7f4552433732313a207472616e73666572206f6620746f6b656e2074686174206960008201527f73206e6f74206f776e0000000000000000000000000000000000000000000000602082015250565b7f4552433732314d657461646174613a2055524920717565727920666f72206e6f60008201527f6e6578697374656e7420746f6b656e0000000000000000000000000000000000602082015250565b7f4552433732313a20617070726f76616c20746f2063757272656e74206f776e6560008201527f7200000000000000000000000000000000000000000000000000000000000000602082015250565b7f4552433732313a207472616e736665722063616c6c6572206973206e6f74206f60008201527f776e6572206e6f7220617070726f766564000000000000000000000000000000602082015250565b7f455243373231456e756d657261626c653a20676c6f62616c20696e646578206f60008201527f7574206f6620626f756e64730000000000000000000000000000000000000000602082015250565b613d40816134be565b8114613d4b57600080fd5b50565b613d57816134d0565b8114613d6257600080fd5b50565b613d6e816134dc565b8114613d7957600080fd5b50565b613d8581613528565b8114613d9057600080fd5b5056fea2646970667358221220fc49b90f515a1c85bed4f5d8ce118aa8b087c1bd17f755110cef54f69b4b53e664736f6c63430008030033",
  "immutableReferences": {},
  "source": "// SPDX-License-Identifier: MIT\npragma solidity ^0.8.3;\n\nimport \"@openzeppelin/contracts/token/ERC721/ERC721.sol\";\nimport \"@openzeppelin/contracts/token/ERC721/extensions/ERC721Enumerable.sol\";\nimport \"@openzeppelin/contracts/token/ERC721/extensions/ERC721URIStorage.sol\";\nimport \"@openzeppelin/contracts/access/Ownable.sol\";\nimport \"@openzeppelin/contracts/utils/Counters.sol\";\n\ncontract BloodyFace is ERC721, ERC721Enumerable, ERC721URIStorage, Ownable {\n  using Counters for Counters.Counter;\n\n  Counters.Counter private _tokenIdCounter;\n\n  uint256 private _totalSupply = 3333;\n\n  string private _apiUrl = \"https://bloodyfaces.io/api/nft/\";\n\n  constructor() ERC721(\"BloodyFace\", \"BLDFC\") {}\n\n  function mintBloodyFace() public returns (uint256) {\n    require(_tokenIdCounter.current() < _totalSupply, \"All the Bloody Faces have been minted.\");\n    require(balanceOf(msg.sender) < 3, \"You already own 3 Bloody Faces.\");\n\n    uint256 newNftId = _tokenIdCounter.current();\n\n    _mint(msg.sender, newNftId);\n    _setTokenURI(newNftId, string(abi.encodePacked(_apiUrl, _uint2str(_tokenIdCounter.current()))));\n\n    _tokenIdCounter.increment();\n\n    return newNftId;\n  }\n\n  function setApiUrl(string memory _newUrl) public onlyOwner {\n    _apiUrl = _newUrl;\n  }\n\n  function getApiUrl() public view returns (string memory) {\n    return _apiUrl;\n  }\n\n  function _uint2str(uint _i) internal pure returns (string memory _uintAsString) {\n    if (_i == 0) {\n      return \"0\";\n    }\n    uint j = _i;\n    uint len;\n    while (j != 0) {\n      len++;\n      j /= 10;\n    }\n    bytes memory bstr = new bytes(len);\n    uint k = len;\n    while (_i != 0) {\n      k = k-1;\n      uint8 temp = (48 + uint8(_i - _i / 10 * 10));\n      bytes1 b1 = bytes1(temp);\n      bstr[k] = b1;\n      _i /= 10;\n    }\n    return string(bstr);\n  }\n\n  // The following functions are overrides required by Solidity.\n  // This is generated by OpenZeppelin.\n\n  function _beforeTokenTransfer(address from, address to, uint256 tokenId)\n    internal\n    override(ERC721, ERC721Enumerable)\n  {\n    super._beforeTokenTransfer(from, to, tokenId);\n  }\n\n  function _burn(uint256 tokenId) internal override(ERC721, ERC721URIStorage) {\n    super._burn(tokenId);\n  }\n\n  function tokenURI(uint256 tokenId)\n    public\n    view\n    override(ERC721, ERC721URIStorage)\n    returns (string memory)\n  {\n    return super.tokenURI(tokenId);\n  }\n\n  function supportsInterface(bytes4 interfaceId)\n    public\n    view\n    override(ERC721, ERC721Enumerable)\n    returns (bool)\n  {\n    return super.supportsInterface(interfaceId);\n  }\n}\n",
  "sourcePath": "/Users/valcoh/Work/FightCoin/BloodyFaces/bloodyfaces-contract/contracts/BloodyFaceFactory.sol",
  "compiler": {
    "name": "solc",
    "version": "0.8.3+commit.8d00100c.Emscripten.clang"
  },
  "schemaVersion": "3.4.3",
  "updatedAt": "2021-09-26T04:29:25.676Z",
  "networkType": "ethereum",
  "devdoc": {
    "kind": "dev",
    "methods": {
      "approve(address,uint256)": {
        "details": "See {IERC721-approve}."
      },
      "balanceOf(address)": {
        "details": "See {IERC721-balanceOf}."
      },
      "getApproved(uint256)": {
        "details": "See {IERC721-getApproved}."
      },
      "isApprovedForAll(address,address)": {
        "details": "See {IERC721-isApprovedForAll}."
      },
      "name()": {
        "details": "See {IERC721Metadata-name}."
      },
      "owner()": {
        "details": "Returns the address of the current owner."
      },
      "ownerOf(uint256)": {
        "details": "See {IERC721-ownerOf}."
      },
      "renounceOwnership()": {
        "details": "Leaves the contract without owner. It will not be possible to call `onlyOwner` functions anymore. Can only be called by the current owner. NOTE: Renouncing ownership will leave the contract without an owner, thereby removing any functionality that is only available to the owner."
      },
      "safeTransferFrom(address,address,uint256)": {
        "details": "See {IERC721-safeTransferFrom}."
      },
      "safeTransferFrom(address,address,uint256,bytes)": {
        "details": "See {IERC721-safeTransferFrom}."
      },
      "setApprovalForAll(address,bool)": {
        "details": "See {IERC721-setApprovalForAll}."
      },
      "symbol()": {
        "details": "See {IERC721Metadata-symbol}."
      },
      "tokenByIndex(uint256)": {
        "details": "See {IERC721Enumerable-tokenByIndex}."
      },
      "tokenOfOwnerByIndex(address,uint256)": {
        "details": "See {IERC721Enumerable-tokenOfOwnerByIndex}."
      },
      "totalSupply()": {
        "details": "See {IERC721Enumerable-totalSupply}."
      },
      "transferFrom(address,address,uint256)": {
        "details": "See {IERC721-transferFrom}."
      },
      "transferOwnership(address)": {
        "details": "Transfers ownership of the contract to a new account (`newOwner`). Can only be called by the current owner."
      }
    },
    "version": 1
  },
  "userdoc": {
    "kind": "user",
    "methods": {},
    "version": 1
  }
}