{
  "contractName": "BloodyFace",
  "abi": [
    {
      "inputs": [],
      "stateMutability": "nonpayable",
      "type": "constructor"
    },
    {
      "anonymous": false,
      "inputs": [
        {
          "indexed": true,
          "internalType": "address",
          "name": "owner",
          "type": "address"
        },
        {
          "indexed": true,
          "internalType": "address",
          "name": "approved",
          "type": "address"
        },
        {
          "indexed": true,
          "internalType": "uint256",
          "name": "tokenId",
          "type": "uint256"
        }
      ],
      "name": "Approval",
      "type": "event"
    },
    {
      "anonymous": false,
      "inputs": [
        {
          "indexed": true,
          "internalType": "address",
          "name": "owner",
          "type": "address"
        },
        {
          "indexed": true,
          "internalType": "address",
          "name": "operator",
          "type": "address"
        },
        {
          "indexed": false,
          "internalType": "bool",
          "name": "approved",
          "type": "bool"
        }
      ],
      "name": "ApprovalForAll",
      "type": "event"
    },
    {
      "anonymous": false,
      "inputs": [
        {
          "indexed": true,
          "internalType": "address",
          "name": "previousOwner",
          "type": "address"
        },
        {
          "indexed": true,
          "internalType": "address",
          "name": "newOwner",
          "type": "address"
        }
      ],
      "name": "OwnershipTransferred",
      "type": "event"
    },
    {
      "anonymous": false,
      "inputs": [
        {
          "indexed": true,
          "internalType": "address",
          "name": "from",
          "type": "address"
        },
        {
          "indexed": true,
          "internalType": "address",
          "name": "to",
          "type": "address"
        },
        {
          "indexed": true,
          "internalType": "uint256",
          "name": "tokenId",
          "type": "uint256"
        }
      ],
      "name": "Transfer",
      "type": "event"
    },
    {
      "inputs": [
        {
          "internalType": "address",
          "name": "to",
          "type": "address"
        },
        {
          "internalType": "uint256",
          "name": "tokenId",
          "type": "uint256"
        }
      ],
      "name": "approve",
      "outputs": [],
      "stateMutability": "nonpayable",
      "type": "function"
    },
    {
      "inputs": [
        {
          "internalType": "address",
          "name": "owner",
          "type": "address"
        }
      ],
      "name": "balanceOf",
      "outputs": [
        {
          "internalType": "uint256",
          "name": "",
          "type": "uint256"
        }
      ],
      "stateMutability": "view",
      "type": "function",
      "constant": true
    },
    {
      "inputs": [
        {
          "internalType": "uint256",
          "name": "tokenId",
          "type": "uint256"
        }
      ],
      "name": "getApproved",
      "outputs": [
        {
          "internalType": "address",
          "name": "",
          "type": "address"
        }
      ],
      "stateMutability": "view",
      "type": "function",
      "constant": true
    },
    {
      "inputs": [
        {
          "internalType": "address",
          "name": "owner",
          "type": "address"
        },
        {
          "internalType": "address",
          "name": "operator",
          "type": "address"
        }
      ],
      "name": "isApprovedForAll",
      "outputs": [
        {
          "internalType": "bool",
          "name": "",
          "type": "bool"
        }
      ],
      "stateMutability": "view",
      "type": "function",
      "constant": true
    },
    {
      "inputs": [],
      "name": "name",
      "outputs": [
        {
          "internalType": "string",
          "name": "",
          "type": "string"
        }
      ],
      "stateMutability": "view",
      "type": "function",
      "constant": true
    },
    {
      "inputs": [],
      "name": "owner",
      "outputs": [
        {
          "internalType": "address",
          "name": "",
          "type": "address"
        }
      ],
      "stateMutability": "view",
      "type": "function",
      "constant": true
    },
    {
      "inputs": [
        {
          "internalType": "uint256",
          "name": "tokenId",
          "type": "uint256"
        }
      ],
      "name": "ownerOf",
      "outputs": [
        {
          "internalType": "address",
          "name": "",
          "type": "address"
        }
      ],
      "stateMutability": "view",
      "type": "function",
      "constant": true
    },
    {
      "inputs": [],
      "name": "renounceOwnership",
      "outputs": [],
      "stateMutability": "nonpayable",
      "type": "function"
    },
    {
      "inputs": [
        {
          "internalType": "address",
          "name": "from",
          "type": "address"
        },
        {
          "internalType": "address",
          "name": "to",
          "type": "address"
        },
        {
          "internalType": "uint256",
          "name": "tokenId",
          "type": "uint256"
        }
      ],
      "name": "safeTransferFrom",
      "outputs": [],
      "stateMutability": "nonpayable",
      "type": "function"
    },
    {
      "inputs": [
        {
          "internalType": "address",
          "name": "from",
          "type": "address"
        },
        {
          "internalType": "address",
          "name": "to",
          "type": "address"
        },
        {
          "internalType": "uint256",
          "name": "tokenId",
          "type": "uint256"
        },
        {
          "internalType": "bytes",
          "name": "_data",
          "type": "bytes"
        }
      ],
      "name": "safeTransferFrom",
      "outputs": [],
      "stateMutability": "nonpayable",
      "type": "function"
    },
    {
      "inputs": [
        {
          "internalType": "address",
          "name": "operator",
          "type": "address"
        },
        {
          "internalType": "bool",
          "name": "approved",
          "type": "bool"
        }
      ],
      "name": "setApprovalForAll",
      "outputs": [],
      "stateMutability": "nonpayable",
      "type": "function"
    },
    {
      "inputs": [],
      "name": "symbol",
      "outputs": [
        {
          "internalType": "string",
          "name": "",
          "type": "string"
        }
      ],
      "stateMutability": "view",
      "type": "function",
      "constant": true
    },
    {
      "inputs": [
        {
          "internalType": "uint256",
          "name": "index",
          "type": "uint256"
        }
      ],
      "name": "tokenByIndex",
      "outputs": [
        {
          "internalType": "uint256",
          "name": "",
          "type": "uint256"
        }
      ],
      "stateMutability": "view",
      "type": "function",
      "constant": true
    },
    {
      "inputs": [
        {
          "internalType": "address",
          "name": "owner",
          "type": "address"
        },
        {
          "internalType": "uint256",
          "name": "index",
          "type": "uint256"
        }
      ],
      "name": "tokenOfOwnerByIndex",
      "outputs": [
        {
          "internalType": "uint256",
          "name": "",
          "type": "uint256"
        }
      ],
      "stateMutability": "view",
      "type": "function",
      "constant": true
    },
    {
      "inputs": [],
      "name": "totalSupply",
      "outputs": [
        {
          "internalType": "uint256",
          "name": "",
          "type": "uint256"
        }
      ],
      "stateMutability": "view",
      "type": "function",
      "constant": true
    },
    {
      "inputs": [
        {
          "internalType": "address",
          "name": "from",
          "type": "address"
        },
        {
          "internalType": "address",
          "name": "to",
          "type": "address"
        },
        {
          "internalType": "uint256",
          "name": "tokenId",
          "type": "uint256"
        }
      ],
      "name": "transferFrom",
      "outputs": [],
      "stateMutability": "nonpayable",
      "type": "function"
    },
    {
      "inputs": [
        {
          "internalType": "address",
          "name": "newOwner",
          "type": "address"
        }
      ],
      "name": "transferOwnership",
      "outputs": [],
      "stateMutability": "nonpayable",
      "type": "function"
    },
    {
      "inputs": [],
      "name": "mintBloodyFace",
      "outputs": [
        {
          "internalType": "uint256",
          "name": "",
          "type": "uint256"
        }
      ],
      "stateMutability": "nonpayable",
      "type": "function"
    },
    {
      "inputs": [
        {
          "internalType": "string",
          "name": "newUrl",
          "type": "string"
        }
      ],
      "name": "setApiUrl",
      "outputs": [],
      "stateMutability": "nonpayable",
      "type": "function"
    },
    {
      "inputs": [
        {
          "internalType": "uint256",
          "name": "tokenId",
          "type": "uint256"
        }
      ],
      "name": "tokenURI",
      "outputs": [
        {
          "internalType": "string",
          "name": "",
          "type": "string"
        }
      ],
      "stateMutability": "view",
      "type": "function",
      "constant": true
    },
    {
      "inputs": [
        {
          "internalType": "bytes4",
          "name": "interfaceId",
          "type": "bytes4"
        }
      ],
      "name": "supportsInterface",
      "outputs": [
        {
          "internalType": "bool",
          "name": "",
          "type": "bool"
        }
      ],
      "stateMutability": "view",
      "type": "function",
      "constant": true
    }
  ],
  "bytecode": "0x6080604052600a600d556040518060400160405280601f81526020017f68747470733a2f2f626c6f6f647966616365732e696f2f6170692f6e66742f00815250600e908051906020019062000056929190620001f9565b503480156200006457600080fd5b506040518060400160405280600a81526020017f426c6f6f647946616365000000000000000000000000000000000000000000008152506040518060400160405280600581526020017f424c4446430000000000000000000000000000000000000000000000000000008152508160009080519060200190620000e9929190620001f9565b50806001908051906020019062000102929190620001f9565b50505062000125620001196200012b60201b60201c565b6200013360201b60201c565b6200030e565b600033905090565b6000600b60009054906101000a900473ffffffffffffffffffffffffffffffffffffffff16905081600b60006101000a81548173ffffffffffffffffffffffffffffffffffffffff021916908373ffffffffffffffffffffffffffffffffffffffff1602179055508173ffffffffffffffffffffffffffffffffffffffff168173ffffffffffffffffffffffffffffffffffffffff167f8be0079c531659141344cd1fd0a4f28419497f9722a3daafe3b4186f6b6457e060405160405180910390a35050565b8280546200020790620002a9565b90600052602060002090601f0160209004810192826200022b576000855562000277565b82601f106200024657805160ff191683800117855562000277565b8280016001018555821562000277579182015b828111156200027657825182559160200191906001019062000259565b5b5090506200028691906200028a565b5090565b5b80821115620002a55760008160009055506001016200028b565b5090565b60006002820490506001821680620002c257607f821691505b60208210811415620002d957620002d8620002df565b5b50919050565b7f4e487b7100000000000000000000000000000000000000000000000000000000600052602260045260246000fd5b613d0e806200031e6000396000f3fe608060405234801561001057600080fd5b50600436106101375760003560e01c80636352211e116100b8578063a22cb4651161007c578063a22cb46514610350578063b88d4fde1461036c578063c87b56dd14610388578063e8c75a30146103b8578063e985e9c5146103d4578063f2fde38b1461040457610137565b80636352211e146102aa57806370a08231146102da578063715018a61461030a5780638da5cb5b1461031457806395d89b411461033257610137565b806323b872dd116100ff57806323b872dd146101f45780632f745c591461021057806342842e0e146102405780634bef3c6a1461025c5780634f6ccce71461027a57610137565b806301ffc9a71461013c57806306fdde031461016c578063081812fc1461018a578063095ea7b3146101ba57806318160ddd146101d6575b600080fd5b61015660048036038101906101519190612904565b610420565b6040516101639190612ec0565b60405180910390f35b610174610432565b6040516101819190612edb565b60405180910390f35b6101a4600480360381019061019f9190612997565b6104c4565b6040516101b19190612e59565b60405180910390f35b6101d460048036038101906101cf91906128c8565b610549565b005b6101de610661565b6040516101eb91906131bd565b60405180910390f35b61020e600480360381019061020991906127c2565b61066e565b005b61022a600480360381019061022591906128c8565b6106ce565b60405161023791906131bd565b60405180910390f35b61025a600480360381019061025591906127c2565b610773565b005b610264610793565b60405161027191906131bd565b60405180910390f35b610294600480360381019061028f9190612997565b610893565b6040516102a191906131bd565b60405180910390f35b6102c460048036038101906102bf9190612997565b61092a565b6040516102d19190612e59565b60405180910390f35b6102f460048036038101906102ef919061275d565b6109dc565b60405161030191906131bd565b60405180910390f35b610312610a94565b005b61031c610b1c565b6040516103299190612e59565b60405180910390f35b61033a610b46565b6040516103479190612edb565b60405180910390f35b61036a6004803603810190610365919061288c565b610bd8565b005b61038660048036038101906103819190612811565b610d59565b005b6103a2600480360381019061039d9190612997565b610dbb565b6040516103af9190612edb565b60405180910390f35b6103d260048036038101906103cd9190612956565b610dcd565b005b6103ee60048036038101906103e99190612786565b610e63565b6040516103fb9190612ec0565b60405180910390f35b61041e6004803603810190610419919061275d565b610ef7565b005b600061042b82610fef565b9050919050565b606060008054610441906134c6565b80601f016020809104026020016040519081016040528092919081815260200182805461046d906134c6565b80156104ba5780601f1061048f576101008083540402835291602001916104ba565b820191906000526020600020905b81548152906001019060200180831161049d57829003601f168201915b5050505050905090565b60006104cf82611069565b61050e576040517f08c379a0000000000000000000000000000000000000000000000000000000008152600401610505906130bd565b60405180910390fd5b6004600083815260200190815260200160002060009054906101000a900473ffffffffffffffffffffffffffffffffffffffff169050919050565b60006105548261092a565b90508073ffffffffffffffffffffffffffffffffffffffff168373ffffffffffffffffffffffffffffffffffffffff1614156105c5576040517f08c379a00000000000000000000000000000000000000000000000000000000081526004016105bc9061315d565b60405180910390fd5b8073ffffffffffffffffffffffffffffffffffffffff166105e46110d5565b73ffffffffffffffffffffffffffffffffffffffff16148061061357506106128161060d6110d5565b610e63565b5b610652576040517f08c379a000000000000000000000000000000000000000000000000000000000815260040161064990612ffd565b60405180910390fd5b61065c83836110dd565b505050565b6000600880549050905090565b61067f6106796110d5565b82611196565b6106be576040517f08c379a00000000000000000000000000000000000000000000000000000000081526004016106b59061317d565b60405180910390fd5b6106c9838383611274565b505050565b60006106d9836109dc565b821061071a576040517f08c379a000000000000000000000000000000000000000000000000000000000815260040161071190612efd565b60405180910390fd5b600660008473ffffffffffffffffffffffffffffffffffffffff1673ffffffffffffffffffffffffffffffffffffffff168152602001908152602001600020600083815260200190815260200160002054905092915050565b61078e83838360405180602001604052806000815250610d59565b505050565b6000600d546107a2600c6114d0565b106107e2576040517f08c379a00000000000000000000000000000000000000000000000000000000081526004016107d990612fdd565b60405180910390fd5b60036107ed336109dc565b1061082d576040517f08c379a0000000000000000000000000000000000000000000000000000000008152600401610824906130dd565b60405180910390fd5b6000610839600c6114d0565b905061084533826114de565b61088281600e61085d610858600c6114d0565b6116ac565b60405160200161086e929190612e35565b604051602081830303815290604052611881565b61088c600c6118f5565b8091505090565b600061089d610661565b82106108de576040517f08c379a00000000000000000000000000000000000000000000000000000000081526004016108d59061319d565b60405180910390fd5b60088281548110610918577f4e487b7100000000000000000000000000000000000000000000000000000000600052603260045260246000fd5b90600052602060002001549050919050565b6000806002600084815260200190815260200160002060009054906101000a900473ffffffffffffffffffffffffffffffffffffffff169050600073ffffffffffffffffffffffffffffffffffffffff168173ffffffffffffffffffffffffffffffffffffffff1614156109d3576040517f08c379a00000000000000000000000000000000000000000000000000000000081526004016109ca9061303d565b60405180910390fd5b80915050919050565b60008073ffffffffffffffffffffffffffffffffffffffff168273ffffffffffffffffffffffffffffffffffffffff161415610a4d576040517f08c379a0000000000000000000000000000000000000000000000000000000008152600401610a449061301d565b60405180910390fd5b600360008373ffffffffffffffffffffffffffffffffffffffff1673ffffffffffffffffffffffffffffffffffffffff168152602001908152602001600020549050919050565b610a9c6110d5565b73ffffffffffffffffffffffffffffffffffffffff16610aba610b1c565b73ffffffffffffffffffffffffffffffffffffffff1614610b10576040517f08c379a0000000000000000000000000000000000000000000000000000000008152600401610b07906130fd565b60405180910390fd5b610b1a600061190b565b565b6000600b60009054906101000a900473ffffffffffffffffffffffffffffffffffffffff16905090565b606060018054610b55906134c6565b80601f0160208091040260200160405190810160405280929190818152602001828054610b81906134c6565b8015610bce5780601f10610ba357610100808354040283529160200191610bce565b820191906000526020600020905b815481529060010190602001808311610bb157829003601f168201915b5050505050905090565b610be06110d5565b73ffffffffffffffffffffffffffffffffffffffff168273ffffffffffffffffffffffffffffffffffffffff161415610c4e576040517f08c379a0000000000000000000000000000000000000000000000000000000008152600401610c4590612f9d565b60405180910390fd5b8060056000610c5b6110d5565b73ffffffffffffffffffffffffffffffffffffffff1673ffffffffffffffffffffffffffffffffffffffff16815260200190815260200160002060008473ffffffffffffffffffffffffffffffffffffffff1673ffffffffffffffffffffffffffffffffffffffff16815260200190815260200160002060006101000a81548160ff0219169083151502179055508173ffffffffffffffffffffffffffffffffffffffff16610d086110d5565b73ffffffffffffffffffffffffffffffffffffffff167f17307eab39ab6107e8899845ad3d59bd9653f200f220920489ca2b5937696c3183604051610d4d9190612ec0565b60405180910390a35050565b610d6a610d646110d5565b83611196565b610da9576040517f08c379a0000000000000000000000000000000000000000000000000000000008152600401610da09061317d565b60405180910390fd5b610db5848484846119d1565b50505050565b6060610dc682611a2d565b9050919050565b610dd56110d5565b73ffffffffffffffffffffffffffffffffffffffff16610df3610b1c565b73ffffffffffffffffffffffffffffffffffffffff1614610e49576040517f08c379a0000000000000000000000000000000000000000000000000000000008152600401610e40906130fd565b60405180910390fd5b80600e9080519060200190610e5f929190612581565b5050565b6000600560008473ffffffffffffffffffffffffffffffffffffffff1673ffffffffffffffffffffffffffffffffffffffff16815260200190815260200160002060008373ffffffffffffffffffffffffffffffffffffffff1673ffffffffffffffffffffffffffffffffffffffff16815260200190815260200160002060009054906101000a900460ff16905092915050565b610eff6110d5565b73ffffffffffffffffffffffffffffffffffffffff16610f1d610b1c565b73ffffffffffffffffffffffffffffffffffffffff1614610f73576040517f08c379a0000000000000000000000000000000000000000000000000000000008152600401610f6a906130fd565b60405180910390fd5b600073ffffffffffffffffffffffffffffffffffffffff168173ffffffffffffffffffffffffffffffffffffffff161415610fe3576040517f08c379a0000000000000000000000000000000000000000000000000000000008152600401610fda90612f3d565b60405180910390fd5b610fec8161190b565b50565b60007f780e9d63000000000000000000000000000000000000000000000000000000007bffffffffffffffffffffffffffffffffffffffffffffffffffffffff1916827bffffffffffffffffffffffffffffffffffffffffffffffffffffffff19161480611062575061106182611b7f565b5b9050919050565b60008073ffffffffffffffffffffffffffffffffffffffff166002600084815260200190815260200160002060009054906101000a900473ffffffffffffffffffffffffffffffffffffffff1673ffffffffffffffffffffffffffffffffffffffff1614159050919050565b600033905090565b816004600083815260200190815260200160002060006101000a81548173ffffffffffffffffffffffffffffffffffffffff021916908373ffffffffffffffffffffffffffffffffffffffff160217905550808273ffffffffffffffffffffffffffffffffffffffff166111508361092a565b73ffffffffffffffffffffffffffffffffffffffff167f8c5be1e5ebec7d5bd14f71427d1e84f3dd0314c0f7b2291e5b200ac8c7c3b92560405160405180910390a45050565b60006111a182611069565b6111e0576040517f08c379a00000000000000000000000000000000000000000000000000000000081526004016111d790612fbd565b60405180910390fd5b60006111eb8361092a565b90508073ffffffffffffffffffffffffffffffffffffffff168473ffffffffffffffffffffffffffffffffffffffff16148061125a57508373ffffffffffffffffffffffffffffffffffffffff16611242846104c4565b73ffffffffffffffffffffffffffffffffffffffff16145b8061126b575061126a8185610e63565b5b91505092915050565b8273ffffffffffffffffffffffffffffffffffffffff166112948261092a565b73ffffffffffffffffffffffffffffffffffffffff16146112ea576040517f08c379a00000000000000000000000000000000000000000000000000000000081526004016112e19061311d565b60405180910390fd5b600073ffffffffffffffffffffffffffffffffffffffff168273ffffffffffffffffffffffffffffffffffffffff16141561135a576040517f08c379a000000000000000000000000000000000000000000000000000000000815260040161135190612f7d565b60405180910390fd5b611365838383611c61565b6113706000826110dd565b6001600360008573ffffffffffffffffffffffffffffffffffffffff1673ffffffffffffffffffffffffffffffffffffffff16815260200190815260200160002060008282546113c091906133cf565b925050819055506001600360008473ffffffffffffffffffffffffffffffffffffffff1673ffffffffffffffffffffffffffffffffffffffff168152602001908152602001600020600082825461141791906132b7565b92505081905550816002600083815260200190815260200160002060006101000a81548173ffffffffffffffffffffffffffffffffffffffff021916908373ffffffffffffffffffffffffffffffffffffffff160217905550808273ffffffffffffffffffffffffffffffffffffffff168473ffffffffffffffffffffffffffffffffffffffff167fddf252ad1be2c89b69c2b068fc378daa952ba7f163c4a11628f55a4df523b3ef60405160405180910390a4505050565b600081600001549050919050565b600073ffffffffffffffffffffffffffffffffffffffff168273ffffffffffffffffffffffffffffffffffffffff16141561154e576040517f08c379a00000000000000000000000000000000000000000000000000000000081526004016115459061307d565b60405180910390fd5b61155781611069565b15611597576040517f08c379a000000000000000000000000000000000000000000000000000000000815260040161158e90612f5d565b60405180910390fd5b6115a360008383611c61565b6001600360008473ffffffffffffffffffffffffffffffffffffffff1673ffffffffffffffffffffffffffffffffffffffff16815260200190815260200160002060008282546115f391906132b7565b92505081905550816002600083815260200190815260200160002060006101000a81548173ffffffffffffffffffffffffffffffffffffffff021916908373ffffffffffffffffffffffffffffffffffffffff160217905550808273ffffffffffffffffffffffffffffffffffffffff16600073ffffffffffffffffffffffffffffffffffffffff167fddf252ad1be2c89b69c2b068fc378daa952ba7f163c4a11628f55a4df523b3ef60405160405180910390a45050565b606060008214156116f4576040518060400160405280600181526020017f3000000000000000000000000000000000000000000000000000000000000000815250905061187c565b600082905060005b6000821461172657808061170f90613529565b915050600a8261171f9190613344565b91506116fc565b60008167ffffffffffffffff811115611768577f4e487b7100000000000000000000000000000000000000000000000000000000600052604160045260246000fd5b6040519080825280601f01601f19166020018201604052801561179a5781602001600182028036833780820191505090505b50905060008290505b60008614611874576001816117b891906133cf565b90506000600a80886117ca9190613344565b6117d49190613375565b876117df91906133cf565b60306117eb919061330d565b905060008160f81b90508084848151811061182f577f4e487b7100000000000000000000000000000000000000000000000000000000600052603260045260246000fd5b60200101907effffffffffffffffffffffffffffffffffffffffffffffffffffffffffffff1916908160001a905350600a8861186b9190613344565b975050506117a3565b819450505050505b919050565b61188a82611069565b6118c9576040517f08c379a00000000000000000000000000000000000000000000000000000000081526004016118c09061305d565b60405180910390fd5b80600a600084815260200190815260200160002090805190602001906118f0929190612581565b505050565b6001816000016000828254019250508190555050565b6000600b60009054906101000a900473ffffffffffffffffffffffffffffffffffffffff16905081600b60006101000a81548173ffffffffffffffffffffffffffffffffffffffff021916908373ffffffffffffffffffffffffffffffffffffffff1602179055508173ffffffffffffffffffffffffffffffffffffffff168173ffffffffffffffffffffffffffffffffffffffff167f8be0079c531659141344cd1fd0a4f28419497f9722a3daafe3b4186f6b6457e060405160405180910390a35050565b6119dc848484611274565b6119e884848484611c71565b611a27576040517f08c379a0000000000000000000000000000000000000000000000000000000008152600401611a1e90612f1d565b60405180910390fd5b50505050565b6060611a3882611069565b611a77576040517f08c379a0000000000000000000000000000000000000000000000000000000008152600401611a6e9061309d565b60405180910390fd5b6000600a60008481526020019081526020016000208054611a97906134c6565b80601f0160208091040260200160405190810160405280929190818152602001828054611ac3906134c6565b8015611b105780601f10611ae557610100808354040283529160200191611b10565b820191906000526020600020905b815481529060010190602001808311611af357829003601f168201915b505050505090506000611b21611e08565b9050600081511415611b37578192505050611b7a565b600082511115611b6c578082604051602001611b54929190612e11565b60405160208183030381529060405292505050611b7a565b611b7584611e1f565b925050505b919050565b60007f80ac58cd000000000000000000000000000000000000000000000000000000007bffffffffffffffffffffffffffffffffffffffffffffffffffffffff1916827bffffffffffffffffffffffffffffffffffffffffffffffffffffffff19161480611c4a57507f5b5e139f000000000000000000000000000000000000000000000000000000007bffffffffffffffffffffffffffffffffffffffffffffffffffffffff1916827bffffffffffffffffffffffffffffffffffffffffffffffffffffffff1916145b80611c5a5750611c5982611ec6565b5b9050919050565b611c6c838383611f30565b505050565b6000611c928473ffffffffffffffffffffffffffffffffffffffff16612044565b15611dfb578373ffffffffffffffffffffffffffffffffffffffff1663150b7a02611cbb6110d5565b8786866040518563ffffffff1660e01b8152600401611cdd9493929190612e74565b602060405180830381600087803b158015611cf757600080fd5b505af1925050508015611d2857506040513d601f19601f82011682018060405250810190611d25919061292d565b60015b611dab573d8060008114611d58576040519150601f19603f3d011682016040523d82523d6000602084013e611d5d565b606091505b50600081511415611da3576040517f08c379a0000000000000000000000000000000000000000000000000000000008152600401611d9a90612f1d565b60405180910390fd5b805181602001fd5b63150b7a0260e01b7bffffffffffffffffffffffffffffffffffffffffffffffffffffffff1916817bffffffffffffffffffffffffffffffffffffffffffffffffffffffff191614915050611e00565b600190505b949350505050565b606060405180602001604052806000815250905090565b6060611e2a82611069565b611e69576040517f08c379a0000000000000000000000000000000000000000000000000000000008152600401611e609061313d565b60405180910390fd5b6000611e73611e08565b90506000815111611e935760405180602001604052806000815250611ebe565b80611e9d84612057565b604051602001611eae929190612e11565b6040516020818303038152906040525b915050919050565b60007f01ffc9a7000000000000000000000000000000000000000000000000000000007bffffffffffffffffffffffffffffffffffffffffffffffffffffffff1916827bffffffffffffffffffffffffffffffffffffffffffffffffffffffff1916149050919050565b611f3b838383612204565b600073ffffffffffffffffffffffffffffffffffffffff168373ffffffffffffffffffffffffffffffffffffffff161415611f7e57611f7981612209565b611fbd565b8173ffffffffffffffffffffffffffffffffffffffff168373ffffffffffffffffffffffffffffffffffffffff1614611fbc57611fbb8382612252565b5b5b600073ffffffffffffffffffffffffffffffffffffffff168273ffffffffffffffffffffffffffffffffffffffff16141561200057611ffb816123bf565b61203f565b8273ffffffffffffffffffffffffffffffffffffffff168273ffffffffffffffffffffffffffffffffffffffff161461203e5761203d8282612502565b5b5b505050565b600080823b905060008111915050919050565b6060600082141561209f576040518060400160405280600181526020017f300000000000000000000000000000000000000000000000000000000000000081525090506121ff565b600082905060005b600082146120d15780806120ba90613529565b915050600a826120ca9190613344565b91506120a7565b60008167ffffffffffffffff811115612113577f4e487b7100000000000000000000000000000000000000000000000000000000600052604160045260246000fd5b6040519080825280601f01601f1916602001820160405280156121455781602001600182028036833780820191505090505b5090505b600085146121f85760018261215e91906133cf565b9150600a8561216d9190613572565b603061217991906132b7565b60f81b8183815181106121b5577f4e487b7100000000000000000000000000000000000000000000000000000000600052603260045260246000fd5b60200101907effffffffffffffffffffffffffffffffffffffffffffffffffffffffffffff1916908160001a905350600a856121f19190613344565b9450612149565b8093505050505b919050565b505050565b6008805490506009600083815260200190815260200160002081905550600881908060018154018082558091505060019003906000526020600020016000909190919091505550565b6000600161225f846109dc565b61226991906133cf565b905060006007600084815260200190815260200160002054905081811461234e576000600660008673ffffffffffffffffffffffffffffffffffffffff1673ffffffffffffffffffffffffffffffffffffffff168152602001908152602001600020600084815260200190815260200160002054905080600660008773ffffffffffffffffffffffffffffffffffffffff1673ffffffffffffffffffffffffffffffffffffffff168152602001908152602001600020600084815260200190815260200160002081905550816007600083815260200190815260200160002081905550505b6007600084815260200190815260200160002060009055600660008573ffffffffffffffffffffffffffffffffffffffff1673ffffffffffffffffffffffffffffffffffffffff16815260200190815260200160002060008381526020019081526020016000206000905550505050565b600060016008805490506123d391906133cf565b9050600060096000848152602001908152602001600020549050600060088381548110612429577f4e487b7100000000000000000000000000000000000000000000000000000000600052603260045260246000fd5b906000526020600020015490508060088381548110612471577f4e487b7100000000000000000000000000000000000000000000000000000000600052603260045260246000fd5b9060005260206000200181905550816009600083815260200190815260200160002081905550600960008581526020019081526020016000206000905560088054806124e6577f4e487b7100000000000000000000000000000000000000000000000000000000600052603160045260246000fd5b6001900381819060005260206000200160009055905550505050565b600061250d836109dc565b905081600660008573ffffffffffffffffffffffffffffffffffffffff1673ffffffffffffffffffffffffffffffffffffffff168152602001908152602001600020600083815260200190815260200160002081905550806007600084815260200190815260200160002081905550505050565b82805461258d906134c6565b90600052602060002090601f0160209004810192826125af57600085556125f6565b82601f106125c857805160ff19168380011785556125f6565b828001600101855582156125f6579182015b828111156125f55782518255916020019190600101906125da565b5b5090506126039190612607565b5090565b5b80821115612620576000816000905550600101612608565b5090565b6000612637612632846131fd565b6131d8565b90508281526020810184848401111561264f57600080fd5b61265a848285613484565b509392505050565b60006126756126708461322e565b6131d8565b90508281526020810184848401111561268d57600080fd5b612698848285613484565b509392505050565b6000813590506126af81613c7c565b92915050565b6000813590506126c481613c93565b92915050565b6000813590506126d981613caa565b92915050565b6000815190506126ee81613caa565b92915050565b600082601f83011261270557600080fd5b8135612715848260208601612624565b91505092915050565b600082601f83011261272f57600080fd5b813561273f848260208601612662565b91505092915050565b60008135905061275781613cc1565b92915050565b60006020828403121561276f57600080fd5b600061277d848285016126a0565b91505092915050565b6000806040838503121561279957600080fd5b60006127a7858286016126a0565b92505060206127b8858286016126a0565b9150509250929050565b6000806000606084860312156127d757600080fd5b60006127e5868287016126a0565b93505060206127f6868287016126a0565b925050604061280786828701612748565b9150509250925092565b6000806000806080858703121561282757600080fd5b6000612835878288016126a0565b9450506020612846878288016126a0565b935050604061285787828801612748565b925050606085013567ffffffffffffffff81111561287457600080fd5b612880878288016126f4565b91505092959194509250565b6000806040838503121561289f57600080fd5b60006128ad858286016126a0565b92505060206128be858286016126b5565b9150509250929050565b600080604083850312156128db57600080fd5b60006128e9858286016126a0565b92505060206128fa85828601612748565b9150509250929050565b60006020828403121561291657600080fd5b6000612924848285016126ca565b91505092915050565b60006020828403121561293f57600080fd5b600061294d848285016126df565b91505092915050565b60006020828403121561296857600080fd5b600082013567ffffffffffffffff81111561298257600080fd5b61298e8482850161271e565b91505092915050565b6000602082840312156129a957600080fd5b60006129b784828501612748565b91505092915050565b6129c981613403565b82525050565b6129d881613415565b82525050565b60006129e982613274565b6129f3818561328a565b9350612a03818560208601613493565b612a0c8161365f565b840191505092915050565b6000612a228261327f565b612a2c818561329b565b9350612a3c818560208601613493565b612a458161365f565b840191505092915050565b6000612a5b8261327f565b612a6581856132ac565b9350612a75818560208601613493565b80840191505092915050565b60008154612a8e816134c6565b612a9881866132ac565b94506001821660008114612ab35760018114612ac457612af7565b60ff19831686528186019350612af7565b612acd8561325f565b60005b83811015612aef57815481890152600182019150602081019050612ad0565b838801955050505b50505092915050565b6000612b0d602b8361329b565b9150612b1882613670565b604082019050919050565b6000612b3060328361329b565b9150612b3b826136bf565b604082019050919050565b6000612b5360268361329b565b9150612b5e8261370e565b604082019050919050565b6000612b76601c8361329b565b9150612b818261375d565b602082019050919050565b6000612b9960248361329b565b9150612ba482613786565b604082019050919050565b6000612bbc60198361329b565b9150612bc7826137d5565b602082019050919050565b6000612bdf602c8361329b565b9150612bea826137fe565b604082019050919050565b6000612c0260268361329b565b9150612c0d8261384d565b604082019050919050565b6000612c2560388361329b565b9150612c308261389c565b604082019050919050565b6000612c48602a8361329b565b9150612c53826138eb565b604082019050919050565b6000612c6b60298361329b565b9150612c768261393a565b604082019050919050565b6000612c8e602e8361329b565b9150612c9982613989565b604082019050919050565b6000612cb160208361329b565b9150612cbc826139d8565b602082019050919050565b6000612cd460318361329b565b9150612cdf82613a01565b604082019050919050565b6000612cf7602c8361329b565b9150612d0282613a50565b604082019050919050565b6000612d1a601e8361329b565b9150612d2582613a9f565b602082019050919050565b6000612d3d60208361329b565b9150612d4882613ac8565b602082019050919050565b6000612d6060298361329b565b9150612d6b82613af1565b604082019050919050565b6000612d83602f8361329b565b9150612d8e82613b40565b604082019050919050565b6000612da660218361329b565b9150612db182613b8f565b604082019050919050565b6000612dc960318361329b565b9150612dd482613bde565b604082019050919050565b6000612dec602c8361329b565b9150612df782613c2d565b604082019050919050565b612e0b8161346d565b82525050565b6000612e1d8285612a50565b9150612e298284612a50565b91508190509392505050565b6000612e418285612a81565b9150612e4d8284612a50565b91508190509392505050565b6000602082019050612e6e60008301846129c0565b92915050565b6000608082019050612e8960008301876129c0565b612e9660208301866129c0565b612ea36040830185612e02565b8181036060830152612eb581846129de565b905095945050505050565b6000602082019050612ed560008301846129cf565b92915050565b60006020820190508181036000830152612ef58184612a17565b905092915050565b60006020820190508181036000830152612f1681612b00565b9050919050565b60006020820190508181036000830152612f3681612b23565b9050919050565b60006020820190508181036000830152612f5681612b46565b9050919050565b60006020820190508181036000830152612f7681612b69565b9050919050565b60006020820190508181036000830152612f9681612b8c565b9050919050565b60006020820190508181036000830152612fb681612baf565b9050919050565b60006020820190508181036000830152612fd681612bd2565b9050919050565b60006020820190508181036000830152612ff681612bf5565b9050919050565b6000602082019050818103600083015261301681612c18565b9050919050565b6000602082019050818103600083015261303681612c3b565b9050919050565b6000602082019050818103600083015261305681612c5e565b9050919050565b6000602082019050818103600083015261307681612c81565b9050919050565b6000602082019050818103600083015261309681612ca4565b9050919050565b600060208201905081810360008301526130b681612cc7565b9050919050565b600060208201905081810360008301526130d681612cea565b9050919050565b600060208201905081810360008301526130f681612d0d565b9050919050565b6000602082019050818103600083015261311681612d30565b9050919050565b6000602082019050818103600083015261313681612d53565b9050919050565b6000602082019050818103600083015261315681612d76565b9050919050565b6000602082019050818103600083015261317681612d99565b9050919050565b6000602082019050818103600083015261319681612dbc565b9050919050565b600060208201905081810360008301526131b681612ddf565b9050919050565b60006020820190506131d26000830184612e02565b92915050565b60006131e26131f3565b90506131ee82826134f8565b919050565b6000604051905090565b600067ffffffffffffffff82111561321857613217613630565b5b6132218261365f565b9050602081019050919050565b600067ffffffffffffffff82111561324957613248613630565b5b6132528261365f565b9050602081019050919050565b60008190508160005260206000209050919050565b600081519050919050565b600081519050919050565b600082825260208201905092915050565b600082825260208201905092915050565b600081905092915050565b60006132c28261346d565b91506132cd8361346d565b9250827fffffffffffffffffffffffffffffffffffffffffffffffffffffffffffffffff03821115613302576133016135a3565b5b828201905092915050565b600061331882613477565b915061332383613477565b92508260ff03821115613339576133386135a3565b5b828201905092915050565b600061334f8261346d565b915061335a8361346d565b92508261336a576133696135d2565b5b828204905092915050565b60006133808261346d565b915061338b8361346d565b9250817fffffffffffffffffffffffffffffffffffffffffffffffffffffffffffffffff04831182151516156133c4576133c36135a3565b5b828202905092915050565b60006133da8261346d565b91506133e58361346d565b9250828210156133f8576133f76135a3565b5b828203905092915050565b600061340e8261344d565b9050919050565b60008115159050919050565b60007fffffffff0000000000000000000000000000000000000000000000000000000082169050919050565b600073ffffffffffffffffffffffffffffffffffffffff82169050919050565b6000819050919050565b600060ff82169050919050565b82818337600083830152505050565b60005b838110156134b1578082015181840152602081019050613496565b838111156134c0576000848401525b50505050565b600060028204905060018216806134de57607f821691505b602082108114156134f2576134f1613601565b5b50919050565b6135018261365f565b810181811067ffffffffffffffff821117156135205761351f613630565b5b80604052505050565b60006135348261346d565b91507fffffffffffffffffffffffffffffffffffffffffffffffffffffffffffffffff821415613567576135666135a3565b5b600182019050919050565b600061357d8261346d565b91506135888361346d565b925082613598576135976135d2565b5b828206905092915050565b7f4e487b7100000000000000000000000000000000000000000000000000000000600052601160045260246000fd5b7f4e487b7100000000000000000000000000000000000000000000000000000000600052601260045260246000fd5b7f4e487b7100000000000000000000000000000000000000000000000000000000600052602260045260246000fd5b7f4e487b7100000000000000000000000000000000000000000000000000000000600052604160045260246000fd5b6000601f19601f8301169050919050565b7f455243373231456e756d657261626c653a206f776e657220696e646578206f7560008201527f74206f6620626f756e6473000000000000000000000000000000000000000000602082015250565b7f4552433732313a207472616e7366657220746f206e6f6e20455243373231526560008201527f63656976657220696d706c656d656e7465720000000000000000000000000000602082015250565b7f4f776e61626c653a206e6577206f776e657220697320746865207a65726f206160008201527f6464726573730000000000000000000000000000000000000000000000000000602082015250565b7f4552433732313a20746f6b656e20616c7265616479206d696e74656400000000600082015250565b7f4552433732313a207472616e7366657220746f20746865207a65726f2061646460008201527f7265737300000000000000000000000000000000000000000000000000000000602082015250565b7f4552433732313a20617070726f766520746f2063616c6c657200000000000000600082015250565b7f4552433732313a206f70657261746f7220717565727920666f72206e6f6e657860008201527f697374656e7420746f6b656e0000000000000000000000000000000000000000602082015250565b7f416c6c2074686520426c6f6f64792046616365732068617665206265656e206d60008201527f696e7465642e0000000000000000000000000000000000000000000000000000602082015250565b7f4552433732313a20617070726f76652063616c6c6572206973206e6f74206f7760008201527f6e6572206e6f7220617070726f76656420666f7220616c6c0000000000000000602082015250565b7f4552433732313a2062616c616e636520717565727920666f7220746865207a6560008201527f726f206164647265737300000000000000000000000000000000000000000000602082015250565b7f4552433732313a206f776e657220717565727920666f72206e6f6e657869737460008201527f656e7420746f6b656e0000000000000000000000000000000000000000000000602082015250565b7f45524337323155524953746f726167653a2055524920736574206f66206e6f6e60008201527f6578697374656e7420746f6b656e000000000000000000000000000000000000602082015250565b7f4552433732313a206d696e7420746f20746865207a65726f2061646472657373600082015250565b7f45524337323155524953746f726167653a2055524920717565727920666f722060008201527f6e6f6e6578697374656e7420746f6b656e000000000000000000000000000000602082015250565b7f4552433732313a20617070726f76656420717565727920666f72206e6f6e657860008201527f697374656e7420746f6b656e0000000000000000000000000000000000000000602082015250565b7f596f7520616c7265616479206f776e206120426c6f6f647920466163652e0000600082015250565b7f4f776e61626c653a2063616c6c6572206973206e6f7420746865206f776e6572600082015250565b7f4552433732313a207472616e73666572206f6620746f6b656e2074686174206960008201527f73206e6f74206f776e0000000000000000000000000000000000000000000000602082015250565b7f4552433732314d657461646174613a2055524920717565727920666f72206e6f60008201527f6e6578697374656e7420746f6b656e0000000000000000000000000000000000602082015250565b7f4552433732313a20617070726f76616c20746f2063757272656e74206f776e6560008201527f7200000000000000000000000000000000000000000000000000000000000000602082015250565b7f4552433732313a207472616e736665722063616c6c6572206973206e6f74206f60008201527f776e6572206e6f7220617070726f766564000000000000000000000000000000602082015250565b7f455243373231456e756d657261626c653a20676c6f62616c20696e646578206f60008201527f7574206f6620626f756e64730000000000000000000000000000000000000000602082015250565b613c8581613403565b8114613c9057600080fd5b50565b613c9c81613415565b8114613ca757600080fd5b50565b613cb381613421565b8114613cbe57600080fd5b50565b613cca8161346d565b8114613cd557600080fd5b5056fea2646970667358221220aace9a8979502e38a6f08cfd9bae2e4a758d304f688db9f1b230876b1ca21e4a64736f6c63430008030033",
  "immutableReferences": {},
  "source": "// SPDX-License-Identifier: MIT\npragma solidity ^0.8.3;\n\nimport \"@openzeppelin/contracts/token/ERC721/ERC721.sol\";\nimport \"@openzeppelin/contracts/token/ERC721/extensions/ERC721Enumerable.sol\";\nimport \"@openzeppelin/contracts/token/ERC721/extensions/ERC721URIStorage.sol\";\nimport \"@openzeppelin/contracts/access/Ownable.sol\";\nimport \"@openzeppelin/contracts/utils/Counters.sol\";\n\ncontract BloodyFace is ERC721, ERC721Enumerable, ERC721URIStorage, Ownable {\n  using Counters for Counters.Counter;\n\n  Counters.Counter private _tokenIdCounter;\n\n  uint256 private _totalSupply = 10;\n\n  string private _apiUrl = \"https://bloodyfaces.io/api/nft/\";\n\n  constructor() ERC721(\"BloodyFace\", \"BLDFC\") {}\n\n  function mintBloodyFace() public returns (uint256) {\n    require(_tokenIdCounter.current() < _totalSupply, \"All the Bloody Faces have been minted.\");\n    require(balanceOf(msg.sender) < 3, \"You already own a Bloody Face.\");\n\n    uint256 newNftId = _tokenIdCounter.current();\n\n    _mint(msg.sender, newNftId);\n    _setTokenURI(newNftId, string(abi.encodePacked(_apiUrl, _uint2str(_tokenIdCounter.current()))));\n\n    _tokenIdCounter.increment();\n\n    return newNftId;\n  }\n\n  function setApiUrl(string memory newUrl) public onlyOwner {\n    _apiUrl = newUrl;\n  }\n\n  /*function getApiUrl() public view returns (string) {\n    return (_apiUrl);\n  }*/\n\n  function _uint2str(uint _i) internal pure returns (string memory _uintAsString) {\n    if (_i == 0) {\n      return \"0\";\n    }\n    uint j = _i;\n    uint len;\n    while (j != 0) {\n      len++;\n      j /= 10;\n    }\n    bytes memory bstr = new bytes(len);\n    uint k = len;\n    while (_i != 0) {\n      k = k-1;\n      uint8 temp = (48 + uint8(_i - _i / 10 * 10));\n      bytes1 b1 = bytes1(temp);\n      bstr[k] = b1;\n      _i /= 10;\n    }\n    return string(bstr);\n  }\n\n  // The following functions are overrides required by Solidity.\n  // This is generated by OpenZeppelin.\n\n  function _beforeTokenTransfer(address from, address to, uint256 tokenId)\n    internal\n    override(ERC721, ERC721Enumerable)\n  {\n    super._beforeTokenTransfer(from, to, tokenId);\n  }\n\n  function _burn(uint256 tokenId) internal override(ERC721, ERC721URIStorage) {\n    super._burn(tokenId);\n  }\n\n  function tokenURI(uint256 tokenId)\n    public\n    view\n    override(ERC721, ERC721URIStorage)\n    returns (string memory)\n  {\n    return super.tokenURI(tokenId);\n  }\n\n  function supportsInterface(bytes4 interfaceId)\n    public\n    view\n    override(ERC721, ERC721Enumerable)\n    returns (bool)\n  {\n    return super.supportsInterface(interfaceId);\n  }\n}\n",
  "sourcePath": "/Users/valcoh/Work/FightCoin/BloodyFaces/bloodyfaces-contract/contracts/BloodyFaceFactory.sol",
  "compiler": {
    "name": "solc",
    "version": "0.8.3+commit.8d00100c.Emscripten.clang"
  },
  "schemaVersion": "3.4.3",
  "updatedAt": "2021-09-26T01:20:54.642Z",
  "networkType": "ethereum",
  "devdoc": {
    "kind": "dev",
    "methods": {
      "approve(address,uint256)": {
        "details": "See {IERC721-approve}."
      },
      "balanceOf(address)": {
        "details": "See {IERC721-balanceOf}."
      },
      "getApproved(uint256)": {
        "details": "See {IERC721-getApproved}."
      },
      "isApprovedForAll(address,address)": {
        "details": "See {IERC721-isApprovedForAll}."
      },
      "name()": {
        "details": "See {IERC721Metadata-name}."
      },
      "owner()": {
        "details": "Returns the address of the current owner."
      },
      "ownerOf(uint256)": {
        "details": "See {IERC721-ownerOf}."
      },
      "renounceOwnership()": {
        "details": "Leaves the contract without owner. It will not be possible to call `onlyOwner` functions anymore. Can only be called by the current owner. NOTE: Renouncing ownership will leave the contract without an owner, thereby removing any functionality that is only available to the owner."
      },
      "safeTransferFrom(address,address,uint256)": {
        "details": "See {IERC721-safeTransferFrom}."
      },
      "safeTransferFrom(address,address,uint256,bytes)": {
        "details": "See {IERC721-safeTransferFrom}."
      },
      "setApprovalForAll(address,bool)": {
        "details": "See {IERC721-setApprovalForAll}."
      },
      "symbol()": {
        "details": "See {IERC721Metadata-symbol}."
      },
      "tokenByIndex(uint256)": {
        "details": "See {IERC721Enumerable-tokenByIndex}."
      },
      "tokenOfOwnerByIndex(address,uint256)": {
        "details": "See {IERC721Enumerable-tokenOfOwnerByIndex}."
      },
      "totalSupply()": {
        "details": "See {IERC721Enumerable-totalSupply}."
      },
      "transferFrom(address,address,uint256)": {
        "details": "See {IERC721-transferFrom}."
      },
      "transferOwnership(address)": {
        "details": "Transfers ownership of the contract to a new account (`newOwner`). Can only be called by the current owner."
      }
    },
    "version": 1
  },
  "userdoc": {
    "kind": "user",
    "methods": {},
    "version": 1
  }
}