{
  "contractName": "BloodyFace",
  "abi": [
    {
      "inputs": [],
      "stateMutability": "nonpayable",
      "type": "constructor"
    },
    {
      "anonymous": false,
      "inputs": [
        {
          "indexed": true,
          "internalType": "address",
          "name": "owner",
          "type": "address"
        },
        {
          "indexed": true,
          "internalType": "address",
          "name": "approved",
          "type": "address"
        },
        {
          "indexed": true,
          "internalType": "uint256",
          "name": "tokenId",
          "type": "uint256"
        }
      ],
      "name": "Approval",
      "type": "event"
    },
    {
      "anonymous": false,
      "inputs": [
        {
          "indexed": true,
          "internalType": "address",
          "name": "owner",
          "type": "address"
        },
        {
          "indexed": true,
          "internalType": "address",
          "name": "operator",
          "type": "address"
        },
        {
          "indexed": false,
          "internalType": "bool",
          "name": "approved",
          "type": "bool"
        }
      ],
      "name": "ApprovalForAll",
      "type": "event"
    },
    {
      "anonymous": false,
      "inputs": [
        {
          "indexed": true,
          "internalType": "address",
          "name": "previousOwner",
          "type": "address"
        },
        {
          "indexed": true,
          "internalType": "address",
          "name": "newOwner",
          "type": "address"
        }
      ],
      "name": "OwnershipTransferred",
      "type": "event"
    },
    {
      "anonymous": false,
      "inputs": [
        {
          "indexed": true,
          "internalType": "address",
          "name": "from",
          "type": "address"
        },
        {
          "indexed": true,
          "internalType": "address",
          "name": "to",
          "type": "address"
        },
        {
          "indexed": true,
          "internalType": "uint256",
          "name": "tokenId",
          "type": "uint256"
        }
      ],
      "name": "Transfer",
      "type": "event"
    },
    {
      "inputs": [
        {
          "internalType": "address",
          "name": "to",
          "type": "address"
        },
        {
          "internalType": "uint256",
          "name": "tokenId",
          "type": "uint256"
        }
      ],
      "name": "approve",
      "outputs": [],
      "stateMutability": "nonpayable",
      "type": "function"
    },
    {
      "inputs": [
        {
          "internalType": "address",
          "name": "owner",
          "type": "address"
        }
      ],
      "name": "balanceOf",
      "outputs": [
        {
          "internalType": "uint256",
          "name": "",
          "type": "uint256"
        }
      ],
      "stateMutability": "view",
      "type": "function"
    },
    {
      "inputs": [
        {
          "internalType": "uint256",
          "name": "tokenId",
          "type": "uint256"
        }
      ],
      "name": "getApproved",
      "outputs": [
        {
          "internalType": "address",
          "name": "",
          "type": "address"
        }
      ],
      "stateMutability": "view",
      "type": "function"
    },
    {
      "inputs": [
        {
          "internalType": "address",
          "name": "owner",
          "type": "address"
        },
        {
          "internalType": "address",
          "name": "operator",
          "type": "address"
        }
      ],
      "name": "isApprovedForAll",
      "outputs": [
        {
          "internalType": "bool",
          "name": "",
          "type": "bool"
        }
      ],
      "stateMutability": "view",
      "type": "function"
    },
    {
      "inputs": [],
      "name": "name",
      "outputs": [
        {
          "internalType": "string",
          "name": "",
          "type": "string"
        }
      ],
      "stateMutability": "view",
      "type": "function"
    },
    {
      "inputs": [],
      "name": "owner",
      "outputs": [
        {
          "internalType": "address",
          "name": "",
          "type": "address"
        }
      ],
      "stateMutability": "view",
      "type": "function"
    },
    {
      "inputs": [
        {
          "internalType": "uint256",
          "name": "tokenId",
          "type": "uint256"
        }
      ],
      "name": "ownerOf",
      "outputs": [
        {
          "internalType": "address",
          "name": "",
          "type": "address"
        }
      ],
      "stateMutability": "view",
      "type": "function"
    },
    {
      "inputs": [],
      "name": "renounceOwnership",
      "outputs": [],
      "stateMutability": "nonpayable",
      "type": "function"
    },
    {
      "inputs": [
        {
          "internalType": "address",
          "name": "from",
          "type": "address"
        },
        {
          "internalType": "address",
          "name": "to",
          "type": "address"
        },
        {
          "internalType": "uint256",
          "name": "tokenId",
          "type": "uint256"
        }
      ],
      "name": "safeTransferFrom",
      "outputs": [],
      "stateMutability": "nonpayable",
      "type": "function"
    },
    {
      "inputs": [
        {
          "internalType": "address",
          "name": "from",
          "type": "address"
        },
        {
          "internalType": "address",
          "name": "to",
          "type": "address"
        },
        {
          "internalType": "uint256",
          "name": "tokenId",
          "type": "uint256"
        },
        {
          "internalType": "bytes",
          "name": "_data",
          "type": "bytes"
        }
      ],
      "name": "safeTransferFrom",
      "outputs": [],
      "stateMutability": "nonpayable",
      "type": "function"
    },
    {
      "inputs": [
        {
          "internalType": "address",
          "name": "operator",
          "type": "address"
        },
        {
          "internalType": "bool",
          "name": "approved",
          "type": "bool"
        }
      ],
      "name": "setApprovalForAll",
      "outputs": [],
      "stateMutability": "nonpayable",
      "type": "function"
    },
    {
      "inputs": [],
      "name": "symbol",
      "outputs": [
        {
          "internalType": "string",
          "name": "",
          "type": "string"
        }
      ],
      "stateMutability": "view",
      "type": "function"
    },
    {
      "inputs": [
        {
          "internalType": "uint256",
          "name": "index",
          "type": "uint256"
        }
      ],
      "name": "tokenByIndex",
      "outputs": [
        {
          "internalType": "uint256",
          "name": "",
          "type": "uint256"
        }
      ],
      "stateMutability": "view",
      "type": "function"
    },
    {
      "inputs": [
        {
          "internalType": "address",
          "name": "owner",
          "type": "address"
        },
        {
          "internalType": "uint256",
          "name": "index",
          "type": "uint256"
        }
      ],
      "name": "tokenOfOwnerByIndex",
      "outputs": [
        {
          "internalType": "uint256",
          "name": "",
          "type": "uint256"
        }
      ],
      "stateMutability": "view",
      "type": "function"
    },
    {
      "inputs": [],
      "name": "totalSupply",
      "outputs": [
        {
          "internalType": "uint256",
          "name": "",
          "type": "uint256"
        }
      ],
      "stateMutability": "view",
      "type": "function"
    },
    {
      "inputs": [
        {
          "internalType": "address",
          "name": "from",
          "type": "address"
        },
        {
          "internalType": "address",
          "name": "to",
          "type": "address"
        },
        {
          "internalType": "uint256",
          "name": "tokenId",
          "type": "uint256"
        }
      ],
      "name": "transferFrom",
      "outputs": [],
      "stateMutability": "nonpayable",
      "type": "function"
    },
    {
      "inputs": [
        {
          "internalType": "address",
          "name": "newOwner",
          "type": "address"
        }
      ],
      "name": "transferOwnership",
      "outputs": [],
      "stateMutability": "nonpayable",
      "type": "function"
    },
    {
      "inputs": [],
      "name": "mintBloodyFace",
      "outputs": [
        {
          "internalType": "uint256",
          "name": "",
          "type": "uint256"
        }
      ],
      "stateMutability": "nonpayable",
      "type": "function"
    },
    {
      "inputs": [
        {
          "internalType": "uint256",
          "name": "tokenId",
          "type": "uint256"
        }
      ],
      "name": "tokenURI",
      "outputs": [
        {
          "internalType": "string",
          "name": "",
          "type": "string"
        }
      ],
      "stateMutability": "view",
      "type": "function"
    },
    {
      "inputs": [
        {
          "internalType": "bytes4",
          "name": "interfaceId",
          "type": "bytes4"
        }
      ],
      "name": "supportsInterface",
      "outputs": [
        {
          "internalType": "bool",
          "name": "",
          "type": "bool"
        }
      ],
      "stateMutability": "view",
      "type": "function"
    }
  ],
  "bytecode": "0x60806040526002600d553480156200001657600080fd5b506040518060400160405280600a81526020017f426c6f6f647946616365000000000000000000000000000000000000000000008152506040518060400160405280600581526020017f424c44464300000000000000000000000000000000000000000000000000000081525081600090805190602001906200009b929190620001ab565b508060019080519060200190620000b4929190620001ab565b505050620000d7620000cb620000dd60201b60201c565b620000e560201b60201c565b620002c0565b600033905090565b6000600b60009054906101000a900473ffffffffffffffffffffffffffffffffffffffff16905081600b60006101000a81548173ffffffffffffffffffffffffffffffffffffffff021916908373ffffffffffffffffffffffffffffffffffffffff1602179055508173ffffffffffffffffffffffffffffffffffffffff168173ffffffffffffffffffffffffffffffffffffffff167f8be0079c531659141344cd1fd0a4f28419497f9722a3daafe3b4186f6b6457e060405160405180910390a35050565b828054620001b9906200025b565b90600052602060002090601f016020900481019282620001dd576000855562000229565b82601f10620001f857805160ff191683800117855562000229565b8280016001018555821562000229579182015b82811115620002285782518255916020019190600101906200020b565b5b5090506200023891906200023c565b5090565b5b80821115620002575760008160009055506001016200023d565b5090565b600060028204905060018216806200027457607f821691505b602082108114156200028b576200028a62000291565b5b50919050565b7f4e487b7100000000000000000000000000000000000000000000000000000000600052602260045260246000fd5b61385480620002d06000396000f3fe608060405234801561001057600080fd5b506004361061012c5760003560e01c80636352211e116100ad578063a22cb46511610071578063a22cb46514610345578063b88d4fde14610361578063c87b56dd1461037d578063e985e9c5146103ad578063f2fde38b146103dd5761012c565b80636352211e1461029f57806370a08231146102cf578063715018a6146102ff5780638da5cb5b1461030957806395d89b41146103275761012c565b806323b872dd116100f457806323b872dd146101e95780632f745c591461020557806342842e0e146102355780634bef3c6a146102515780634f6ccce71461026f5761012c565b806301ffc9a71461013157806306fdde0314610161578063081812fc1461017f578063095ea7b3146101af57806318160ddd146101cb575b600080fd5b61014b60048036038101906101469190612612565b6103f9565b6040516101589190612aea565b60405180910390f35b61016961040b565b6040516101769190612b05565b60405180910390f35b61019960048036038101906101949190612664565b61049d565b6040516101a69190612a83565b60405180910390f35b6101c960048036038101906101c491906125d6565b610522565b005b6101d361063a565b6040516101e09190612de7565b60405180910390f35b61020360048036038101906101fe91906124d0565b610647565b005b61021f600480360381019061021a91906125d6565b6106a7565b60405161022c9190612de7565b60405180910390f35b61024f600480360381019061024a91906124d0565b61074c565b005b61025961076c565b6040516102669190612de7565b60405180910390f35b61028960048036038101906102849190612664565b610874565b6040516102969190612de7565b60405180910390f35b6102b960048036038101906102b49190612664565b61090b565b6040516102c69190612a83565b60405180910390f35b6102e960048036038101906102e4919061246b565b6109bd565b6040516102f69190612de7565b60405180910390f35b610307610a75565b005b610311610afd565b60405161031e9190612a83565b60405180910390f35b61032f610b27565b60405161033c9190612b05565b60405180910390f35b61035f600480360381019061035a919061259a565b610bb9565b005b61037b6004803603810190610376919061251f565b610d3a565b005b61039760048036038101906103929190612664565b610d9c565b6040516103a49190612b05565b60405180910390f35b6103c760048036038101906103c29190612494565b610dae565b6040516103d49190612aea565b60405180910390f35b6103f760048036038101906103f2919061246b565b610e42565b005b600061040482610f3a565b9050919050565b60606000805461041a9061300c565b80601f01602080910402602001604051908101604052809291908181526020018280546104469061300c565b80156104935780601f1061046857610100808354040283529160200191610493565b820191906000526020600020905b81548152906001019060200180831161047657829003601f168201915b5050505050905090565b60006104a882610fb4565b6104e7576040517f08c379a00000000000000000000000000000000000000000000000000000000081526004016104de90612ce7565b60405180910390fd5b6004600083815260200190815260200160002060009054906101000a900473ffffffffffffffffffffffffffffffffffffffff169050919050565b600061052d8261090b565b90508073ffffffffffffffffffffffffffffffffffffffff168373ffffffffffffffffffffffffffffffffffffffff16141561059e576040517f08c379a000000000000000000000000000000000000000000000000000000000815260040161059590612d87565b60405180910390fd5b8073ffffffffffffffffffffffffffffffffffffffff166105bd611020565b73ffffffffffffffffffffffffffffffffffffffff1614806105ec57506105eb816105e6611020565b610dae565b5b61062b576040517f08c379a000000000000000000000000000000000000000000000000000000000815260040161062290612c27565b60405180910390fd5b6106358383611028565b505050565b6000600880549050905090565b610658610652611020565b826110e1565b610697576040517f08c379a000000000000000000000000000000000000000000000000000000000815260040161068e90612da7565b60405180910390fd5b6106a28383836111bf565b505050565b60006106b2836109bd565b82106106f3576040517f08c379a00000000000000000000000000000000000000000000000000000000081526004016106ea90612b27565b60405180910390fd5b600660008473ffffffffffffffffffffffffffffffffffffffff1673ffffffffffffffffffffffffffffffffffffffff168152602001908152602001600020600083815260200190815260200160002054905092915050565b61076783838360405180602001604052806000815250610d3a565b505050565b6000600d5461077b600c61141b565b106107bb576040517f08c379a00000000000000000000000000000000000000000000000000000000081526004016107b290612c07565b60405180910390fd5b60016107c6336109bd565b10610806576040517f08c379a00000000000000000000000000000000000000000000000000000000081526004016107fd90612d07565b60405180910390fd5b610810600c611429565b600061081c600c61141b565b905060006040518060400160405280600181526020017f23000000000000000000000000000000000000000000000000000000000000008152509050610862338361143f565b61086c828261160d565b819250505090565b600061087e61063a565b82106108bf576040517f08c379a00000000000000000000000000000000000000000000000000000000081526004016108b690612dc7565b60405180910390fd5b600882815481106108f9577f4e487b7100000000000000000000000000000000000000000000000000000000600052603260045260246000fd5b90600052602060002001549050919050565b6000806002600084815260200190815260200160002060009054906101000a900473ffffffffffffffffffffffffffffffffffffffff169050600073ffffffffffffffffffffffffffffffffffffffff168173ffffffffffffffffffffffffffffffffffffffff1614156109b4576040517f08c379a00000000000000000000000000000000000000000000000000000000081526004016109ab90612c67565b60405180910390fd5b80915050919050565b60008073ffffffffffffffffffffffffffffffffffffffff168273ffffffffffffffffffffffffffffffffffffffff161415610a2e576040517f08c379a0000000000000000000000000000000000000000000000000000000008152600401610a2590612c47565b60405180910390fd5b600360008373ffffffffffffffffffffffffffffffffffffffff1673ffffffffffffffffffffffffffffffffffffffff168152602001908152602001600020549050919050565b610a7d611020565b73ffffffffffffffffffffffffffffffffffffffff16610a9b610afd565b73ffffffffffffffffffffffffffffffffffffffff1614610af1576040517f08c379a0000000000000000000000000000000000000000000000000000000008152600401610ae890612d27565b60405180910390fd5b610afb6000611681565b565b6000600b60009054906101000a900473ffffffffffffffffffffffffffffffffffffffff16905090565b606060018054610b369061300c565b80601f0160208091040260200160405190810160405280929190818152602001828054610b629061300c565b8015610baf5780601f10610b8457610100808354040283529160200191610baf565b820191906000526020600020905b815481529060010190602001808311610b9257829003601f168201915b5050505050905090565b610bc1611020565b73ffffffffffffffffffffffffffffffffffffffff168273ffffffffffffffffffffffffffffffffffffffff161415610c2f576040517f08c379a0000000000000000000000000000000000000000000000000000000008152600401610c2690612bc7565b60405180910390fd5b8060056000610c3c611020565b73ffffffffffffffffffffffffffffffffffffffff1673ffffffffffffffffffffffffffffffffffffffff16815260200190815260200160002060008473ffffffffffffffffffffffffffffffffffffffff1673ffffffffffffffffffffffffffffffffffffffff16815260200190815260200160002060006101000a81548160ff0219169083151502179055508173ffffffffffffffffffffffffffffffffffffffff16610ce9611020565b73ffffffffffffffffffffffffffffffffffffffff167f17307eab39ab6107e8899845ad3d59bd9653f200f220920489ca2b5937696c3183604051610d2e9190612aea565b60405180910390a35050565b610d4b610d45611020565b836110e1565b610d8a576040517f08c379a0000000000000000000000000000000000000000000000000000000008152600401610d8190612da7565b60405180910390fd5b610d9684848484611747565b50505050565b6060610da7826117a3565b9050919050565b6000600560008473ffffffffffffffffffffffffffffffffffffffff1673ffffffffffffffffffffffffffffffffffffffff16815260200190815260200160002060008373ffffffffffffffffffffffffffffffffffffffff1673ffffffffffffffffffffffffffffffffffffffff16815260200190815260200160002060009054906101000a900460ff16905092915050565b610e4a611020565b73ffffffffffffffffffffffffffffffffffffffff16610e68610afd565b73ffffffffffffffffffffffffffffffffffffffff1614610ebe576040517f08c379a0000000000000000000000000000000000000000000000000000000008152600401610eb590612d27565b60405180910390fd5b600073ffffffffffffffffffffffffffffffffffffffff168173ffffffffffffffffffffffffffffffffffffffff161415610f2e576040517f08c379a0000000000000000000000000000000000000000000000000000000008152600401610f2590612b67565b60405180910390fd5b610f3781611681565b50565b60007f780e9d63000000000000000000000000000000000000000000000000000000007bffffffffffffffffffffffffffffffffffffffffffffffffffffffff1916827bffffffffffffffffffffffffffffffffffffffffffffffffffffffff19161480610fad5750610fac826118f5565b5b9050919050565b60008073ffffffffffffffffffffffffffffffffffffffff166002600084815260200190815260200160002060009054906101000a900473ffffffffffffffffffffffffffffffffffffffff1673ffffffffffffffffffffffffffffffffffffffff1614159050919050565b600033905090565b816004600083815260200190815260200160002060006101000a81548173ffffffffffffffffffffffffffffffffffffffff021916908373ffffffffffffffffffffffffffffffffffffffff160217905550808273ffffffffffffffffffffffffffffffffffffffff1661109b8361090b565b73ffffffffffffffffffffffffffffffffffffffff167f8c5be1e5ebec7d5bd14f71427d1e84f3dd0314c0f7b2291e5b200ac8c7c3b92560405160405180910390a45050565b60006110ec82610fb4565b61112b576040517f08c379a000000000000000000000000000000000000000000000000000000000815260040161112290612be7565b60405180910390fd5b60006111368361090b565b90508073ffffffffffffffffffffffffffffffffffffffff168473ffffffffffffffffffffffffffffffffffffffff1614806111a557508373ffffffffffffffffffffffffffffffffffffffff1661118d8461049d565b73ffffffffffffffffffffffffffffffffffffffff16145b806111b657506111b58185610dae565b5b91505092915050565b8273ffffffffffffffffffffffffffffffffffffffff166111df8261090b565b73ffffffffffffffffffffffffffffffffffffffff1614611235576040517f08c379a000000000000000000000000000000000000000000000000000000000815260040161122c90612d47565b60405180910390fd5b600073ffffffffffffffffffffffffffffffffffffffff168273ffffffffffffffffffffffffffffffffffffffff1614156112a5576040517f08c379a000000000000000000000000000000000000000000000000000000000815260040161129c90612ba7565b60405180910390fd5b6112b08383836119d7565b6112bb600082611028565b6001600360008573ffffffffffffffffffffffffffffffffffffffff1673ffffffffffffffffffffffffffffffffffffffff168152602001908152602001600020600082825461130b9190612f22565b925050819055506001600360008473ffffffffffffffffffffffffffffffffffffffff1673ffffffffffffffffffffffffffffffffffffffff16815260200190815260200160002060008282546113629190612e9b565b92505081905550816002600083815260200190815260200160002060006101000a81548173ffffffffffffffffffffffffffffffffffffffff021916908373ffffffffffffffffffffffffffffffffffffffff160217905550808273ffffffffffffffffffffffffffffffffffffffff168473ffffffffffffffffffffffffffffffffffffffff167fddf252ad1be2c89b69c2b068fc378daa952ba7f163c4a11628f55a4df523b3ef60405160405180910390a4505050565b600081600001549050919050565b6001816000016000828254019250508190555050565b600073ffffffffffffffffffffffffffffffffffffffff168273ffffffffffffffffffffffffffffffffffffffff1614156114af576040517f08c379a00000000000000000000000000000000000000000000000000000000081526004016114a690612ca7565b60405180910390fd5b6114b881610fb4565b156114f8576040517f08c379a00000000000000000000000000000000000000000000000000000000081526004016114ef90612b87565b60405180910390fd5b611504600083836119d7565b6001600360008473ffffffffffffffffffffffffffffffffffffffff1673ffffffffffffffffffffffffffffffffffffffff16815260200190815260200160002060008282546115549190612e9b565b92505081905550816002600083815260200190815260200160002060006101000a81548173ffffffffffffffffffffffffffffffffffffffff021916908373ffffffffffffffffffffffffffffffffffffffff160217905550808273ffffffffffffffffffffffffffffffffffffffff16600073ffffffffffffffffffffffffffffffffffffffff167fddf252ad1be2c89b69c2b068fc378daa952ba7f163c4a11628f55a4df523b3ef60405160405180910390a45050565b61161682610fb4565b611655576040517f08c379a000000000000000000000000000000000000000000000000000000000815260040161164c90612c87565b60405180910390fd5b80600a6000848152602001908152602001600020908051906020019061167c9291906122f7565b505050565b6000600b60009054906101000a900473ffffffffffffffffffffffffffffffffffffffff16905081600b60006101000a81548173ffffffffffffffffffffffffffffffffffffffff021916908373ffffffffffffffffffffffffffffffffffffffff1602179055508173ffffffffffffffffffffffffffffffffffffffff168173ffffffffffffffffffffffffffffffffffffffff167f8be0079c531659141344cd1fd0a4f28419497f9722a3daafe3b4186f6b6457e060405160405180910390a35050565b6117528484846111bf565b61175e848484846119e7565b61179d576040517f08c379a000000000000000000000000000000000000000000000000000000000815260040161179490612b47565b60405180910390fd5b50505050565b60606117ae82610fb4565b6117ed576040517f08c379a00000000000000000000000000000000000000000000000000000000081526004016117e490612cc7565b60405180910390fd5b6000600a6000848152602001908152602001600020805461180d9061300c565b80601f01602080910402602001604051908101604052809291908181526020018280546118399061300c565b80156118865780601f1061185b57610100808354040283529160200191611886565b820191906000526020600020905b81548152906001019060200180831161186957829003601f168201915b505050505090506000611897611b7e565b90506000815114156118ad5781925050506118f0565b6000825111156118e25780826040516020016118ca929190612a5f565b604051602081830303815290604052925050506118f0565b6118eb84611b95565b925050505b919050565b60007f80ac58cd000000000000000000000000000000000000000000000000000000007bffffffffffffffffffffffffffffffffffffffffffffffffffffffff1916827bffffffffffffffffffffffffffffffffffffffffffffffffffffffff191614806119c057507f5b5e139f000000000000000000000000000000000000000000000000000000007bffffffffffffffffffffffffffffffffffffffffffffffffffffffff1916827bffffffffffffffffffffffffffffffffffffffffffffffffffffffff1916145b806119d057506119cf82611c3c565b5b9050919050565b6119e2838383611ca6565b505050565b6000611a088473ffffffffffffffffffffffffffffffffffffffff16611dba565b15611b71578373ffffffffffffffffffffffffffffffffffffffff1663150b7a02611a31611020565b8786866040518563ffffffff1660e01b8152600401611a539493929190612a9e565b602060405180830381600087803b158015611a6d57600080fd5b505af1925050508015611a9e57506040513d601f19601f82011682018060405250810190611a9b919061263b565b60015b611b21573d8060008114611ace576040519150601f19603f3d011682016040523d82523d6000602084013e611ad3565b606091505b50600081511415611b19576040517f08c379a0000000000000000000000000000000000000000000000000000000008152600401611b1090612b47565b60405180910390fd5b805181602001fd5b63150b7a0260e01b7bffffffffffffffffffffffffffffffffffffffffffffffffffffffff1916817bffffffffffffffffffffffffffffffffffffffffffffffffffffffff191614915050611b76565b600190505b949350505050565b606060405180602001604052806000815250905090565b6060611ba082610fb4565b611bdf576040517f08c379a0000000000000000000000000000000000000000000000000000000008152600401611bd690612d67565b60405180910390fd5b6000611be9611b7e565b90506000815111611c095760405180602001604052806000815250611c34565b80611c1384611dcd565b604051602001611c24929190612a5f565b6040516020818303038152906040525b915050919050565b60007f01ffc9a7000000000000000000000000000000000000000000000000000000007bffffffffffffffffffffffffffffffffffffffffffffffffffffffff1916827bffffffffffffffffffffffffffffffffffffffffffffffffffffffff1916149050919050565b611cb1838383611f7a565b600073ffffffffffffffffffffffffffffffffffffffff168373ffffffffffffffffffffffffffffffffffffffff161415611cf457611cef81611f7f565b611d33565b8173ffffffffffffffffffffffffffffffffffffffff168373ffffffffffffffffffffffffffffffffffffffff1614611d3257611d318382611fc8565b5b5b600073ffffffffffffffffffffffffffffffffffffffff168273ffffffffffffffffffffffffffffffffffffffff161415611d7657611d7181612135565b611db5565b8273ffffffffffffffffffffffffffffffffffffffff168273ffffffffffffffffffffffffffffffffffffffff1614611db457611db38282612278565b5b5b505050565b600080823b905060008111915050919050565b60606000821415611e15576040518060400160405280600181526020017f30000000000000000000000000000000000000000000000000000000000000008152509050611f75565b600082905060005b60008214611e47578080611e309061306f565b915050600a82611e409190612ef1565b9150611e1d565b60008167ffffffffffffffff811115611e89577f4e487b7100000000000000000000000000000000000000000000000000000000600052604160045260246000fd5b6040519080825280601f01601f191660200182016040528015611ebb5781602001600182028036833780820191505090505b5090505b60008514611f6e57600182611ed49190612f22565b9150600a85611ee391906130b8565b6030611eef9190612e9b565b60f81b818381518110611f2b577f4e487b7100000000000000000000000000000000000000000000000000000000600052603260045260246000fd5b60200101907effffffffffffffffffffffffffffffffffffffffffffffffffffffffffffff1916908160001a905350600a85611f679190612ef1565b9450611ebf565b8093505050505b919050565b505050565b6008805490506009600083815260200190815260200160002081905550600881908060018154018082558091505060019003906000526020600020016000909190919091505550565b60006001611fd5846109bd565b611fdf9190612f22565b90506000600760008481526020019081526020016000205490508181146120c4576000600660008673ffffffffffffffffffffffffffffffffffffffff1673ffffffffffffffffffffffffffffffffffffffff168152602001908152602001600020600084815260200190815260200160002054905080600660008773ffffffffffffffffffffffffffffffffffffffff1673ffffffffffffffffffffffffffffffffffffffff168152602001908152602001600020600084815260200190815260200160002081905550816007600083815260200190815260200160002081905550505b6007600084815260200190815260200160002060009055600660008573ffffffffffffffffffffffffffffffffffffffff1673ffffffffffffffffffffffffffffffffffffffff16815260200190815260200160002060008381526020019081526020016000206000905550505050565b600060016008805490506121499190612f22565b905060006009600084815260200190815260200160002054905060006008838154811061219f577f4e487b7100000000000000000000000000000000000000000000000000000000600052603260045260246000fd5b9060005260206000200154905080600883815481106121e7577f4e487b7100000000000000000000000000000000000000000000000000000000600052603260045260246000fd5b90600052602060002001819055508160096000838152602001908152602001600020819055506009600085815260200190815260200160002060009055600880548061225c577f4e487b7100000000000000000000000000000000000000000000000000000000600052603160045260246000fd5b6001900381819060005260206000200160009055905550505050565b6000612283836109bd565b905081600660008573ffffffffffffffffffffffffffffffffffffffff1673ffffffffffffffffffffffffffffffffffffffff168152602001908152602001600020600083815260200190815260200160002081905550806007600084815260200190815260200160002081905550505050565b8280546123039061300c565b90600052602060002090601f016020900481019282612325576000855561236c565b82601f1061233e57805160ff191683800117855561236c565b8280016001018555821561236c579182015b8281111561236b578251825591602001919060010190612350565b5b509050612379919061237d565b5090565b5b8082111561239657600081600090555060010161237e565b5090565b60006123ad6123a884612e27565b612e02565b9050828152602081018484840111156123c557600080fd5b6123d0848285612fca565b509392505050565b6000813590506123e7816137c2565b92915050565b6000813590506123fc816137d9565b92915050565b600081359050612411816137f0565b92915050565b600081519050612426816137f0565b92915050565b600082601f83011261243d57600080fd5b813561244d84826020860161239a565b91505092915050565b60008135905061246581613807565b92915050565b60006020828403121561247d57600080fd5b600061248b848285016123d8565b91505092915050565b600080604083850312156124a757600080fd5b60006124b5858286016123d8565b92505060206124c6858286016123d8565b9150509250929050565b6000806000606084860312156124e557600080fd5b60006124f3868287016123d8565b9350506020612504868287016123d8565b925050604061251586828701612456565b9150509250925092565b6000806000806080858703121561253557600080fd5b6000612543878288016123d8565b9450506020612554878288016123d8565b935050604061256587828801612456565b925050606085013567ffffffffffffffff81111561258257600080fd5b61258e8782880161242c565b91505092959194509250565b600080604083850312156125ad57600080fd5b60006125bb858286016123d8565b92505060206125cc858286016123ed565b9150509250929050565b600080604083850312156125e957600080fd5b60006125f7858286016123d8565b925050602061260885828601612456565b9150509250929050565b60006020828403121561262457600080fd5b600061263284828501612402565b91505092915050565b60006020828403121561264d57600080fd5b600061265b84828501612417565b91505092915050565b60006020828403121561267657600080fd5b600061268484828501612456565b91505092915050565b61269681612f56565b82525050565b6126a581612f68565b82525050565b60006126b682612e58565b6126c08185612e6e565b93506126d0818560208601612fd9565b6126d9816131a5565b840191505092915050565b60006126ef82612e63565b6126f98185612e7f565b9350612709818560208601612fd9565b612712816131a5565b840191505092915050565b600061272882612e63565b6127328185612e90565b9350612742818560208601612fd9565b80840191505092915050565b600061275b602b83612e7f565b9150612766826131b6565b604082019050919050565b600061277e603283612e7f565b915061278982613205565b604082019050919050565b60006127a1602683612e7f565b91506127ac82613254565b604082019050919050565b60006127c4601c83612e7f565b91506127cf826132a3565b602082019050919050565b60006127e7602483612e7f565b91506127f2826132cc565b604082019050919050565b600061280a601983612e7f565b91506128158261331b565b602082019050919050565b600061282d602c83612e7f565b915061283882613344565b604082019050919050565b6000612850602683612e7f565b915061285b82613393565b604082019050919050565b6000612873603883612e7f565b915061287e826133e2565b604082019050919050565b6000612896602a83612e7f565b91506128a182613431565b604082019050919050565b60006128b9602983612e7f565b91506128c482613480565b604082019050919050565b60006128dc602e83612e7f565b91506128e7826134cf565b604082019050919050565b60006128ff602083612e7f565b915061290a8261351e565b602082019050919050565b6000612922603183612e7f565b915061292d82613547565b604082019050919050565b6000612945602c83612e7f565b915061295082613596565b604082019050919050565b6000612968601e83612e7f565b9150612973826135e5565b602082019050919050565b600061298b602083612e7f565b91506129968261360e565b602082019050919050565b60006129ae602983612e7f565b91506129b982613637565b604082019050919050565b60006129d1602f83612e7f565b91506129dc82613686565b604082019050919050565b60006129f4602183612e7f565b91506129ff826136d5565b604082019050919050565b6000612a17603183612e7f565b9150612a2282613724565b604082019050919050565b6000612a3a602c83612e7f565b9150612a4582613773565b604082019050919050565b612a5981612fc0565b82525050565b6000612a6b828561271d565b9150612a77828461271d565b91508190509392505050565b6000602082019050612a98600083018461268d565b92915050565b6000608082019050612ab3600083018761268d565b612ac0602083018661268d565b612acd6040830185612a50565b8181036060830152612adf81846126ab565b905095945050505050565b6000602082019050612aff600083018461269c565b92915050565b60006020820190508181036000830152612b1f81846126e4565b905092915050565b60006020820190508181036000830152612b408161274e565b9050919050565b60006020820190508181036000830152612b6081612771565b9050919050565b60006020820190508181036000830152612b8081612794565b9050919050565b60006020820190508181036000830152612ba0816127b7565b9050919050565b60006020820190508181036000830152612bc0816127da565b9050919050565b60006020820190508181036000830152612be0816127fd565b9050919050565b60006020820190508181036000830152612c0081612820565b9050919050565b60006020820190508181036000830152612c2081612843565b9050919050565b60006020820190508181036000830152612c4081612866565b9050919050565b60006020820190508181036000830152612c6081612889565b9050919050565b60006020820190508181036000830152612c80816128ac565b9050919050565b60006020820190508181036000830152612ca0816128cf565b9050919050565b60006020820190508181036000830152612cc0816128f2565b9050919050565b60006020820190508181036000830152612ce081612915565b9050919050565b60006020820190508181036000830152612d0081612938565b9050919050565b60006020820190508181036000830152612d208161295b565b9050919050565b60006020820190508181036000830152612d408161297e565b9050919050565b60006020820190508181036000830152612d60816129a1565b9050919050565b60006020820190508181036000830152612d80816129c4565b9050919050565b60006020820190508181036000830152612da0816129e7565b9050919050565b60006020820190508181036000830152612dc081612a0a565b9050919050565b60006020820190508181036000830152612de081612a2d565b9050919050565b6000602082019050612dfc6000830184612a50565b92915050565b6000612e0c612e1d565b9050612e18828261303e565b919050565b6000604051905090565b600067ffffffffffffffff821115612e4257612e41613176565b5b612e4b826131a5565b9050602081019050919050565b600081519050919050565b600081519050919050565b600082825260208201905092915050565b600082825260208201905092915050565b600081905092915050565b6000612ea682612fc0565b9150612eb183612fc0565b9250827fffffffffffffffffffffffffffffffffffffffffffffffffffffffffffffffff03821115612ee657612ee56130e9565b5b828201905092915050565b6000612efc82612fc0565b9150612f0783612fc0565b925082612f1757612f16613118565b5b828204905092915050565b6000612f2d82612fc0565b9150612f3883612fc0565b925082821015612f4b57612f4a6130e9565b5b828203905092915050565b6000612f6182612fa0565b9050919050565b60008115159050919050565b60007fffffffff0000000000000000000000000000000000000000000000000000000082169050919050565b600073ffffffffffffffffffffffffffffffffffffffff82169050919050565b6000819050919050565b82818337600083830152505050565b60005b83811015612ff7578082015181840152602081019050612fdc565b83811115613006576000848401525b50505050565b6000600282049050600182168061302457607f821691505b6020821081141561303857613037613147565b5b50919050565b613047826131a5565b810181811067ffffffffffffffff8211171561306657613065613176565b5b80604052505050565b600061307a82612fc0565b91507fffffffffffffffffffffffffffffffffffffffffffffffffffffffffffffffff8214156130ad576130ac6130e9565b5b600182019050919050565b60006130c382612fc0565b91506130ce83612fc0565b9250826130de576130dd613118565b5b828206905092915050565b7f4e487b7100000000000000000000000000000000000000000000000000000000600052601160045260246000fd5b7f4e487b7100000000000000000000000000000000000000000000000000000000600052601260045260246000fd5b7f4e487b7100000000000000000000000000000000000000000000000000000000600052602260045260246000fd5b7f4e487b7100000000000000000000000000000000000000000000000000000000600052604160045260246000fd5b6000601f19601f8301169050919050565b7f455243373231456e756d657261626c653a206f776e657220696e646578206f7560008201527f74206f6620626f756e6473000000000000000000000000000000000000000000602082015250565b7f4552433732313a207472616e7366657220746f206e6f6e20455243373231526560008201527f63656976657220696d706c656d656e7465720000000000000000000000000000602082015250565b7f4f776e61626c653a206e6577206f776e657220697320746865207a65726f206160008201527f6464726573730000000000000000000000000000000000000000000000000000602082015250565b7f4552433732313a20746f6b656e20616c7265616479206d696e74656400000000600082015250565b7f4552433732313a207472616e7366657220746f20746865207a65726f2061646460008201527f7265737300000000000000000000000000000000000000000000000000000000602082015250565b7f4552433732313a20617070726f766520746f2063616c6c657200000000000000600082015250565b7f4552433732313a206f70657261746f7220717565727920666f72206e6f6e657860008201527f697374656e7420746f6b656e0000000000000000000000000000000000000000602082015250565b7f416c6c2074686520426c6f6f64792046616365732068617665206265656e206d60008201527f696e7465642e0000000000000000000000000000000000000000000000000000602082015250565b7f4552433732313a20617070726f76652063616c6c6572206973206e6f74206f7760008201527f6e6572206e6f7220617070726f76656420666f7220616c6c0000000000000000602082015250565b7f4552433732313a2062616c616e636520717565727920666f7220746865207a6560008201527f726f206164647265737300000000000000000000000000000000000000000000602082015250565b7f4552433732313a206f776e657220717565727920666f72206e6f6e657869737460008201527f656e7420746f6b656e0000000000000000000000000000000000000000000000602082015250565b7f45524337323155524953746f726167653a2055524920736574206f66206e6f6e60008201527f6578697374656e7420746f6b656e000000000000000000000000000000000000602082015250565b7f4552433732313a206d696e7420746f20746865207a65726f2061646472657373600082015250565b7f45524337323155524953746f726167653a2055524920717565727920666f722060008201527f6e6f6e6578697374656e7420746f6b656e000000000000000000000000000000602082015250565b7f4552433732313a20617070726f76656420717565727920666f72206e6f6e657860008201527f697374656e7420746f6b656e0000000000000000000000000000000000000000602082015250565b7f596f7520616c7265616479206f776e206120426c6f6f647920466163652e0000600082015250565b7f4f776e61626c653a2063616c6c6572206973206e6f7420746865206f776e6572600082015250565b7f4552433732313a207472616e73666572206f6620746f6b656e2074686174206960008201527f73206e6f74206f776e0000000000000000000000000000000000000000000000602082015250565b7f4552433732314d657461646174613a2055524920717565727920666f72206e6f60008201527f6e6578697374656e7420746f6b656e0000000000000000000000000000000000602082015250565b7f4552433732313a20617070726f76616c20746f2063757272656e74206f776e6560008201527f7200000000000000000000000000000000000000000000000000000000000000602082015250565b7f4552433732313a207472616e736665722063616c6c6572206973206e6f74206f60008201527f776e6572206e6f7220617070726f766564000000000000000000000000000000602082015250565b7f455243373231456e756d657261626c653a20676c6f62616c20696e646578206f60008201527f7574206f6620626f756e64730000000000000000000000000000000000000000602082015250565b6137cb81612f56565b81146137d657600080fd5b50565b6137e281612f68565b81146137ed57600080fd5b50565b6137f981612f74565b811461380457600080fd5b50565b61381081612fc0565b811461381b57600080fd5b5056fea2646970667358221220d46469fe41a86ffde6ae4873d537380ca20b02ca4b391764444680afa486c22d64736f6c63430008030033",
  "immutableReferences": {},
  "source": "// SPDX-License-Identifier: MIT\npragma solidity ^0.8.3;\n\nimport \"@openzeppelin/contracts/token/ERC721/ERC721.sol\";\nimport \"@openzeppelin/contracts/token/ERC721/extensions/ERC721Enumerable.sol\";\nimport \"@openzeppelin/contracts/token/ERC721/extensions/ERC721URIStorage.sol\";\nimport \"@openzeppelin/contracts/access/Ownable.sol\";\nimport \"@openzeppelin/contracts/utils/Counters.sol\";\n\ncontract BloodyFace is ERC721, ERC721Enumerable, ERC721URIStorage, Ownable {\n  using Counters for Counters.Counter;\n\n  Counters.Counter private _tokenIdCounter;\n\n  uint256 private _totalSupply = 2;\n\n  constructor() ERC721(\"BloodyFace\", \"BLDFC\") {}\n\n  function mintBloodyFace()\n    public\n    returns (uint256)\n  {\n    require(_tokenIdCounter.current() < _totalSupply, \"All the Bloody Faces have been minted.\");\n    require(balanceOf(msg.sender) < 1, \"You already own a Bloody Face.\");\n\n    _tokenIdCounter.increment();\n    uint256 newNftId = _tokenIdCounter.current();\n\n    string memory _tokenURI = \"#\";\n\n    _mint(msg.sender, newNftId);\n    _setTokenURI(newNftId, _tokenURI);\n\n    return newNftId;\n  }\n\n  // The following functions are overrides required by Solidity.\n  // This is generated by OpenZeppelin.\n\n  function _beforeTokenTransfer(address from, address to, uint256 tokenId)\n    internal\n    override(ERC721, ERC721Enumerable)\n  {\n    super._beforeTokenTransfer(from, to, tokenId);\n  }\n\n  function _burn(uint256 tokenId) internal override(ERC721, ERC721URIStorage) {\n    super._burn(tokenId);\n  }\n\n  function tokenURI(uint256 tokenId)\n    public\n    view\n    override(ERC721, ERC721URIStorage)\n    returns (string memory)\n  {\n    return super.tokenURI(tokenId);\n  }\n\n  function supportsInterface(bytes4 interfaceId)\n    public\n    view\n    override(ERC721, ERC721Enumerable)\n    returns (bool)\n  {\n    return super.supportsInterface(interfaceId);\n  }\n}\n",
  "sourcePath": "/Users/valcoh/Work/FightCoin/BloodyFaces/bloodyfaces-contract/contracts/BloodyFaceFactory.sol",
  "compiler": {
    "name": "solc",
    "version": "0.8.3+commit.8d00100c.Emscripten.clang"
  },
  "schemaVersion": "3.4.3",
  "updatedAt": "2021-09-24T04:22:48.894Z",
  "devdoc": {
    "kind": "dev",
    "methods": {
      "approve(address,uint256)": {
        "details": "See {IERC721-approve}."
      },
      "balanceOf(address)": {
        "details": "See {IERC721-balanceOf}."
      },
      "getApproved(uint256)": {
        "details": "See {IERC721-getApproved}."
      },
      "isApprovedForAll(address,address)": {
        "details": "See {IERC721-isApprovedForAll}."
      },
      "name()": {
        "details": "See {IERC721Metadata-name}."
      },
      "owner()": {
        "details": "Returns the address of the current owner."
      },
      "ownerOf(uint256)": {
        "details": "See {IERC721-ownerOf}."
      },
      "renounceOwnership()": {
        "details": "Leaves the contract without owner. It will not be possible to call `onlyOwner` functions anymore. Can only be called by the current owner. NOTE: Renouncing ownership will leave the contract without an owner, thereby removing any functionality that is only available to the owner."
      },
      "safeTransferFrom(address,address,uint256)": {
        "details": "See {IERC721-safeTransferFrom}."
      },
      "safeTransferFrom(address,address,uint256,bytes)": {
        "details": "See {IERC721-safeTransferFrom}."
      },
      "setApprovalForAll(address,bool)": {
        "details": "See {IERC721-setApprovalForAll}."
      },
      "symbol()": {
        "details": "See {IERC721Metadata-symbol}."
      },
      "tokenByIndex(uint256)": {
        "details": "See {IERC721Enumerable-tokenByIndex}."
      },
      "tokenOfOwnerByIndex(address,uint256)": {
        "details": "See {IERC721Enumerable-tokenOfOwnerByIndex}."
      },
      "totalSupply()": {
        "details": "See {IERC721Enumerable-totalSupply}."
      },
      "transferFrom(address,address,uint256)": {
        "details": "See {IERC721-transferFrom}."
      },
      "transferOwnership(address)": {
        "details": "Transfers ownership of the contract to a new account (`newOwner`). Can only be called by the current owner."
      }
    },
    "version": 1
  },
  "userdoc": {
    "kind": "user",
    "methods": {},
    "version": 1
  }
}