{
  "contractName": "BloodyFace",
  "abi": [
    {
      "inputs": [],
      "stateMutability": "nonpayable",
      "type": "constructor"
    },
    {
      "anonymous": false,
      "inputs": [
        {
          "indexed": true,
          "internalType": "address",
          "name": "owner",
          "type": "address"
        },
        {
          "indexed": true,
          "internalType": "address",
          "name": "approved",
          "type": "address"
        },
        {
          "indexed": true,
          "internalType": "uint256",
          "name": "tokenId",
          "type": "uint256"
        }
      ],
      "name": "Approval",
      "type": "event"
    },
    {
      "anonymous": false,
      "inputs": [
        {
          "indexed": true,
          "internalType": "address",
          "name": "owner",
          "type": "address"
        },
        {
          "indexed": true,
          "internalType": "address",
          "name": "operator",
          "type": "address"
        },
        {
          "indexed": false,
          "internalType": "bool",
          "name": "approved",
          "type": "bool"
        }
      ],
      "name": "ApprovalForAll",
      "type": "event"
    },
    {
      "anonymous": false,
      "inputs": [
        {
          "indexed": true,
          "internalType": "address",
          "name": "previousOwner",
          "type": "address"
        },
        {
          "indexed": true,
          "internalType": "address",
          "name": "newOwner",
          "type": "address"
        }
      ],
      "name": "OwnershipTransferred",
      "type": "event"
    },
    {
      "anonymous": false,
      "inputs": [
        {
          "indexed": true,
          "internalType": "address",
          "name": "from",
          "type": "address"
        },
        {
          "indexed": true,
          "internalType": "address",
          "name": "to",
          "type": "address"
        },
        {
          "indexed": true,
          "internalType": "uint256",
          "name": "tokenId",
          "type": "uint256"
        }
      ],
      "name": "Transfer",
      "type": "event"
    },
    {
      "inputs": [
        {
          "internalType": "address",
          "name": "to",
          "type": "address"
        },
        {
          "internalType": "uint256",
          "name": "tokenId",
          "type": "uint256"
        }
      ],
      "name": "approve",
      "outputs": [],
      "stateMutability": "nonpayable",
      "type": "function"
    },
    {
      "inputs": [
        {
          "internalType": "address",
          "name": "owner",
          "type": "address"
        }
      ],
      "name": "balanceOf",
      "outputs": [
        {
          "internalType": "uint256",
          "name": "",
          "type": "uint256"
        }
      ],
      "stateMutability": "view",
      "type": "function",
      "constant": true
    },
    {
      "inputs": [
        {
          "internalType": "uint256",
          "name": "tokenId",
          "type": "uint256"
        }
      ],
      "name": "getApproved",
      "outputs": [
        {
          "internalType": "address",
          "name": "",
          "type": "address"
        }
      ],
      "stateMutability": "view",
      "type": "function",
      "constant": true
    },
    {
      "inputs": [
        {
          "internalType": "address",
          "name": "owner",
          "type": "address"
        },
        {
          "internalType": "address",
          "name": "operator",
          "type": "address"
        }
      ],
      "name": "isApprovedForAll",
      "outputs": [
        {
          "internalType": "bool",
          "name": "",
          "type": "bool"
        }
      ],
      "stateMutability": "view",
      "type": "function",
      "constant": true
    },
    {
      "inputs": [],
      "name": "name",
      "outputs": [
        {
          "internalType": "string",
          "name": "",
          "type": "string"
        }
      ],
      "stateMutability": "view",
      "type": "function",
      "constant": true
    },
    {
      "inputs": [],
      "name": "owner",
      "outputs": [
        {
          "internalType": "address",
          "name": "",
          "type": "address"
        }
      ],
      "stateMutability": "view",
      "type": "function",
      "constant": true
    },
    {
      "inputs": [
        {
          "internalType": "uint256",
          "name": "tokenId",
          "type": "uint256"
        }
      ],
      "name": "ownerOf",
      "outputs": [
        {
          "internalType": "address",
          "name": "",
          "type": "address"
        }
      ],
      "stateMutability": "view",
      "type": "function",
      "constant": true
    },
    {
      "inputs": [],
      "name": "renounceOwnership",
      "outputs": [],
      "stateMutability": "nonpayable",
      "type": "function"
    },
    {
      "inputs": [
        {
          "internalType": "address",
          "name": "from",
          "type": "address"
        },
        {
          "internalType": "address",
          "name": "to",
          "type": "address"
        },
        {
          "internalType": "uint256",
          "name": "tokenId",
          "type": "uint256"
        }
      ],
      "name": "safeTransferFrom",
      "outputs": [],
      "stateMutability": "nonpayable",
      "type": "function"
    },
    {
      "inputs": [
        {
          "internalType": "address",
          "name": "from",
          "type": "address"
        },
        {
          "internalType": "address",
          "name": "to",
          "type": "address"
        },
        {
          "internalType": "uint256",
          "name": "tokenId",
          "type": "uint256"
        },
        {
          "internalType": "bytes",
          "name": "_data",
          "type": "bytes"
        }
      ],
      "name": "safeTransferFrom",
      "outputs": [],
      "stateMutability": "nonpayable",
      "type": "function"
    },
    {
      "inputs": [
        {
          "internalType": "address",
          "name": "operator",
          "type": "address"
        },
        {
          "internalType": "bool",
          "name": "approved",
          "type": "bool"
        }
      ],
      "name": "setApprovalForAll",
      "outputs": [],
      "stateMutability": "nonpayable",
      "type": "function"
    },
    {
      "inputs": [],
      "name": "symbol",
      "outputs": [
        {
          "internalType": "string",
          "name": "",
          "type": "string"
        }
      ],
      "stateMutability": "view",
      "type": "function",
      "constant": true
    },
    {
      "inputs": [
        {
          "internalType": "uint256",
          "name": "index",
          "type": "uint256"
        }
      ],
      "name": "tokenByIndex",
      "outputs": [
        {
          "internalType": "uint256",
          "name": "",
          "type": "uint256"
        }
      ],
      "stateMutability": "view",
      "type": "function",
      "constant": true
    },
    {
      "inputs": [
        {
          "internalType": "address",
          "name": "owner",
          "type": "address"
        },
        {
          "internalType": "uint256",
          "name": "index",
          "type": "uint256"
        }
      ],
      "name": "tokenOfOwnerByIndex",
      "outputs": [
        {
          "internalType": "uint256",
          "name": "",
          "type": "uint256"
        }
      ],
      "stateMutability": "view",
      "type": "function",
      "constant": true
    },
    {
      "inputs": [],
      "name": "totalSupply",
      "outputs": [
        {
          "internalType": "uint256",
          "name": "",
          "type": "uint256"
        }
      ],
      "stateMutability": "view",
      "type": "function",
      "constant": true
    },
    {
      "inputs": [
        {
          "internalType": "address",
          "name": "from",
          "type": "address"
        },
        {
          "internalType": "address",
          "name": "to",
          "type": "address"
        },
        {
          "internalType": "uint256",
          "name": "tokenId",
          "type": "uint256"
        }
      ],
      "name": "transferFrom",
      "outputs": [],
      "stateMutability": "nonpayable",
      "type": "function"
    },
    {
      "inputs": [
        {
          "internalType": "address",
          "name": "newOwner",
          "type": "address"
        }
      ],
      "name": "transferOwnership",
      "outputs": [],
      "stateMutability": "nonpayable",
      "type": "function"
    },
    {
      "inputs": [
        {
          "internalType": "string",
          "name": "_tokenURI",
          "type": "string"
        }
      ],
      "name": "mintBloodyFace",
      "outputs": [
        {
          "internalType": "uint256",
          "name": "",
          "type": "uint256"
        }
      ],
      "stateMutability": "nonpayable",
      "type": "function"
    },
    {
      "inputs": [
        {
          "internalType": "uint256",
          "name": "tokenId",
          "type": "uint256"
        }
      ],
      "name": "tokenURI",
      "outputs": [
        {
          "internalType": "string",
          "name": "",
          "type": "string"
        }
      ],
      "stateMutability": "view",
      "type": "function",
      "constant": true
    },
    {
      "inputs": [
        {
          "internalType": "bytes4",
          "name": "interfaceId",
          "type": "bytes4"
        }
      ],
      "name": "supportsInterface",
      "outputs": [
        {
          "internalType": "bool",
          "name": "",
          "type": "bool"
        }
      ],
      "stateMutability": "view",
      "type": "function",
      "constant": true
    }
  ],
  "bytecode": "0x60806040526002600d553480156200001657600080fd5b506040518060400160405280600a81526020017f426c6f6f647946616365000000000000000000000000000000000000000000008152506040518060400160405280600581526020017f424c44464300000000000000000000000000000000000000000000000000000081525081600090805190602001906200009b929190620001ab565b508060019080519060200190620000b4929190620001ab565b505050620000d7620000cb620000dd60201b60201c565b620000e560201b60201c565b620002c0565b600033905090565b6000600b60009054906101000a900473ffffffffffffffffffffffffffffffffffffffff16905081600b60006101000a81548173ffffffffffffffffffffffffffffffffffffffff021916908373ffffffffffffffffffffffffffffffffffffffff1602179055508173ffffffffffffffffffffffffffffffffffffffff168173ffffffffffffffffffffffffffffffffffffffff167f8be0079c531659141344cd1fd0a4f28419497f9722a3daafe3b4186f6b6457e060405160405180910390a35050565b828054620001b9906200025b565b90600052602060002090601f016020900481019282620001dd576000855562000229565b82601f10620001f857805160ff191683800117855562000229565b8280016001018555821562000229579182015b82811115620002285782518255916020019190600101906200020b565b5b5090506200023891906200023c565b5090565b5b80821115620002575760008160009055506001016200023d565b5090565b600060028204905060018216806200027457607f821691505b602082108114156200028b576200028a62000291565b5b50919050565b7f4e487b7100000000000000000000000000000000000000000000000000000000600052602260045260246000fd5b61390780620002d06000396000f3fe608060405234801561001057600080fd5b506004361061012c5760003560e01c806370a08231116100ad578063b88d4fde11610071578063b88d4fde14610343578063c87b56dd1461035f578063d942178d1461038f578063e985e9c5146103bf578063f2fde38b146103ef5761012c565b806370a08231146102b1578063715018a6146102e15780638da5cb5b146102eb57806395d89b4114610309578063a22cb465146103275761012c565b806323b872dd116100f457806323b872dd146101e95780632f745c591461020557806342842e0e146102355780634f6ccce7146102515780636352211e146102815761012c565b806301ffc9a71461013157806306fdde0314610161578063081812fc1461017f578063095ea7b3146101af57806318160ddd146101cb575b600080fd5b61014b60048036038101906101469190612653565b61040b565b6040516101589190612b6c565b60405180910390f35b61016961041d565b6040516101769190612b87565b60405180910390f35b610199600480360381019061019491906126e6565b6104af565b6040516101a69190612b05565b60405180910390f35b6101c960048036038101906101c49190612617565b610534565b005b6101d361064c565b6040516101e09190612e69565b60405180910390f35b61020360048036038101906101fe9190612511565b610659565b005b61021f600480360381019061021a9190612617565b6106b9565b60405161022c9190612e69565b60405180910390f35b61024f600480360381019061024a9190612511565b61075e565b005b61026b600480360381019061026691906126e6565b61077e565b6040516102789190612e69565b60405180910390f35b61029b600480360381019061029691906126e6565b610815565b6040516102a89190612b05565b60405180910390f35b6102cb60048036038101906102c691906124ac565b6108c7565b6040516102d89190612e69565b60405180910390f35b6102e961097f565b005b6102f3610a07565b6040516103009190612b05565b60405180910390f35b610311610a31565b60405161031e9190612b87565b60405180910390f35b610341600480360381019061033c91906125db565b610ac3565b005b61035d60048036038101906103589190612560565b610c44565b005b610379600480360381019061037491906126e6565b610ca6565b6040516103869190612b87565b60405180910390f35b6103a960048036038101906103a491906126a5565b610cb8565b6040516103b69190612e69565b60405180910390f35b6103d960048036038101906103d491906124d5565b610d87565b6040516103e69190612b6c565b60405180910390f35b610409600480360381019061040491906124ac565b610e1b565b005b600061041682610f13565b9050919050565b60606000805461042c906130bf565b80601f0160208091040260200160405190810160405280929190818152602001828054610458906130bf565b80156104a55780601f1061047a576101008083540402835291602001916104a5565b820191906000526020600020905b81548152906001019060200180831161048857829003601f168201915b5050505050905090565b60006104ba82610f8d565b6104f9576040517f08c379a00000000000000000000000000000000000000000000000000000000081526004016104f090612d69565b60405180910390fd5b6004600083815260200190815260200160002060009054906101000a900473ffffffffffffffffffffffffffffffffffffffff169050919050565b600061053f82610815565b90508073ffffffffffffffffffffffffffffffffffffffff168373ffffffffffffffffffffffffffffffffffffffff1614156105b0576040517f08c379a00000000000000000000000000000000000000000000000000000000081526004016105a790612e09565b60405180910390fd5b8073ffffffffffffffffffffffffffffffffffffffff166105cf610ff9565b73ffffffffffffffffffffffffffffffffffffffff1614806105fe57506105fd816105f8610ff9565b610d87565b5b61063d576040517f08c379a000000000000000000000000000000000000000000000000000000000815260040161063490612ca9565b60405180910390fd5b6106478383611001565b505050565b6000600880549050905090565b61066a610664610ff9565b826110ba565b6106a9576040517f08c379a00000000000000000000000000000000000000000000000000000000081526004016106a090612e29565b60405180910390fd5b6106b4838383611198565b505050565b60006106c4836108c7565b8210610705576040517f08c379a00000000000000000000000000000000000000000000000000000000081526004016106fc90612ba9565b60405180910390fd5b600660008473ffffffffffffffffffffffffffffffffffffffff1673ffffffffffffffffffffffffffffffffffffffff168152602001908152602001600020600083815260200190815260200160002054905092915050565b61077983838360405180602001604052806000815250610c44565b505050565b600061078861064c565b82106107c9576040517f08c379a00000000000000000000000000000000000000000000000000000000081526004016107c090612e49565b60405180910390fd5b60088281548110610803577f4e487b7100000000000000000000000000000000000000000000000000000000600052603260045260246000fd5b90600052602060002001549050919050565b6000806002600084815260200190815260200160002060009054906101000a900473ffffffffffffffffffffffffffffffffffffffff169050600073ffffffffffffffffffffffffffffffffffffffff168173ffffffffffffffffffffffffffffffffffffffff1614156108be576040517f08c379a00000000000000000000000000000000000000000000000000000000081526004016108b590612ce9565b60405180910390fd5b80915050919050565b60008073ffffffffffffffffffffffffffffffffffffffff168273ffffffffffffffffffffffffffffffffffffffff161415610938576040517f08c379a000000000000000000000000000000000000000000000000000000000815260040161092f90612cc9565b60405180910390fd5b600360008373ffffffffffffffffffffffffffffffffffffffff1673ffffffffffffffffffffffffffffffffffffffff168152602001908152602001600020549050919050565b610987610ff9565b73ffffffffffffffffffffffffffffffffffffffff166109a5610a07565b73ffffffffffffffffffffffffffffffffffffffff16146109fb576040517f08c379a00000000000000000000000000000000000000000000000000000000081526004016109f290612da9565b60405180910390fd5b610a0560006113f4565b565b6000600b60009054906101000a900473ffffffffffffffffffffffffffffffffffffffff16905090565b606060018054610a40906130bf565b80601f0160208091040260200160405190810160405280929190818152602001828054610a6c906130bf565b8015610ab95780601f10610a8e57610100808354040283529160200191610ab9565b820191906000526020600020905b815481529060010190602001808311610a9c57829003601f168201915b5050505050905090565b610acb610ff9565b73ffffffffffffffffffffffffffffffffffffffff168273ffffffffffffffffffffffffffffffffffffffff161415610b39576040517f08c379a0000000000000000000000000000000000000000000000000000000008152600401610b3090612c49565b60405180910390fd5b8060056000610b46610ff9565b73ffffffffffffffffffffffffffffffffffffffff1673ffffffffffffffffffffffffffffffffffffffff16815260200190815260200160002060008473ffffffffffffffffffffffffffffffffffffffff1673ffffffffffffffffffffffffffffffffffffffff16815260200190815260200160002060006101000a81548160ff0219169083151502179055508173ffffffffffffffffffffffffffffffffffffffff16610bf3610ff9565b73ffffffffffffffffffffffffffffffffffffffff167f17307eab39ab6107e8899845ad3d59bd9653f200f220920489ca2b5937696c3183604051610c389190612b6c565b60405180910390a35050565b610c55610c4f610ff9565b836110ba565b610c94576040517f08c379a0000000000000000000000000000000000000000000000000000000008152600401610c8b90612e29565b60405180910390fd5b610ca0848484846114ba565b50505050565b6060610cb182611516565b9050919050565b6000600d54610cc7600c611668565b10610d07576040517f08c379a0000000000000000000000000000000000000000000000000000000008152600401610cfe90612c89565b60405180910390fd5b6001610d12336108c7565b10610d52576040517f08c379a0000000000000000000000000000000000000000000000000000000008152600401610d4990612d89565b60405180910390fd5b610d5c600c611676565b6000610d68600c611668565b9050610d74338261168c565b610d7e818461185a565b80915050919050565b6000600560008473ffffffffffffffffffffffffffffffffffffffff1673ffffffffffffffffffffffffffffffffffffffff16815260200190815260200160002060008373ffffffffffffffffffffffffffffffffffffffff1673ffffffffffffffffffffffffffffffffffffffff16815260200190815260200160002060009054906101000a900460ff16905092915050565b610e23610ff9565b73ffffffffffffffffffffffffffffffffffffffff16610e41610a07565b73ffffffffffffffffffffffffffffffffffffffff1614610e97576040517f08c379a0000000000000000000000000000000000000000000000000000000008152600401610e8e90612da9565b60405180910390fd5b600073ffffffffffffffffffffffffffffffffffffffff168173ffffffffffffffffffffffffffffffffffffffff161415610f07576040517f08c379a0000000000000000000000000000000000000000000000000000000008152600401610efe90612be9565b60405180910390fd5b610f10816113f4565b50565b60007f780e9d63000000000000000000000000000000000000000000000000000000007bffffffffffffffffffffffffffffffffffffffffffffffffffffffff1916827bffffffffffffffffffffffffffffffffffffffffffffffffffffffff19161480610f865750610f85826118ce565b5b9050919050565b60008073ffffffffffffffffffffffffffffffffffffffff166002600084815260200190815260200160002060009054906101000a900473ffffffffffffffffffffffffffffffffffffffff1673ffffffffffffffffffffffffffffffffffffffff1614159050919050565b600033905090565b816004600083815260200190815260200160002060006101000a81548173ffffffffffffffffffffffffffffffffffffffff021916908373ffffffffffffffffffffffffffffffffffffffff160217905550808273ffffffffffffffffffffffffffffffffffffffff1661107483610815565b73ffffffffffffffffffffffffffffffffffffffff167f8c5be1e5ebec7d5bd14f71427d1e84f3dd0314c0f7b2291e5b200ac8c7c3b92560405160405180910390a45050565b60006110c582610f8d565b611104576040517f08c379a00000000000000000000000000000000000000000000000000000000081526004016110fb90612c69565b60405180910390fd5b600061110f83610815565b90508073ffffffffffffffffffffffffffffffffffffffff168473ffffffffffffffffffffffffffffffffffffffff16148061117e57508373ffffffffffffffffffffffffffffffffffffffff16611166846104af565b73ffffffffffffffffffffffffffffffffffffffff16145b8061118f575061118e8185610d87565b5b91505092915050565b8273ffffffffffffffffffffffffffffffffffffffff166111b882610815565b73ffffffffffffffffffffffffffffffffffffffff161461120e576040517f08c379a000000000000000000000000000000000000000000000000000000000815260040161120590612dc9565b60405180910390fd5b600073ffffffffffffffffffffffffffffffffffffffff168273ffffffffffffffffffffffffffffffffffffffff16141561127e576040517f08c379a000000000000000000000000000000000000000000000000000000000815260040161127590612c29565b60405180910390fd5b6112898383836119b0565b611294600082611001565b6001600360008573ffffffffffffffffffffffffffffffffffffffff1673ffffffffffffffffffffffffffffffffffffffff16815260200190815260200160002060008282546112e49190612fd5565b925050819055506001600360008473ffffffffffffffffffffffffffffffffffffffff1673ffffffffffffffffffffffffffffffffffffffff168152602001908152602001600020600082825461133b9190612f4e565b92505081905550816002600083815260200190815260200160002060006101000a81548173ffffffffffffffffffffffffffffffffffffffff021916908373ffffffffffffffffffffffffffffffffffffffff160217905550808273ffffffffffffffffffffffffffffffffffffffff168473ffffffffffffffffffffffffffffffffffffffff167fddf252ad1be2c89b69c2b068fc378daa952ba7f163c4a11628f55a4df523b3ef60405160405180910390a4505050565b6000600b60009054906101000a900473ffffffffffffffffffffffffffffffffffffffff16905081600b60006101000a81548173ffffffffffffffffffffffffffffffffffffffff021916908373ffffffffffffffffffffffffffffffffffffffff1602179055508173ffffffffffffffffffffffffffffffffffffffff168173ffffffffffffffffffffffffffffffffffffffff167f8be0079c531659141344cd1fd0a4f28419497f9722a3daafe3b4186f6b6457e060405160405180910390a35050565b6114c5848484611198565b6114d1848484846119c0565b611510576040517f08c379a000000000000000000000000000000000000000000000000000000000815260040161150790612bc9565b60405180910390fd5b50505050565b606061152182610f8d565b611560576040517f08c379a000000000000000000000000000000000000000000000000000000000815260040161155790612d49565b60405180910390fd5b6000600a60008481526020019081526020016000208054611580906130bf565b80601f01602080910402602001604051908101604052809291908181526020018280546115ac906130bf565b80156115f95780601f106115ce576101008083540402835291602001916115f9565b820191906000526020600020905b8154815290600101906020018083116115dc57829003601f168201915b50505050509050600061160a611b57565b9050600081511415611620578192505050611663565b60008251111561165557808260405160200161163d929190612ae1565b60405160208183030381529060405292505050611663565b61165e84611b6e565b925050505b919050565b600081600001549050919050565b6001816000016000828254019250508190555050565b600073ffffffffffffffffffffffffffffffffffffffff168273ffffffffffffffffffffffffffffffffffffffff1614156116fc576040517f08c379a00000000000000000000000000000000000000000000000000000000081526004016116f390612d29565b60405180910390fd5b61170581610f8d565b15611745576040517f08c379a000000000000000000000000000000000000000000000000000000000815260040161173c90612c09565b60405180910390fd5b611751600083836119b0565b6001600360008473ffffffffffffffffffffffffffffffffffffffff1673ffffffffffffffffffffffffffffffffffffffff16815260200190815260200160002060008282546117a19190612f4e565b92505081905550816002600083815260200190815260200160002060006101000a81548173ffffffffffffffffffffffffffffffffffffffff021916908373ffffffffffffffffffffffffffffffffffffffff160217905550808273ffffffffffffffffffffffffffffffffffffffff16600073ffffffffffffffffffffffffffffffffffffffff167fddf252ad1be2c89b69c2b068fc378daa952ba7f163c4a11628f55a4df523b3ef60405160405180910390a45050565b61186382610f8d565b6118a2576040517f08c379a000000000000000000000000000000000000000000000000000000000815260040161189990612d09565b60405180910390fd5b80600a600084815260200190815260200160002090805190602001906118c99291906122d0565b505050565b60007f80ac58cd000000000000000000000000000000000000000000000000000000007bffffffffffffffffffffffffffffffffffffffffffffffffffffffff1916827bffffffffffffffffffffffffffffffffffffffffffffffffffffffff1916148061199957507f5b5e139f000000000000000000000000000000000000000000000000000000007bffffffffffffffffffffffffffffffffffffffffffffffffffffffff1916827bffffffffffffffffffffffffffffffffffffffffffffffffffffffff1916145b806119a957506119a882611c15565b5b9050919050565b6119bb838383611c7f565b505050565b60006119e18473ffffffffffffffffffffffffffffffffffffffff16611d93565b15611b4a578373ffffffffffffffffffffffffffffffffffffffff1663150b7a02611a0a610ff9565b8786866040518563ffffffff1660e01b8152600401611a2c9493929190612b20565b602060405180830381600087803b158015611a4657600080fd5b505af1925050508015611a7757506040513d601f19601f82011682018060405250810190611a74919061267c565b60015b611afa573d8060008114611aa7576040519150601f19603f3d011682016040523d82523d6000602084013e611aac565b606091505b50600081511415611af2576040517f08c379a0000000000000000000000000000000000000000000000000000000008152600401611ae990612bc9565b60405180910390fd5b805181602001fd5b63150b7a0260e01b7bffffffffffffffffffffffffffffffffffffffffffffffffffffffff1916817bffffffffffffffffffffffffffffffffffffffffffffffffffffffff191614915050611b4f565b600190505b949350505050565b606060405180602001604052806000815250905090565b6060611b7982610f8d565b611bb8576040517f08c379a0000000000000000000000000000000000000000000000000000000008152600401611baf90612de9565b60405180910390fd5b6000611bc2611b57565b90506000815111611be25760405180602001604052806000815250611c0d565b80611bec84611da6565b604051602001611bfd929190612ae1565b6040516020818303038152906040525b915050919050565b60007f01ffc9a7000000000000000000000000000000000000000000000000000000007bffffffffffffffffffffffffffffffffffffffffffffffffffffffff1916827bffffffffffffffffffffffffffffffffffffffffffffffffffffffff1916149050919050565b611c8a838383611f53565b600073ffffffffffffffffffffffffffffffffffffffff168373ffffffffffffffffffffffffffffffffffffffff161415611ccd57611cc881611f58565b611d0c565b8173ffffffffffffffffffffffffffffffffffffffff168373ffffffffffffffffffffffffffffffffffffffff1614611d0b57611d0a8382611fa1565b5b5b600073ffffffffffffffffffffffffffffffffffffffff168273ffffffffffffffffffffffffffffffffffffffff161415611d4f57611d4a8161210e565b611d8e565b8273ffffffffffffffffffffffffffffffffffffffff168273ffffffffffffffffffffffffffffffffffffffff1614611d8d57611d8c8282612251565b5b5b505050565b600080823b905060008111915050919050565b60606000821415611dee576040518060400160405280600181526020017f30000000000000000000000000000000000000000000000000000000000000008152509050611f4e565b600082905060005b60008214611e20578080611e0990613122565b915050600a82611e199190612fa4565b9150611df6565b60008167ffffffffffffffff811115611e62577f4e487b7100000000000000000000000000000000000000000000000000000000600052604160045260246000fd5b6040519080825280601f01601f191660200182016040528015611e945781602001600182028036833780820191505090505b5090505b60008514611f4757600182611ead9190612fd5565b9150600a85611ebc919061316b565b6030611ec89190612f4e565b60f81b818381518110611f04577f4e487b7100000000000000000000000000000000000000000000000000000000600052603260045260246000fd5b60200101907effffffffffffffffffffffffffffffffffffffffffffffffffffffffffffff1916908160001a905350600a85611f409190612fa4565b9450611e98565b8093505050505b919050565b505050565b6008805490506009600083815260200190815260200160002081905550600881908060018154018082558091505060019003906000526020600020016000909190919091505550565b60006001611fae846108c7565b611fb89190612fd5565b905060006007600084815260200190815260200160002054905081811461209d576000600660008673ffffffffffffffffffffffffffffffffffffffff1673ffffffffffffffffffffffffffffffffffffffff168152602001908152602001600020600084815260200190815260200160002054905080600660008773ffffffffffffffffffffffffffffffffffffffff1673ffffffffffffffffffffffffffffffffffffffff168152602001908152602001600020600084815260200190815260200160002081905550816007600083815260200190815260200160002081905550505b6007600084815260200190815260200160002060009055600660008573ffffffffffffffffffffffffffffffffffffffff1673ffffffffffffffffffffffffffffffffffffffff16815260200190815260200160002060008381526020019081526020016000206000905550505050565b600060016008805490506121229190612fd5565b9050600060096000848152602001908152602001600020549050600060088381548110612178577f4e487b7100000000000000000000000000000000000000000000000000000000600052603260045260246000fd5b9060005260206000200154905080600883815481106121c0577f4e487b7100000000000000000000000000000000000000000000000000000000600052603260045260246000fd5b906000526020600020018190555081600960008381526020019081526020016000208190555060096000858152602001908152602001600020600090556008805480612235577f4e487b7100000000000000000000000000000000000000000000000000000000600052603160045260246000fd5b6001900381819060005260206000200160009055905550505050565b600061225c836108c7565b905081600660008573ffffffffffffffffffffffffffffffffffffffff1673ffffffffffffffffffffffffffffffffffffffff168152602001908152602001600020600083815260200190815260200160002081905550806007600084815260200190815260200160002081905550505050565b8280546122dc906130bf565b90600052602060002090601f0160209004810192826122fe5760008555612345565b82601f1061231757805160ff1916838001178555612345565b82800160010185558215612345579182015b82811115612344578251825591602001919060010190612329565b5b5090506123529190612356565b5090565b5b8082111561236f576000816000905550600101612357565b5090565b600061238661238184612ea9565b612e84565b90508281526020810184848401111561239e57600080fd5b6123a984828561307d565b509392505050565b60006123c46123bf84612eda565b612e84565b9050828152602081018484840111156123dc57600080fd5b6123e784828561307d565b509392505050565b6000813590506123fe81613875565b92915050565b6000813590506124138161388c565b92915050565b600081359050612428816138a3565b92915050565b60008151905061243d816138a3565b92915050565b600082601f83011261245457600080fd5b8135612464848260208601612373565b91505092915050565b600082601f83011261247e57600080fd5b813561248e8482602086016123b1565b91505092915050565b6000813590506124a6816138ba565b92915050565b6000602082840312156124be57600080fd5b60006124cc848285016123ef565b91505092915050565b600080604083850312156124e857600080fd5b60006124f6858286016123ef565b9250506020612507858286016123ef565b9150509250929050565b60008060006060848603121561252657600080fd5b6000612534868287016123ef565b9350506020612545868287016123ef565b925050604061255686828701612497565b9150509250925092565b6000806000806080858703121561257657600080fd5b6000612584878288016123ef565b9450506020612595878288016123ef565b93505060406125a687828801612497565b925050606085013567ffffffffffffffff8111156125c357600080fd5b6125cf87828801612443565b91505092959194509250565b600080604083850312156125ee57600080fd5b60006125fc858286016123ef565b925050602061260d85828601612404565b9150509250929050565b6000806040838503121561262a57600080fd5b6000612638858286016123ef565b925050602061264985828601612497565b9150509250929050565b60006020828403121561266557600080fd5b600061267384828501612419565b91505092915050565b60006020828403121561268e57600080fd5b600061269c8482850161242e565b91505092915050565b6000602082840312156126b757600080fd5b600082013567ffffffffffffffff8111156126d157600080fd5b6126dd8482850161246d565b91505092915050565b6000602082840312156126f857600080fd5b600061270684828501612497565b91505092915050565b61271881613009565b82525050565b6127278161301b565b82525050565b600061273882612f0b565b6127428185612f21565b935061275281856020860161308c565b61275b81613258565b840191505092915050565b600061277182612f16565b61277b8185612f32565b935061278b81856020860161308c565b61279481613258565b840191505092915050565b60006127aa82612f16565b6127b48185612f43565b93506127c481856020860161308c565b80840191505092915050565b60006127dd602b83612f32565b91506127e882613269565b604082019050919050565b6000612800603283612f32565b915061280b826132b8565b604082019050919050565b6000612823602683612f32565b915061282e82613307565b604082019050919050565b6000612846601c83612f32565b915061285182613356565b602082019050919050565b6000612869602483612f32565b91506128748261337f565b604082019050919050565b600061288c601983612f32565b9150612897826133ce565b602082019050919050565b60006128af602c83612f32565b91506128ba826133f7565b604082019050919050565b60006128d2602683612f32565b91506128dd82613446565b604082019050919050565b60006128f5603883612f32565b915061290082613495565b604082019050919050565b6000612918602a83612f32565b9150612923826134e4565b604082019050919050565b600061293b602983612f32565b915061294682613533565b604082019050919050565b600061295e602e83612f32565b915061296982613582565b604082019050919050565b6000612981602083612f32565b915061298c826135d1565b602082019050919050565b60006129a4603183612f32565b91506129af826135fa565b604082019050919050565b60006129c7602c83612f32565b91506129d282613649565b604082019050919050565b60006129ea601e83612f32565b91506129f582613698565b602082019050919050565b6000612a0d602083612f32565b9150612a18826136c1565b602082019050919050565b6000612a30602983612f32565b9150612a3b826136ea565b604082019050919050565b6000612a53602f83612f32565b9150612a5e82613739565b604082019050919050565b6000612a76602183612f32565b9150612a8182613788565b604082019050919050565b6000612a99603183612f32565b9150612aa4826137d7565b604082019050919050565b6000612abc602c83612f32565b9150612ac782613826565b604082019050919050565b612adb81613073565b82525050565b6000612aed828561279f565b9150612af9828461279f565b91508190509392505050565b6000602082019050612b1a600083018461270f565b92915050565b6000608082019050612b35600083018761270f565b612b42602083018661270f565b612b4f6040830185612ad2565b8181036060830152612b61818461272d565b905095945050505050565b6000602082019050612b81600083018461271e565b92915050565b60006020820190508181036000830152612ba18184612766565b905092915050565b60006020820190508181036000830152612bc2816127d0565b9050919050565b60006020820190508181036000830152612be2816127f3565b9050919050565b60006020820190508181036000830152612c0281612816565b9050919050565b60006020820190508181036000830152612c2281612839565b9050919050565b60006020820190508181036000830152612c428161285c565b9050919050565b60006020820190508181036000830152612c628161287f565b9050919050565b60006020820190508181036000830152612c82816128a2565b9050919050565b60006020820190508181036000830152612ca2816128c5565b9050919050565b60006020820190508181036000830152612cc2816128e8565b9050919050565b60006020820190508181036000830152612ce28161290b565b9050919050565b60006020820190508181036000830152612d028161292e565b9050919050565b60006020820190508181036000830152612d2281612951565b9050919050565b60006020820190508181036000830152612d4281612974565b9050919050565b60006020820190508181036000830152612d6281612997565b9050919050565b60006020820190508181036000830152612d82816129ba565b9050919050565b60006020820190508181036000830152612da2816129dd565b9050919050565b60006020820190508181036000830152612dc281612a00565b9050919050565b60006020820190508181036000830152612de281612a23565b9050919050565b60006020820190508181036000830152612e0281612a46565b9050919050565b60006020820190508181036000830152612e2281612a69565b9050919050565b60006020820190508181036000830152612e4281612a8c565b9050919050565b60006020820190508181036000830152612e6281612aaf565b9050919050565b6000602082019050612e7e6000830184612ad2565b92915050565b6000612e8e612e9f565b9050612e9a82826130f1565b919050565b6000604051905090565b600067ffffffffffffffff821115612ec457612ec3613229565b5b612ecd82613258565b9050602081019050919050565b600067ffffffffffffffff821115612ef557612ef4613229565b5b612efe82613258565b9050602081019050919050565b600081519050919050565b600081519050919050565b600082825260208201905092915050565b600082825260208201905092915050565b600081905092915050565b6000612f5982613073565b9150612f6483613073565b9250827fffffffffffffffffffffffffffffffffffffffffffffffffffffffffffffffff03821115612f9957612f9861319c565b5b828201905092915050565b6000612faf82613073565b9150612fba83613073565b925082612fca57612fc96131cb565b5b828204905092915050565b6000612fe082613073565b9150612feb83613073565b925082821015612ffe57612ffd61319c565b5b828203905092915050565b600061301482613053565b9050919050565b60008115159050919050565b60007fffffffff0000000000000000000000000000000000000000000000000000000082169050919050565b600073ffffffffffffffffffffffffffffffffffffffff82169050919050565b6000819050919050565b82818337600083830152505050565b60005b838110156130aa57808201518184015260208101905061308f565b838111156130b9576000848401525b50505050565b600060028204905060018216806130d757607f821691505b602082108114156130eb576130ea6131fa565b5b50919050565b6130fa82613258565b810181811067ffffffffffffffff8211171561311957613118613229565b5b80604052505050565b600061312d82613073565b91507fffffffffffffffffffffffffffffffffffffffffffffffffffffffffffffffff8214156131605761315f61319c565b5b600182019050919050565b600061317682613073565b915061318183613073565b925082613191576131906131cb565b5b828206905092915050565b7f4e487b7100000000000000000000000000000000000000000000000000000000600052601160045260246000fd5b7f4e487b7100000000000000000000000000000000000000000000000000000000600052601260045260246000fd5b7f4e487b7100000000000000000000000000000000000000000000000000000000600052602260045260246000fd5b7f4e487b7100000000000000000000000000000000000000000000000000000000600052604160045260246000fd5b6000601f19601f8301169050919050565b7f455243373231456e756d657261626c653a206f776e657220696e646578206f7560008201527f74206f6620626f756e6473000000000000000000000000000000000000000000602082015250565b7f4552433732313a207472616e7366657220746f206e6f6e20455243373231526560008201527f63656976657220696d706c656d656e7465720000000000000000000000000000602082015250565b7f4f776e61626c653a206e6577206f776e657220697320746865207a65726f206160008201527f6464726573730000000000000000000000000000000000000000000000000000602082015250565b7f4552433732313a20746f6b656e20616c7265616479206d696e74656400000000600082015250565b7f4552433732313a207472616e7366657220746f20746865207a65726f2061646460008201527f7265737300000000000000000000000000000000000000000000000000000000602082015250565b7f4552433732313a20617070726f766520746f2063616c6c657200000000000000600082015250565b7f4552433732313a206f70657261746f7220717565727920666f72206e6f6e657860008201527f697374656e7420746f6b656e0000000000000000000000000000000000000000602082015250565b7f416c6c2074686520426c6f6f64792046616365732068617665206265656e206d60008201527f696e7465642e0000000000000000000000000000000000000000000000000000602082015250565b7f4552433732313a20617070726f76652063616c6c6572206973206e6f74206f7760008201527f6e6572206e6f7220617070726f76656420666f7220616c6c0000000000000000602082015250565b7f4552433732313a2062616c616e636520717565727920666f7220746865207a6560008201527f726f206164647265737300000000000000000000000000000000000000000000602082015250565b7f4552433732313a206f776e657220717565727920666f72206e6f6e657869737460008201527f656e7420746f6b656e0000000000000000000000000000000000000000000000602082015250565b7f45524337323155524953746f726167653a2055524920736574206f66206e6f6e60008201527f6578697374656e7420746f6b656e000000000000000000000000000000000000602082015250565b7f4552433732313a206d696e7420746f20746865207a65726f2061646472657373600082015250565b7f45524337323155524953746f726167653a2055524920717565727920666f722060008201527f6e6f6e6578697374656e7420746f6b656e000000000000000000000000000000602082015250565b7f4552433732313a20617070726f76656420717565727920666f72206e6f6e657860008201527f697374656e7420746f6b656e0000000000000000000000000000000000000000602082015250565b7f596f7520616c7265616479206f776e206120426c6f6f647920466163652e0000600082015250565b7f4f776e61626c653a2063616c6c6572206973206e6f7420746865206f776e6572600082015250565b7f4552433732313a207472616e73666572206f6620746f6b656e2074686174206960008201527f73206e6f74206f776e0000000000000000000000000000000000000000000000602082015250565b7f4552433732314d657461646174613a2055524920717565727920666f72206e6f60008201527f6e6578697374656e7420746f6b656e0000000000000000000000000000000000602082015250565b7f4552433732313a20617070726f76616c20746f2063757272656e74206f776e6560008201527f7200000000000000000000000000000000000000000000000000000000000000602082015250565b7f4552433732313a207472616e736665722063616c6c6572206973206e6f74206f60008201527f776e6572206e6f7220617070726f766564000000000000000000000000000000602082015250565b7f455243373231456e756d657261626c653a20676c6f62616c20696e646578206f60008201527f7574206f6620626f756e64730000000000000000000000000000000000000000602082015250565b61387e81613009565b811461388957600080fd5b50565b6138958161301b565b81146138a057600080fd5b50565b6138ac81613027565b81146138b757600080fd5b50565b6138c381613073565b81146138ce57600080fd5b5056fea26469706673582212207fc83f9eba84e8d4aa51fc6f9c4767658e5a59de5442363461707c124f7266df64736f6c63430008030033",
  "immutableReferences": {},
  "source": "// SPDX-License-Identifier: MIT\npragma solidity ^0.8.3;\n\nimport \"@openzeppelin/contracts/token/ERC721/ERC721.sol\";\nimport \"@openzeppelin/contracts/token/ERC721/extensions/ERC721Enumerable.sol\";\nimport \"@openzeppelin/contracts/token/ERC721/extensions/ERC721URIStorage.sol\";\nimport \"@openzeppelin/contracts/access/Ownable.sol\";\nimport \"@openzeppelin/contracts/utils/Counters.sol\";\n\ncontract BloodyFace is ERC721, ERC721Enumerable, ERC721URIStorage, Ownable {\n  using Counters for Counters.Counter;\n\n  Counters.Counter private _tokenIdCounter;\n\n  uint256 private _totalSupply = 2;\n\n  constructor() ERC721(\"BloodyFace\", \"BLDFC\") {}\n\n  function mintBloodyFace(string memory _tokenURI)\n    public\n    returns (uint256)\n  {\n    require(_tokenIdCounter.current() < _totalSupply, \"All the Bloody Faces have been minted.\");\n    require(balanceOf(msg.sender) < 1, \"You already own a Bloody Face.\");\n\n    _tokenIdCounter.increment();\n    uint256 newNftId = _tokenIdCounter.current();\n\n    _mint(msg.sender, newNftId);\n    _setTokenURI(newNftId, _tokenURI);\n\n    return newNftId;\n  }\n\n  // The following functions are overrides required by Solidity.\n  // This is generated by OpenZeppelin.\n\n  function _beforeTokenTransfer(address from, address to, uint256 tokenId)\n    internal\n    override(ERC721, ERC721Enumerable)\n  {\n    super._beforeTokenTransfer(from, to, tokenId);\n  }\n\n  function _burn(uint256 tokenId) internal override(ERC721, ERC721URIStorage) {\n    super._burn(tokenId);\n  }\n\n  function tokenURI(uint256 tokenId)\n    public\n    view\n    override(ERC721, ERC721URIStorage)\n    returns (string memory)\n  {\n    return super.tokenURI(tokenId);\n  }\n\n  function supportsInterface(bytes4 interfaceId)\n    public\n    view\n    override(ERC721, ERC721Enumerable)\n    returns (bool)\n  {\n    return super.supportsInterface(interfaceId);\n  }\n}\n",
  "sourcePath": "/Users/valcoh/Work/FightCoin/BloodyFaces/bloodyfaces-contract/contracts/BloodyFaceFactory.sol",
  "compiler": {
    "name": "solc",
    "version": "0.8.3+commit.8d00100c.Emscripten.clang"
  },
  "schemaVersion": "3.4.3",
  "updatedAt": "2021-09-20T09:18:12.237Z",
  "networkType": "ethereum",
  "devdoc": {
    "kind": "dev",
    "methods": {
      "approve(address,uint256)": {
        "details": "See {IERC721-approve}."
      },
      "balanceOf(address)": {
        "details": "See {IERC721-balanceOf}."
      },
      "getApproved(uint256)": {
        "details": "See {IERC721-getApproved}."
      },
      "isApprovedForAll(address,address)": {
        "details": "See {IERC721-isApprovedForAll}."
      },
      "name()": {
        "details": "See {IERC721Metadata-name}."
      },
      "owner()": {
        "details": "Returns the address of the current owner."
      },
      "ownerOf(uint256)": {
        "details": "See {IERC721-ownerOf}."
      },
      "renounceOwnership()": {
        "details": "Leaves the contract without owner. It will not be possible to call `onlyOwner` functions anymore. Can only be called by the current owner. NOTE: Renouncing ownership will leave the contract without an owner, thereby removing any functionality that is only available to the owner."
      },
      "safeTransferFrom(address,address,uint256)": {
        "details": "See {IERC721-safeTransferFrom}."
      },
      "safeTransferFrom(address,address,uint256,bytes)": {
        "details": "See {IERC721-safeTransferFrom}."
      },
      "setApprovalForAll(address,bool)": {
        "details": "See {IERC721-setApprovalForAll}."
      },
      "symbol()": {
        "details": "See {IERC721Metadata-symbol}."
      },
      "tokenByIndex(uint256)": {
        "details": "See {IERC721Enumerable-tokenByIndex}."
      },
      "tokenOfOwnerByIndex(address,uint256)": {
        "details": "See {IERC721Enumerable-tokenOfOwnerByIndex}."
      },
      "totalSupply()": {
        "details": "See {IERC721Enumerable-totalSupply}."
      },
      "transferFrom(address,address,uint256)": {
        "details": "See {IERC721-transferFrom}."
      },
      "transferOwnership(address)": {
        "details": "Transfers ownership of the contract to a new account (`newOwner`). Can only be called by the current owner."
      }
    },
    "version": 1
  },
  "userdoc": {
    "kind": "user",
    "methods": {},
    "version": 1
  }
}